:100000000C94BB000C94DA000C94DA000C94DA0027
:100010000C94DA000C94DA000C94DA000C94DA00F8
:100020000C94DA000C94DA000C94DA000C94DA00E8
:100030000C94DA000C94DA000C94DA000C94DA00D8
:100040000C94DA000C94DA000C9400010C94DA00A1
:100050000C94DA000C94DA000C94DA000C94DA00B8
:100060000C94DA000C94DA000C94DA000C94DA00A8
:100070000C94DA000C94DA000C94DA000C94DA0098
:100080000C94DA000C94DA000C94DA0005A84CCD3C
:10009000B2D44EB93836A9020C50B9918688083CC2
:1000A000A6AAAA2ABE000000803F4C434420496E05
:1000B000697469616C697A656421000042757273C4
:1000C00074204672657175656E63793A0000436805
:1000D00069727020496E74657276616C3A20000016
:1000E0004E756D2053796C6C61626C65733A20209B
:1000F00000004475722053796C6C61626C65733AD0
:100100002020000052707420696E74657276616CF4
:100110003A202020000043686972702C20436869EF
:10012000727020202020000020202020202020206D
:10013000202020200000001F000000001F00001FE2
:10014000101010101F00001F181818181F00001F93
:100150001C1C1C1C1F00001F1E1E1E1E1F00001F3B
:100160001F1F1F1F1F0003070F1F0F070300181C6F
:100170001E1F1E1C180011241FBECFEFD0E4DEBFCF
:10018000CDBF11E0A0E0B1E0E4E6F7E100E00BBF95
:1001900002C007900D92A831B107D9F713E0A8E18A
:1001A000B1E001C01D92A136B107E1F70E94EE0354
:1001B0000C94B00B0C94000014BCEEE6F0E010823E
:1001C00015BC83EC84BD81E0808385BD88E084B963
:1001D00008958FEF81B984B987B980EF8AB912B8D1
:1001E00015B818B88FE08BB9089584EF91E090931B
:1001F00058038093570385B191E0892785B9089505
:100200001F920F920FB60F920BB60F9211242F93DD
:100210003F938F939F93EF93FF93809142038823A3
:1002200009F479C0209124023091250280913A028C
:1002300090913B02820F931F90932502809324029A
:10024000809124029091250290933E02E0913E021B
:10025000F0E0E15CFD4F8081E0914003F0914103CB
:10026000E25EFE4F20818202C0011124880F892F97
:10027000881F990B805887BD80915B0390915C0328
:10028000019690935C0380935B0380915B03909154
:100290005C038B3F910548F48091400390914103AA
:1002A0000196909341038093400380915B0390916A
:1002B0005C038B3F910568F080915B0390915C0338
:1002C0008257924030F48FEF90E0909341038093F7
:1002D000400380915B0390915C038257924080F0D1
:1002E00080915B0390915C038C56934048F480911D
:1002F0004003909141030197909341038093400301
:1003000080915B0390915C038C56934020F0109297
:10031000410310924003809155038150809355030F
:1003200080915503882371F580915703909158036C
:10033000181619064CF480915703909158030197B1
:10034000909358038093570380912802882329F0C3
:10035000809128028150809328028EE38093550378
:1003600080911C0190911D01019690931D01809335
:100370001C0180913C0290913D02019690933D02B8
:1003800080933C02FF91EF919F918F913F912F912C
:100390000F900BBE0F900FBE0F901F90189530EF6F
:1003A0003AB99FE09BB92AE1822F8A95F1F789B18A
:1003B0009AB93BB92A95F1F729B1207F8F70282B84
:1003C000E7E0F1E090E08081821721F09F5F3196B5
:1003D0009131C9F7892F0895AC0120E001C02F5F4A
:1003E000FA01E20FF11D808190E080509140B9F751
:1003F000FFCFCF93DF93EC0180911B018823D1F4D1
:10040000D0931901C09318016091180170911901DE
:10041000882777FD8095982F0E94BA0629E134E05D
:1004200046E85FE30E941F060E94870670933B0226
:1004300060933A0280911B01813021F4D0936003D4
:10044000C0935F0380911B01823021F4D0935A0343
:10045000C093590380911B01833021F4D093230270
:10046000C093220280911B01843039F4D093200282
:10047000C0931F0281E080934203DF91CF910895E2
:1004800081E061E00E940505A4E4B3E0FD01019074
:100490000020E9F73197EA1BFB0BCD016E2F0E947C
:1004A000F004089580911B01882361F48CEB90E0A7
:1004B00060E040E00E94140588E291E060E041E0E5
:1004C0000E94140580911B01813061F48EEC90E054
:1004D00060E040E00E94140588E291E060E041E0C5
:1004E0000E94140580911B01823061F480EE90E03F
:1004F00060E040E00E94140588E291E060E041E0A5
:100500000E94140580911B01833061F482EF90E01A
:1005100060E040E00E94140588E291E060E041E084
:100520000E94140580911B01843061F484E091E005
:1005300060E040E00E94140588E291E060E041E064
:100540000E94140580911B01853061F486E191E0E1
:1005500060E040E00E94140588E291E060E041E044
:100560000E94140508950E94CF018D3059F4109215
:10057000420310921B010E94520281E080931E02EE
:1005800080931A01089580911B018F5F80931B0156
:1005900080911B01853019F481E080934203109211
:1005A0001A010E94520280911B01853019F081E0EE
:1005B00080931E02089588E28093280280911E0293
:1005C000833051F1843028F48130B1F08230D0F49E
:1005D0000CC0853009F447C08530E8F1863009F455
:1005E00052C0873009F07FC056C080911B01853012
:1005F00009F479C081E00DC0809156038131F0F596
:1006000082E050C09091560380912102981799F58D
:1006100083E080931E020895809156038C3039F454
:10062000E0913F03F0E0EC5BFC4F10823AC0809118
:100630003F03813168F480913F03E82FF0E090910F
:100640005603905DEC5BFC4F90838F5F80933F037C
:100650000E9440020EC0909121028091560398178B
:1006600019F185E01FC090912102809156039817DF
:1006700011F484E017C081E080931E020E94CF0134
:100680008093560308959091560380912102981704
:1006900059F087E007C09091560380912102981786
:1006A00041F486E080931E020E94CF0180932102D4
:1006B00008950E94CF018093560310921E0284E495
:1006C00093E00E94B3080E94F90110923F0380E07A
:1006D00090E0FC01EC5BFC4F1082019680319105AB
:1006E000C1F70E94C30208950E944F050E94B705FA
:1006F0000E94E80480E060E00E9405058AEA90E03C
:1007000060E040E00E94140510923F030895CF93EB
:10071000DF9310922502109224021092420384EE7D
:1007200093E090933B0280933A02C0E0D0E0BE0198
:1007300080E090E00E94B80626E53EE049EC50E4F7
:100740000E94460720E030E040E85BE30E94460755
:100750000E94A90720E030E04EEF52E40E944607D5
:100760000E948C06FE01E15CFD4F6083CE019695F0
:100770008795FE01E25EFE4F8083219681E0C030C6
:10078000D807A9F680E887BDDF91CF9108950E9430
:10079000E9000E94DC000E9487030E9474037894A1
:1007A00088E28093280281E080931E028FEF80937D
:1007B0001B0184EF91E090935803809357031092AC
:1007C000550310921D0110921C0110923D021092CF
:1007D0003C0210921A010E94C3020895EF92FF9208
:1007E0000F931F93CF93DF930E94C70304EF11E091
:1007F000EE24E394FF24F3948091570390915803DF
:10080000892B39F4109358030093570385B18E2533
:1008100085B980912802882309F05DC00E94DB021F
:100820005AC08091570390915803892B39F4109343
:1008300058030093570385B18E2585B920913C025A
:1008400030913D0280915F03909160032817390732
:1008500008F441C010923D0210923C02C0E0D0E08A
:1008600033C010925C0310925B031092410310920C
:100870004003109225021092240210921D01109242
:100880001C01F092420302C00E94B30220911C019D
:1008900030911D018091220290912302281739077F
:1008A00098F31092420302C00E94B30220911C01EF
:1008B00030911D0180911F02909120022817390765
:1008C00098F3F092420321968091590390915A0334
:1008D000C817D90730F20E94B302809142038823DF
:1008E00009F48ACF80911A01882309F085CF99CF26
:1008F0000F931F9300D000D000D0EDB7FEB7319614
:1009000009E212E0ADB7BEB712961C930E93119791
:1009100023E031E033832283958384830E94D908C6
:100920008DB79EB706960FB6F8949EBF0FBE8DBFCB
:1009300080E061E00E940505F80101900020E9F7E0
:100940003197E01BF10BC8016E2F0E94F0041F913C
:100950000F910895282F207F28B9409A429A20E4C9
:100960003FE1F9013197F1F742984098F901319749
:10097000F1F790E044E0880F991F4A95E1F788B9B4
:10098000409A429AC9010197F1F742984098C901EB
:100990000197F1F70895282F207F28B9429A20E483
:1009A0003FE1F9013197F1F74298F9013197F1F7F9
:1009B00090E054E0880F991F5A95E1F788B9429A60
:1009C000C9010197F1F74298C9010197F1F708951C
:1009D00081E00E94CB04089582E00E94CB04089538
:1009E0000F931F93CF93DF93062F009749F0EC01ED
:1009F00010E004C089910E94AA041F5F1017D0F371
:100A0000DF91CF911F910F910895623031F06330E3
:100A100031F0613029F4805C03C08C5E01C08C5AD7
:100A200080680E94CB0408951F93CF93DF93EC015D
:100A3000862F642F0E94050510E003C00E94AA04BF
:100A40001F5FFE01E10FF11D84918823B9F7DF914B
:100A5000CF911F910895EF92FF920F931F93CF9321
:100A6000DF937C01162F110F110F110F1064C0E0DE
:100A7000D0E0F701EC0FFD1F0491812F8C0F0E9435
:100A8000CB04802F0E94AA042196C830D10589F793
:100A9000DF91CF911F910F91FF90EF9008951F93D9
:100AA000CF93DF9380E69AEE0197F1F718B818B864
:100AB00087B1806F87B987B1876087B980E388B9CC
:100AC000429A20E43FE1F9013197F1F74298F901A8
:100AD0003197F1F788B9429AC9010197F1F7429825
:100AE000C9010197F1F780E288B9429AC9010197DB
:100AF000F1F74298C9010197F1F788E20E94CB040F
:100B00008CE00E94CB04C6E3D1E060E0162F1F5FAB
:100B1000CE010E942B052896612F1830B9F7DF917E
:100B2000CF911F9108950F931F93082F10E004C0D9
:100B30008EE10E94CB041F5F1017D0F31F910F911D
:100B400008950F931F93082F10E004C088E10E94BE
:100B5000CB041F5F1017D0F31F910F9108958EE003
:100B60000E94CB0408958FE00E94CB0408958CE08E
:100B70000E94CB04089588E00E94CB0408958CE085
:100B80000E94CB0408950F931F93082F10E004C018
:100B900080E10E94CB041F5F1017D0F31F910F91CB
:100BA00008950F931F93082F10E004C084E10E9462
:100BB000CB041F5F1017D0F31F910F910895DF92A0
:100BC000EF92FF920F931F93CF93DF93D42E96E073
:100BD000899FC0011124242F30E0AC01429FC00145
:100BE000439F900D529F900D112470E00E94A00829
:100BF000EB01CB0166E070E00E948C08E82EFF2438
:100C000000E010E012C0C8010596C817D90710F01F
:100C100085E006C0C017D10710F08E2D01C080E01E
:100C20000E94AA04F3940A5F1F4FFD1460F3DF9142
:100C3000CF911F910F91FF90EF90DF9008950CD00E
:100C4000EBC0E3D040F0DAD030F021F45F3F19F090
:100C5000CCC0511115C1CFC0F0D098F39923C9F37E
:100C60005523B1F3951B550BBB27AA2762177307B2
:100C7000840738F09F5F5F4F220F331F441FAA1F66
:100C8000A9F333D00E2E3AF0E0E830D09150504026
:100C9000E695001CCAF729D0FE2F27D0660F771FD4
:100CA000881FBB1F261737074807AB07B0E809F0B6
:100CB000BB0B802DBF01FF2793585F4F2AF09E3F4B
:100CC000510568F092C0DCC05F3FECF3983EDCF366
:100CD000869577956795B795F7959F5FC9F7880FC4
:100CE000911D9695879597F90895E1E0660F771F16
:100CF000881FBB1F621773078407BA0720F0621BA7
:100D0000730B840BBA0BEE1F88F7E095089504D09F
:100D10006894B111B5C0089598D088F09F5790F0AD
:100D2000B92F9927B751A0F0D1F0660F771F881F10
:100D3000991F1AF0BA95C9F712C0B13081F09FD04F
:100D4000B1E008959CC0672F782F8827B85F39F0ED
:100D5000B93FCCF3869577956795B395D9F73EF46F
:100D600090958095709561957F4F8F4F9F4F089517
:100D7000E89409C097FB3EF4909580957095619535
:100D80007F4F8F4F9F4F9923A9F0F92F96E9BB27EB
:100D90009395F695879577956795B795F111F8CF67
:100DA000FAF4BB0F11F460FF1BC06F5F7F4F8F4FD2
:100DB0009F4F16C0882311F096E911C0772321F0C8
:100DC0009EE8872F762F05C0662371F096E8862F60
:100DD00070E060E02AF09A95660F771F881FDAF7B7
:100DE000880F9695879597F9089597F99F6780E8FA
:100DF00070E060E008959FEF80EC089500240A946D
:100E00001616170618060906089500240A941216E5
:100E10001306140605060895092E0394000C11F418
:100E2000882352F0BB0F40F4BF2B11F460FF04C0C5
:100E30006F5F7F4F8F4F9F4F089557FD9058440F1E
:100E4000551F59F05F3F71F04795880F97FB991F29
:100E500061F09F3F79F087950895121613061406E6
:100E6000551FF2CF4695F1DF08C016161706180673
:100E7000991FF1CF86957105610508940895E8944E
:100E8000BB2766277727CB0197F908950BD0C4CFEE
:100E9000B5DF28F0BADF18F0952309F0A6CFABCF65
:100EA0001124EECFCADFA0F3959FD1F3950F50E048
:100EB000551F629FF001729FBB27F00DB11D639F0C
:100EC000AA27F00DB11DAA1F649F6627B00DA11DB2
:100ED000661F829F2227B00DA11D621F739FB00D58
:100EE000A11D621F839FA00D611D221F749F3327C8
:100EF000A00D611D231F849F600D211D822F762F61
:100F00006A2F11249F5750408AF0E1F088234AF05D
:100F1000EE0FFF1FBB1F661F771F881F91505040A9
:100F2000A9F79E3F510570F060CFAACF5F3FECF369
:100F3000983EDCF3869577956795B795F795E79595
:100F40009F5FC1F7FE2B880F911D9695879597F9A6
:100F500008959F9305D00F9007FCEE5F28C04BCFFC
:100F600074DFE8F3E894E0E0BB279F57F0F02AED48
:100F70003FE049EC06C0EE0FBB0F661F771F881FCE
:100F800028F0B23A62077307840728F0B25A620B5E
:100F9000730B840BE3959A9572F7803830F49A9529
:100FA000BB0F661F771F881FD2F7904873C0EF935F
:100FB000E0FF06C0A2EA2AED3FE049EC5FEB15D066
:100FC0002BDF0F90039401FC9058ECE8F0E06EC02A
:100FD00015DF30F01ADF20F031F49F3F11F41EF4DA
:100FE0000ACF0EF4E095E7FB00CFE92F26DF80F370
:100FF000BA17620773078407950718F071F49EF516
:101000003ECF0EF4E0950B2EBA2FA02D0B01B901A7
:1010100090010C01CA01A0011124FF27591B99F06E
:10102000593F50F4503E68F11A16F040A22F232F7A
:10103000342F4427585FF3CF469537952795A795CA
:10104000F0405395C9F77EF41F16BA0B620B730B71
:10105000840BBAF09150A1F0FF0FBB1F661F771FE2
:10106000881FC2F70EC0BA0F621F731F841F48F497
:10107000879577956795B795F7959E3F08F0B3CF1D
:101080009395880F08F09927EE0F97958795089507
:101090009F3F31F0915020F4879577956795B795EC
:1010A000880F911D9695879597F908959F938F9333
:1010B0007F936F93FF93EF939B01AC01E7DEEF917A
:1010C000FF9105D02F913F914F915F91DFCEDF933C
:1010D000CF931F930F93FF92EF92DF927B018C01CE
:1010E000689405C0DA2EEF01DDDEFE01E894A591DB
:1010F0002591359145915591AEF3EF0176DFFE01D3
:101100009701A801DA9479F7DF90EF90FF900F91A3
:101110001F91CF91DF910895AA1BBB1B51E107C01E
:10112000AA1FBB1FA617B70710F0A61BB70B881F77
:10113000991F5A95A9F780959095BC01CD01089506
:1011400097FB092E07260AD077FD04D0E5DF06D0ED
:1011500000201AF4709561957F4F0895F6F79095E9
:1011600081959F4F0895FC0188279927E894219144
:101170002032E9F3293010F02E30C8F32B3241F041
:101180002D3239F4689404C00E94D108820F911D59
:10119000219120532A30C0F31EF4909581959F4FE2
:1011A00008957AE0979F902D879F802D910D1124AF
:1011B00008950F931F93DF93CF93CDB7DEB72E978C
:1011C0000FB6F894DEBF0FBECDBF0D891E8986E035
:1011D0008C831A8309838FEF9FE79E838D839E0103
:1011E000275E3F4FCE0101966F89788DA9010E943D
:1011F0000A092F813885020F131FF80110822E96DD
:101200000FB6F894DEBF0FBECDBFCF91DF911F9117
:101210000F9108952F923F924F925F926F927F921B
:101220008F929F92AF92BF92CF92DF92EF92FF92F6
:101230000F931F93DF93CF93CDB7DEB72B970FB6E6
:10124000F894DEBF0FBECDBF3C012B015A01FC015B
:1012500017821682838181FD03C06FEF7FEFC6C1C5
:101260009AE0892E1E010894211C311CF301238170
:10127000F20123FD859123FF81912F01882309F439
:10128000B2C1853239F423FD859123FF81912F016D
:10129000853229F490E0B3010E94260BE7CF982F06
:1012A000FF24EE249924FFE1FF15D0F09B3269F072
:1012B0009C3228F4903259F0933291F40EC09D3252
:1012C00049F0903369F441E024C052E0F52A84E00B
:1012D000F82A28C098E0F92A25C0E0E1FE2A22C0B9
:1012E000F7FC29C0892F80538A3070F4F6FE05C0C0
:1012F000989C902C1124980E15C0E89CE02C112489
:10130000E80EF0E2FF2A0EC09E3229F4F6FC6BC113
:1013100040E4F42A07C09C3619F450E8F52A02C0CC
:10132000983649F4F20123FD959123FF91912F0105
:10133000992309F0B8CF892F8554833018F0805253
:10134000833038F444E050E0A40EB51E5FE35983C7
:101350000FC0933631F0933779F0933509F056C0CA
:1013600020C0F5018081898342E050E0A40EB51EC3
:10137000610101E010E012C0F501C080D180F6FCEF
:1013800003C06FEF7FEF02C0692D70E042E050E0D4
:10139000A40EB51EC6010E941B0B8C015FE7F5224F
:1013A00014C0F501C080D180F6FC03C06FEF7FEF61
:1013B00002C0692D70E042E050E0A40EB51EC601E7
:1013C0000E94100B8C0150E8F52AF3FE07C01AC0EA
:1013D00080E290E0B3010E94260BEA948E2D90E00B
:1013E00008171907A8F30EC0F601F7FC8591F7FE60
:1013F00081916F0190E0B3010E94260BE110EA9405
:10140000015010400115110579F7EAC0943611F02A
:10141000993669F5F7FE08C0F501208131814281D6
:10142000538184E090E00AC0F501808191819C01A4
:10143000442737FD4095542F82E090E0A80EB91E56
:101440009FE6F92257FF09C05095409530952195A8
:101450003F4F4F4F5F4FE0E8FE2ACA01B901A1019B
:101460002AE030E00E94520BD82ED21840C09537A7
:1014700029F41F2D1F7E2AE030E01DC01F2D197F8B
:101480009F3661F0903720F4983509F0ACC00FC05A
:10149000903739F0983709F0A6C004C028E030E052
:1014A0000AC0106114FD146020E130E004C014FD96
:1014B000166020E132E017FF08C0F50160817181FC
:1014C0008281938144E050E008C0F50180819181E0
:1014D000BC0180E090E042E050E0A40EB51EA10106
:1014E0000E94520BD82ED2188FE7F82EF122F6FE6A
:1014F0000BC05EEFF522D91438F4F4FE07C0F2FCFD
:1015000005C08FEEF82202C01D2D01C0192DF4FE7A
:101510000DC0FE01ED0DF11D8081803319F499EEAF
:10152000F92208C01F5FF2FE05C003C08F2D867828
:1015300009F01F5F0F2DF3FC14C0F0FE0FC01E1545
:1015400010F09D2C0BC09D2C9E0C911A1E2D06C0D8
:1015500080E290E0B3010E94260B1F5F1E15C0F3CE
:1015600004C01E1510F4E11A01C0EE2404FF0FC0E0
:1015700080E390E0B3010E94260B02FF1DC001FD35
:1015800003C088E790E00EC088E590E00BC0802F94
:10159000867891F001FF02C08BE201C080E2F7FC87
:1015A0008DE290E0B3010E94260B06C080E390E03C
:1015B000B3010E94260B9A94D914C0F3DA94F10176
:1015C000ED0DF11D808190E0B3010E94260BDD201E
:1015D000A9F706C080E290E0B3010E94260BEA94CE
:1015E000EE20C1F743CEF30166817781CB012B96C4
:1015F0000FB6F894DEBF0FBECDBFCF91DF911F9124
:101600000F91FF90EF90DF90CF90BF90AF909F90A1
:101610008F907F906F905F904F903F902F900895A4
:10162000FC010590615070400110D8F780959095AD
:101630008E0F9F1F0895FC016150704001900110B2
:10164000D8F7809590958E0F9F1F08950F931F9345
:10165000CF93DF938C01EB018B8181FF1BC082FF55
:101660000DC02E813F818C819D812817390764F43C
:10167000E881F9810193F983E88306C0E885F9855B
:10168000802F0995892B31F48E819F8101969F834C
:101690008E8302C00FEF1FEFC801DF91CF911F9122
:1016A0000F910895FA01AA27283051F1203181F1D4
:1016B000E8946F936E7F6E5F7F4F8F4F9F4FAF4F5A
:1016C000B1E03ED0B4E03CD0670F781F891F9A1F6D
:1016D000A11D680F791F8A1F911DA11D6A0F711D21
:1016E000811D911DA11D20D009F468943F912AE02D
:1016F000269F11243019305D3193DEF6CF01089515
:10170000462F4770405D4193B3E00FD0C9F7F6CF45
:10171000462F4F70405D4A3318F0495D31FD40520D
:10172000419302D0A9F7EACFB4E0A69597958795A3
:1017300077956795BA95C9F7009761057105089582
:101740009B01AC010A2E069457954795379527952E
:10175000BA95C9F7620F731F841F951FA01D0895C6
:04176000F894FFCF2B
:101764002F3000252D6900D7EEDEBEEDDDBDEBDBAD
:08177400BB7E7D7B77E7B70027
:00000001FF
