:100000000C946C020C948B020C948B020C948B025B
:100010000C948B020C948B020C948B020C948B022C
:100020000C948B020C948B020C948B020C948B021C
:100030000C948B020C9490020C948D020C948B0205
:100040000C948B020C948B020C948B020C948B02FC
:100050000C948B020C948B020C948B020C948B02EC
:100060000C948B020C948B020C948B020C948B02DC
:100070000C948B020C948B020C948B020C948B02CC
:100080000C948B020C948B020C948B024C434420F6
:10009000496E697469616C697A6564210000427512
:1000A000727374204672657175656E63793A0000EB
:1000B000436869727020496E74657276616C3A208B
:1000C00000004E756D2053796C6C61626C65733AFB
:1000D000202000004475722053796C6C61626C655D
:1000E000733A2020000052707420696E7465727635
:1000F000616C3A202020000043686972702C204314
:1001000068697270202020200000202020202020FC
:10011000202020202020000000000000000000001F
:1001200000000000000000000000000000000000CF
:1001300000000000000000000000000000000000BF
:1001400000000000000000000000000000000000AF
:10015000000000000000000000000000000000009F
:10016000000000000000000000000000000000008F
:10017000000000000000000000000000000000007F
:10018000000000000000000000000000000000006F
:10019000000000000000000000000000000000005F
:1001A000000000000000000000000000000000004F
:1001B000000000000000000000000000000000003F
:1001C000000000000000000000000000000000002F
:1001D000000000000000000000000000000000001F
:1001E000000000000000000000000000000000000F
:1001F000000000000000000000000000000000609F
:10020000606060000060505000000000000050F886
:1002100050F8500070A0A07028287040A8502050BE
:10022000A8102050A040A890684040400000000066
:100230001020404040201040201010102040103866
:100240001000000000002020F82020000000000026
:1002500000101000000000F8000000000000000086
:100260001000081020408000708898A8C88870206E
:10027000602020202070708808102040F8F810209E
:100280001008887010305090F81010F880F00808AE
:100290008870408080F0888870F808102040808046
:1002A00070888870888870708888780808100000C6
:1002B00020000000200000200000202000186080A6
:1002C0006018000000780078000000C0300830C0DE
:1002D00000304810202000207088B8A890887070E6
:1002E000888888F88888F08888F08888F070888006
:1002F00080808870F08888888888F0F88080F8800E
:1003000080F8F88080F88080807088809888887075
:10031000888888F8888888702020202020703810ED
:1003200010101090608890A0C0A09088808080807D
:100330008080F888D8A8A88888888888C8A89888DD
:100340008870888888888870F08888F080808070BD
:10035000888888A89068F08888F0A0908878808045
:10036000700808F0F82020202020208888888888BD
:10037000887088888888885020888888A8A8A8508D
:100380008888502050888888888850202020F80845
:1003900010204080F8E08080808080E00080402055
:1003A000100800380808080808382050000000002D
:1003B00000000000000000F8804000000000000085
:1003C0006010709060008080E09090E0000000700D
:1003D0008080700010107090907000006090F0802D
:1003E00070003040E04040400000609070101060AD
:1003F0008080E090909000002000202020000010DD
:1004000000101010608090A0C0A09000202020203C
:10041000202000000050A8A8A80000006090909044
:10042000000000609090600000006090F08080000C
:10043000006090F010100000B840404000000070D4
:10044000401070004040E04040400000009090901C
:100450006000000088885020000000A8A8505000CC
:10046000000090606090000000909060408000006C
:10047000F02040F0002040408040402020202020FC
:1004800020202020101008101020000040A810008C
:100490000000000000000000001F000000001F001E
:1004A000001F101010101F00001F181818181F0030
:1004B000001F1C1C1C1C1F00001F1E1E1E1E1F00D8
:1004C000001F1F1F1F1F1F0003070F1F0F07030021
:1004D000181C1E1F1E1C180011241FBECFEFD0E4D5
:1004E000DEBFCDBF11E0A0E0B1E0E0E5FEE100E05D
:1004F0000BBF02C007900D92A832B107D9F716E0E2
:10050000A8E2B1E001C01D92A730B107E1F70E9457
:10051000DA060C94260F0C940000789488951895B0
:100520001F920F920FB60F920BB60F9211242F93BA
:100530003F938F939F93EF93FF938091E7058BB940
:100540008091A9059091AA0501969093AA058093A0
:10055000A9058091A9059091AA05883F910529F4E4
:1005600081E08093E705109206068091A90590919D
:10057000AA058B3F910529F41092E70581E080934D
:1005800006068091A9059091AA058750914031F403
:1005900081E090E09093AA058093A90580E18A9577
:1005A000F1F7809106068BB98091A9059091AA0573
:1005B0008D36910594F58091A9059091AA058D97A6
:1005C00064F18091A9059091AA058D9724E0880F88
:1005D000991F2A95E1F72AE22A95F1F7FC01E95AD9
:1005E000FE4F20812093C60028E02093C100218186
:1005F0002093C600FC01E75AFE4F22E030E08091D4
:10060000C00085FFFCCF81918093C6002F5F3F4FD4
:1006100020313105A1F71092C100FF91EF919F9118
:100620008F913F912F910F900BBE0F900FBE0F90A7
:100630001F901895E1E8F0E01082AFE6B0E01C9260
:1006400089E080838AEF93E090938900809388000B
:1006500087EE93E090938B0080938A0086E08C93E2
:10066000089588E08093C10080EC8093C20081E00F
:1006700090E09093C5008093C4000895ECE7F0E00B
:100680001082AAE7B0E01C9280E6808387E88C9312
:10069000089511B812B883E08AB90895ECE7F0E044
:1006A0001082805A8083EAE7F0E080818064808352
:1006B00008950F931F9310927C0010927A0080E6A9
:1006C00080937C0087E880937A0011B812B883E0A9
:1006D0008AB988E08093C10080EC8093C20001E079
:1006E00010E01093C5000093C4000E941A031093F9
:1006F000AA050093A9051092E70581E080930606FC
:1007000080E090E0FC01E85BFE4F1082FC01EE0F00
:10071000FF1FE85DFE4F11821082FC01E659FA4F7F
:10072000108201968F30910569F7E7E5F1E01192AB
:1007300085E0E735F807D9F710926905109268054A
:10074000789483B7817F83BF83B7816083BF1F9114
:100750000F910895982F70E054E0660F771F5A9517
:10076000E1F7869586958695680F711D413069F48D
:10077000DB01A95ABE4FE92FF0E0E770F070E15EAF
:10078000FE4F8C919081892B17C0DB01A95ABE4F77
:10079000E92FF0E0442349F4E770F070E15EFE4F8A
:1007A000908190958C91892307C0E770F070E15E8D
:1007B000FE4F8C91908189278C9308952F923F92C0
:1007C0004F925F926F927F928F929F92AF92BF9261
:1007D000CF92DF92EF92FF920F931F93DF93CF930D
:1007E00000D000D0CDB7DEB70A83C82EDD24E62EB8
:1007F000FF24481738F4C601841B91099C838B831E
:100800007FEF0DC0481721F41C821B8270E007C0E7
:10081000E42FF0E0EC19FD09FC83EB8371E026176F
:1008200028F4A701421B51096FEF0BC0261721F4D2
:1008300040E050E060E005C0422F50E04E195F09F3
:1008400061E08B819C818417950744F4CA014B8138
:100850005C819C838B8391E0998301C019822A017A
:10086000440C551C8201EB81FC810E1B1F0B1F01E8
:10087000220C331CAA24BB24662E772467FC7094B8
:10088000872E992487FC90941EC08C2D6E2D4A8152
:100890000E94AA0317FD0AC0F981F13019F4C80CAF
:1008A000D91C02C0E60CF71C02191309898181309A
:1008B00019F4E60CF71C02C0C80CD91C040D151D58
:1008C0000894A11CB11CEB81FC81EA15FB05ECF638
:1008D0000F900F900F900F90CF91DF911F910F917C
:1008E000FF90EF90DF90CF90BF90AF909F908F9050
:1008F0007F906F905F904F903F902F9008958F92D0
:100900009F92AF92BF92CF92DF92EF92FF920F939E
:100910001F93CF93DF93E82EF62E87E0489FA00128
:100920001124EA01C85EDE4F8E2C839472E0972E6C
:100930009E0C63E0A62EAE0C34E0B32EBE0C2FE16D
:10094000C22E21E0D22EC40ED51EFE010491402FEE
:10095000441F4427441F8E2D6F2D0E94AA0310E0D0
:10096000A80196E0569547959A95E1F74170882D34
:100970006F2D0E94AA03A80185E0569547958A9598
:10098000E1F74170892D6F2D0E94AA03A801B4E000
:1009900056954795BA95E1F741708A2D6F2D0E94C3
:1009A000AA03A3E016950795AA95E1F701708B2D90
:1009B0006F2D402F0E94AA032196F394CC15DD05DC
:1009C00021F6DF91CF911F910F91FF90EF90DF9073
:1009D000CF90BF90AF909F908F900895FF920F930C
:1009E0001F93CF93DF93082FF62EEA0110E006C085
:1009F000802F6F2D0E947F040A5F1F5FFE01E10FB1
:100A0000F11D40814423A1F7DF91CF911F910F91F8
:100A1000FF900895E62FF0E0282F2695269526953D
:100A2000A4E0EE0FFF1FAA95E1F7E20FF11DE95ACE
:100A3000FE4F90E0809590958770907021E030E0B7
:100A400002C0220F331F8A95E2F780818223089526
:100A5000EF92FF920F931F938C01000F111FFAE783
:100A6000EF2EF5E0FF2EE00EF11EF701808191815F
:100A700008511A4FF80160817181892F990F990BE4
:100A8000672F770F770B8F5F40E00E94AA03F70173
:100A900080819181F80160817181892F990F990B73
:100AA000672F770F770B8E5F40E00E94AA03F70154
:100AB00080819181F80160817181892F990F990B53
:100AC000672F770F770B6F5F40E00E94AA03F70153
:100AD00080819181F80160817181892F990F990B33
:100AE000672F770F770B6E5F40E00E94AA03F70134
:100AF00080819181F80160817181892F990F990B13
:100B0000672F770F770B6F5F8D5F40E00E94AA031E
:100B1000F70180819181F80160817181892F990F9E
:100B2000990B672F770F770B6E5F8D5F40E00E9408
:100B3000AA03F70180819181F80160817181892F79
:100B4000990F990B672F770F770B6D5F8F5F40E0E1
:100B50000E94AA03F70180819181F801608171816F
:100B6000892F990F990B672F770F770B6D5F8E5F2A
:100B700040E00E94AA031F910F91FF90EF9008950B
:100B8000EF92FF920F931F938C01000F111FFAE752
:100B9000EF2EF5E0FF2EE00EF11EF701808191812E
:100BA00008511A4FF80160817181892F990F990BB3
:100BB000672F770F770B8F5F41E00E94AA03F70141
:100BC00080819181F80160817181892F990F990B42
:100BD000672F770F770B8E5F41E00E94AA03F70122
:100BE00080819181F80160817181892F990F990B22
:100BF000672F770F770B6F5F41E00E94AA03F70121
:100C000080819181F80160817181892F990F990B01
:100C1000672F770F770B6E5F41E00E94AA03F70101
:100C200080819181F80160817181892F990F990BE1
:100C3000672F770F770B6F5F8D5F41E00E94AA03EC
:100C4000F70180819181F80160817181892F990F6D
:100C5000990B672F770F770B6E5F8D5F41E00E94D6
:100C6000AA03F70180819181F80160817181892F48
:100C7000990F990B672F770F770B6D5F8F5F41E0AF
:100C80000E94AA03F70180819181F801608171813E
:100C9000892F990F990B672F770F770B6D5F8E5FF9
:100CA00041E00E94AA031F910F91FF90EF900895D9
:100CB000FF920F931F93FF2440E050E020E030E0CC
:100CC000F901EE0FFF1FE85DFE4F8081918148170B
:100CD000590718F440815181F22E2F5F3F4F2F307A
:100CE000310571F70F2D10E0C8010E942805085B3F
:100CF0001E4FF8011082809168058F5F8093680510
:100D00008F2D1F910F91FF900895809148018823A6
:100D100011F490E019C091E001C09F5FE92FF0E06D
:100D2000E85BFE4F8081282F30E040E050E09E30AD
:100D300010F441E050E024233523232B71F79E303B
:100D400019F40E945806982F892F90E0DC01AA0F11
:100D5000BB1FFD01E85DFE4F11821082FC01E85BC4
:100D6000FE4F21E02083FD01E658FA4F20E038E7EE
:100D700031832083FD01E851FA4F20E03EE03183CA
:100D80002083FD01E555FA4F20E83FEF31832083B2
:100D90002091690530E02770307046E0220F331F44
:100DA0004A95E1F7A753BA4F11963C932E930E94B0
:100DB000C00508952F923F924F925F926F927F925B
:100DC0008F929F92AF92BF92CF92DF92EF92FF925B
:100DD0000F931F93DF93CF93CDB7DEB76D970FB609
:100DE000F894DEBF0FBECDBF0E9459038FE760E0CD
:100DF0004FE72FE301E00E94DE0380E060E04FE771
:100E000020E00E94DE0380E06FE34EE62FE30E94C5
:100E1000DE0382E361E041E00E94AA038BE461E02B
:100E200041E00E94AA0382E36EE341E00E94AA032C
:100E30008BE46EE341E00E94AA0312E0F12E1A86D1
:100E40001986FAC28091A9059091AA058D3691055F
:100E500009F0F2C229853A852F5F3F4F3A872987EB
:100E60002E3131050CF454C00E948506809169052D
:100E70008F5F809369058091690500D000D000D014
:100E8000EDB7FEB7319621E030E02C0F3D1FADB736
:100E9000BEB712963C932E931197A0E0B1E0B383B6
:100EA000A2838695848315820E944F0CEDB7FEB70E
:100EB00036960FB6F894FEBF0FBEEDBF8EE669E31F
:100EC000AE014F5F5F4F0E94EE0480E060E04FE7AD
:100ED00020E001E00E94DE0380E06FE34EE62FE3B6
:100EE0000E94DE0382E361E041E00E94AA038BE4FA
:100EF00061E041E00E94AA0382E36EE341E00E94C8
:100F0000AA038BE46EE341E00E94AA031A861986C5
:100F10001F2D185F82E06F2D42E0212F00E00E941C
:100F2000DE0383E06F2D43E0212F0E94DE038091DA
:100F30007900F5E38F9FC00111246FEF70E00E94EC
:100F40003C0C162F262F2F5F2B87822F90E0998B3A
:100F5000888B175F82E0622F42E0212F01E00E9420
:100F6000DE0383E06B8543E0212F0E94DE031092B5
:100F70007C00A0E6A0937C0080917A00806480933E
:100F80007A00888999898F199109F82FEE27FF87B0
:100F9000EE8722243324F101E85BFE4F8081882311
:100FA00009F418C2F101EE0FFF1FE85DFE4F8081CA
:100FB0009181019691838083F101E659FA4F8081F6
:100FC000882319F080818150808391012F5F3F4FEA
:100FD00038872F83C101880F991FDC01A658BA4FAB
:100FE000BD8BAC8BFC01E851FA4FFF8BEE8B91016E
:100FF00026593A4F398F288FDC01A555BA4FBB8F40
:10100000AA8FFC01E753FA4FFD8FEC8F2F813885B3
:101010002216330609F4AFC0AC89BD89CD90DC90AF
:101020005901AA0CBB1CF501E658FA4F8081918149
:10103000C81AD90AEE89FF8920813181F501E8516A
:10104000FA4F60817181C60180509C4F8150984059
:1010500008F091C0C901861B970B9D878C87805033
:101060009C4F8150984008F086C0C601B6010E948E
:101070001A0C8C018C859D85BC010E941A0C080FEE
:10108000191F015010410CF076C0E88DF98D808158
:10109000882309F070C02F81388526593A4F3B8B41
:1010A0002A8BD9018C91882309F065C0EA8DFB8DCC
:1010B000608171815BEA652E55E0752E6A0C7B1CA0
:1010C000D3018D919C91EC8DFD8DE080F18049ECF8
:1010D000442E45E0542E4A0C5B1CD201AD90BC90CE
:1010E00046019594879495948794681B790BC40165
:1010F0000E941A0C8C01CC84DD84D594C794D594BD
:10110000C794EA18FB08C601B7010E941A0C080F21
:10111000191FC401B8010E941A0C7C01C601B80154
:101120000E941A0CEA8DFB8D208131812E0D3F1D0E
:1011300031832083AC8DBD8D2D913C911197280F6B
:10114000391F11963C932E93F301208131812E1982
:101150003F0931832083D2012D913C911197281BA7
:10116000390B11963C932E9325E0E88DF98D208361
:10117000AA89BB892C93EF81F8853196F887EF8394
:101180003F9709F043CF7101EE0CFF1C8BEAA82EAC
:1011900085E0B82EAE0CBF1CD5010D911C911197A6
:1011A0008D919C9161E070E00E941A0C081B190B54
:1011B000F5011183008309ECC02E05E0D02ECE0C82
:1011C000DF1CD6010D911C9111978D919C9161E0CE
:1011D00070E00E941A0C081B190BF60111830083A2
:1011E000F701E658FA4F80819181892F990F990B69
:1011F0008730A4F5F701E851FA4F80819181892F5A
:10120000990F990B992787FD909528893989821B19
:10121000930B8D5F9F4F14F180819181892F990FDE
:10122000990B992787FD9095A889B9898A1B9B0BF3
:101230000997A4F4F5018081918160E07FEF0E941D
:101240001A0CD50111969C938E93F60180819181A1
:101250002E853F85820F931F91838083C1010E9459
:1012600028059101220F331FF901E658FA4F8081BA
:101270009181892F990F990B8A3754F0F901E5551F
:10128000FA4F80819181909581959F4F91838083C2
:101290009101220F331FF901E851FA4F80819181AA
:1012A000892F990F990B843054F4F901E753FA4FC1
:1012B00080819181909581959F4F91838083910149
:1012C000220F331FF901E851FA4F80819181892F54
:1012D000990F990B8A3354F0F901E753FA4F808143
:1012E0009181909581959F4F91838083D101AA0F21
:1012F000BB1FAD0146585A4FFA0120813181FD01D3
:10130000E555FA4F80819181820F931FFA019183F5
:101310008083FD01E851FA4F20813181A753BA4FF4
:101320008D919C91820F931F91838083DA018D911F
:101330009C91892F990F990B8330ACF4F101E85BF4
:10134000FE4F108280916805882329F080916805FE
:10135000815080936805F101EE0FFF1FE85DFE4F9D
:101360001182108230C0DA018D919C9111972D91DC
:101370003C91892F990F990B8B344CF5832F99272A
:1013800087FD9A9583331CF1808191812081318181
:10139000892F990F990B853034F0832F992787FD7A
:1013A0009A958A33A4F0F101E85BFE4F1082F101B7
:1013B000EE0FFF1FE85DFE4F1182108280916805DD
:1013C0008F5F80936805C1010E94280503C0C10199
:1013D0000E94C0050894211C311CBEE02B1631046C
:1013E00009F0D9CD8091680500D000D000D0EDB7CC
:1013F000FEB7319624E030E02C0F3D1FADB7BEB7ED
:1014000012963C932E931197A0E0B1E0B383A28390
:10141000848315820E944F0CEDB7FEB736960FB647
:10142000F894FEBF0FBEEDBF8EE661E0AE014C5FEB
:101430005F4F0E94EE04FB8480916905893C08F4AB
:1014400001CD00E010E0C8010E9428050F5F1F4F8A
:101450000F301105C1F78E010C5F1F4F64E0E62EBF
:1014600061E0F62E8091680500D000D000D0EDB785
:10147000FEB73196ADB7BEB712961C930E93119777
:10148000F382E282848315820E944F0CEDB7FEB78F
:1014900036960FB6F894FEBF0FBEEDBF8EE16EE13B
:1014A00047E051E00E94EE048EE16AE243E151E040
:1014B0000E94EE0484E66AE2A8010E94EE04D2CF04
:1014C0000F931F9300D000D000D0EDB7FEB7319638
:1014D00007E515E0ADB7BEB712961C930E931197B2
:1014E00020E031E033832283848315820E944F0CF5
:1014F0008DB79EB706960FB6F8949EBF0FBE8DBFF0
:1015000080E061E00E94000BF80101900020E9F703
:101510003197E01BF10BC8016E2F0E94EB0A1F915F
:101520000F9108950E944A0B0E94B20B0E94E30A99
:1015300080E060E00E94000B8CE890E060E040E01A
:101540000E940F0B109279050895282F207F28B94B
:10155000409A429A20E43FE1F9013197F1F742982D
:101560004098F9013197F1F790E044E0880F991F16
:101570004A95E1F788B9409A429AC9010197F1F773
:1015800042984098C9010197F1F70895282F207FCC
:1015900028B9429A20E43FE1F9013197F1F74298E6
:1015A000F9013197F1F790E054E0880F991F5A95AF
:1015B000E1F788B9429AC9010197F1F74298C90148
:1015C0000197F1F7089581E00E94C60A089582E02C
:1015D0000E94C60A08950F931F93CF93DF93062F9F
:1015E000009749F0EC0110E004C089910E94A50A1F
:1015F0001F5F1017D0F3DF91CF911F910F910895C6
:10160000623031F0633031F0613029F4805C03C026
:101610008C5E01C08C5A80680E94C60A08951F9390
:10162000CF93DF93EC01862F642F0E94000B10E014
:1016300003C00E94A50A1F5FFE01E10FF11D849106
:101640008823B9F7DF91CF911F910895EF92FF9210
:101650000F931F93CF93DF937C01162F110F110F60
:10166000110F1064C0E0D0E0F701EC0FFD1F0491F2
:10167000812F8C0F0E94C60A802F0E94A50A2196F6
:10168000C830D10589F7DF91CF911F910F91FF905D
:10169000EF9008951F93CF93DF9380E69AEE019722
:1016A000F1F718B818B887B1806F87B987B187602C
:1016B00087B980E388B9429A20E43FE1F901319784
:1016C000F1F74298F9013197F1F788B9429AC901C7
:1016D0000197F1F74298C9010197F1F780E288B9C3
:1016E000429AC9010197F1F74298C9010197F1F7B0
:1016F00088E20E94C60A8CE00E94C60AC8E9D4E0CB
:1017000060E0162F1F5FCE010E94260B2896612FE6
:101710001830B9F7DF91CF911F9108950F931F9360
:10172000082F10E004C08EE10E94C60A1F5F101748
:10173000D0F31F910F9108950F931F93082F10E07E
:1017400004C088E10E94C60A1F5F1017D0F31F91E2
:101750000F9108958EE00E94C60A08958FE00E94BE
:10176000C60A08958CE00E94C60A089588E00E9487
:10177000C60A08958CE00E94C60A08950F931F932D
:10178000082F10E004C080E10E94C60A1F5F1017F6
:10179000D0F31F910F9108950F931F93082F10E01E
:1017A00004C084E10E94C60A1F5F1017D0F31F9186
:1017B0000F910895DF92EF92FF920F931F93CF93B3
:1017C000DF93D42E96E0899FC0011124242F30E0AE
:1017D000AC01429FC001439F900D529F900D112478
:1017E00070E00E943C0CEB01CB0166E070E00E94CF
:1017F000280CE82EFF2400E010E012C0C801059676
:10180000C817D90710F085E006C0C017D10710F03F
:101810008E2D01C080E00E94A50AF3940A5F1F4F3D
:10182000FD1460F3DF91CF911F910F91FF90EF9026
:10183000DF900895482F592F7502902D649F812DB8
:101840007403800D911D5603800D911D1124089580
:10185000AA1BBB1B51E107C0AA1FBB1FA617B707D6
:1018600010F0A61BB70B881F991F5A95A9F78095F2
:101870009095BC01CD01089597FB092E07260AD04B
:1018800077FD04D0E5DF06D000201AF4709561954D
:101890007F4F0895F6F7909581959F4F08950F9388
:1018A0001F93DF93CF93CDB7DEB72E970FB6F89483
:1018B000DEBF0FBECDBF0D891E8986E08C831A83E3
:1018C00009838FEF9FE79E838D839E01275E3F4FA5
:1018D000CE0101966F89788DA9010E94800C2F811D
:1018E0003885020F131FF80110822E960FB6F89458
:1018F000DEBF0FBECDBFCF91DF911F910F91089535
:101900002F923F924F925F926F927F928F929F920F
:10191000AF92BF92CF92DF92EF92FF920F931F93FD
:10192000DF93CF93CDB7DEB72B970FB6F894DEBF1A
:101930000FBECDBF3C012B015A01FC01178216825C
:10194000838181FD03C06FEF7FEFC6C19AE0892ECE
:101950001E010894211C311CF3012381F20123FD97
:10196000859123FF81912F01882309F4B2C185322B
:1019700039F423FD859123FF81912F01853229F4CC
:1019800090E0B3010E949C0EE7CF982FFF24EE2435
:101990009924FFE1FF15D0F09B3269F09C3228F4C6
:1019A000903259F0933291F40EC09D3249F0903349
:1019B00069F441E024C052E0F52A84E0F82A28C006
:1019C00098E0F92A25C0E0E1FE2A22C0F7FC29C0F0
:1019D000892F80538A3070F4F6FE05C0989C902CB5
:1019E0001124980E15C0E89CE02C1124E80EF0E2BA
:1019F000FF2A0EC09E3229F4F6FC6BC140E4F42AA3
:101A000007C09C3619F450E8F52A02C0983649F40C
:101A1000F20123FD959123FF91912F01992309F064
:101A2000B8CF892F8554833018F08052833038F432
:101A300044E050E0A40EB51E5FE359830FC0933617
:101A400031F0933779F0933509F056C020C0F50195
:101A50008081898342E050E0A40EB51E610101E05F
:101A600010E012C0F501C080D180F6FC03C06FEF1A
:101A70007FEF02C0692D70E042E050E0A40EB51E79
:101A8000C6010E94910E8C015FE7F52214C0F5019A
:101A9000C080D180F6FC03C06FEF7FEF02C0692DDC
:101AA00070E042E050E0A40EB51EC6010E94860E12
:101AB0008C0150E8F52AF3FE07C01AC080E290E0DE
:101AC000B3010E949C0EEA948E2D90E0081719072E
:101AD000A8F30EC0F601F7FC8591F7FE81916F0126
:101AE00090E0B3010E949C0EE110EA940150104076
:101AF0000115110579F7EAC0943611F0993669F5A8
:101B0000F7FE08C0F501208131814281538184E0D4
:101B100090E00AC0F501808191819C01442737FD46
:101B20004095542F82E090E0A80EB91E9FE6F9225E
:101B300057FF09C050954095309521953F4F4F4F25
:101B40005F4FE0E8FE2ACA01B901A1012AE030E0B6
:101B50000E94C80ED82ED21840C0953729F41F2DE8
:101B60001F7E2AE030E01DC01F2D197F9F3661F0D7
:101B7000903720F4983509F0ACC00FC0903739F099
:101B8000983709F0A6C004C028E030E00AC0106110
:101B900014FD146020E130E004C014FD166020E163
:101BA00032E017FF08C0F501608171818281938165
:101BB00044E050E008C0F50180819181BC0180E0E3
:101BC00090E042E050E0A40EB51EA1010E94C80EB4
:101BD000D82ED2188FE7F82EF122F6FE0BC05EEF5A
:101BE000F522D91438F4F4FE07C0F2FC05C08FEEDC
:101BF000F82202C01D2D01C0192DF4FE0DC0FE01FA
:101C0000ED0DF11D8081803319F499EEF92208C0A1
:101C10001F5FF2FE05C003C08F2D867809F01F5F9D
:101C20000F2DF3FC14C0F0FE0FC01E1510F09D2CFC
:101C30000BC09D2C9E0C911A1E2D06C080E290E0D8
:101C4000B3010E949C0E1F5F1E15C0F304C01E1539
:101C500010F4E11A01C0EE2404FF0FC080E390E00D
:101C6000B3010E949C0E02FF1DC001FD03C088E766
:101C700090E00EC088E590E00BC0802F867891F050
:101C800001FF02C08BE201C080E2F7FC8DE290E030
:101C9000B3010E949C0E06C080E390E0B3010E9455
:101CA0009C0E9A94D914C0F3DA94F101ED0DF11D54
:101CB000808190E0B3010E949C0EDD20A9F706C050
:101CC00080E290E0B3010E949C0EEA94EE20C1F7FE
:101CD00043CEF30166817781CB012B960FB6F89442
:101CE000DEBF0FBECDBFCF91DF911F910F91FF904F
:101CF000EF90DF90CF90BF90AF909F908F907F90AC
:101D00006F905F904F903F902F900895FC01059049
:101D1000615070400110D8F7809590958E0F9F1FED
:101D20000895FC016150704001900110D8F7809532
:101D300090958E0F9F1F08950F931F93CF93DF935E
:101D40008C01EB018B8181FF1BC082FF0DC02E81B6
:101D50003F818C819D812817390764F4E881F981DE
:101D60000193F983E88306C0E885F985802F0995FA
:101D7000892B31F48E819F8101969F838E8302C0CF
:101D80000FEF1FEFC801DF91CF911F910F910895C1
:101D9000FA01AA27283051F1203181F1E8946F939C
:101DA0006E7F6E5F7F4F8F4F9F4FAF4FB1E03ED042
:101DB000B4E03CD0670F781F891F9A1FA11D680FE0
:101DC000791F8A1F911DA11D6A0F711D811D911D13
:101DD000A11D20D009F468943F912AE0269F112488
:101DE0003019305D3193DEF6CF010895462F4770EC
:101DF000405D4193B3E00FD0C9F7F6CF462F4F7047
:101E0000405D4A3318F0495D31FD4052419302D0A4
:101E1000A9F7EACFB4E0A69597958795779567954A
:101E2000BA95C9F700976105710508959B01AC014A
:101E30000A2E06945795479537952795BA95C9F771
:101E4000620F731F841F951FA01D0895F894FFCF84
:101E50002533640025690054696D65204973205558
:101E6000702100596F75722073636F72653A00803C
:081E70004020100804020100EB
:00000001FF
