:100000000C94B4000C94D3000C94D3000C94D30043
:100010000C94D3000C94D3000C94D3000C94D30014
:100020000C94D3000C94D3000C94D3000C94D30004
:100030000C94D3000C94D3000C94D3000C94D300F4
:100040000C94D3000C94D3000C94D3000C94D300E4
:100050000C94D3000C94D3000C94D3000C94D300D4
:100060000C94D3000C94D3000C94D3000C94D300C4
:100070000C94D3000C94D3000C94D3000C94D300B4
:100080000C94D3000C94D3000C94D3004C43442024
:10009000496E697469616C697A65202000002020CE
:1000A0002020202020202020202020202020000090
:1000B00068656C6C6F20776F726C64202020202044
:1000C000000077616974696E6720666F72207573CE
:1000D00065720000746F20707265737320627574AE
:1000E000746F6E2000007072696E74696E672020F4
:1000F0002020202020200000646F776E6C6F6164E8
:10010000696E67202020202000006672616D6520E6
:10011000202020202020202020200000001F000080
:1001200000001F00001F101010101F00001F1818E3
:1001300018181F00001F1C1C1C1C1F00001F1E1E67
:100140001E1E1F00001F1F1F1F1F1F0003070F1F62
:100150000F070300181C1E1F1E1C18006364696E25
:100160006F70737578585B0011241FBECFEFD0E419
:10017000DEBFCDBF11E0A0E0B1E0E2E6F9E200E0D1
:100180000BBF02C007900D92A23AB107D9F714E055
:10019000A2EAB1E001C01D92A937B107E1F70E94C0
:1001A000550B0C94AF140C940000ECE7F0E01082B7
:1001B000AAE7B0E01C9280E4808387E88C930895DE
:1001C00011B88FEE8AB912B880E18BB90895ECE7C7
:1001D000F0E0108280548083EAE7F0E08081806460
:1001E000808308955D9888E893E120E931E0F90182
:1001F0003197F1F70197D9F708955D9A80EA9FE06A
:1002000020E931E0F9013197F1F70197D9F7089525
:100210005B988AE18A95F1F75A9A08955A988AE18B
:100220008A95F1F75B9A08955E988AE18A95F1F7CD
:100230005F9A08955F988AE18A95F1F75E9A08952A
:100240008BB183738BB988EE93E020E931E0F9013B
:100250003197F1F70197D9F708958BB1837F8BB967
:1002600008958BB18F738BB90895FF920F931F93ED
:100270005A988AE1F82E8F2D8A95F1F75B9A00E85B
:100280001EE3C8010197F1F70E9420015E988F2DAF
:100290008A95F1F75F9AC8010197F1F75B988F2D66
:1002A0008A95F1F75A9AC8010197F1F70E94200147
:1002B0005F988F2D8A95F1F75E9A80EE9EE2019706
:1002C000F1F70E9420015A988F2D8A95F1F75B9AD9
:1002D00000E815E2C8010197F1F70E9420015E983D
:1002E0008F2D8A95F1F75F9AC8010197F1F75B9816
:1002F0008F2D8A95F1F75A9AC8010197F1F70E945C
:1003000020015F988F2D8A95F1F75E9A80E797E13B
:100310000197F1F70E9420015A988F2D8A95F1F7E5
:100320005B9A00EA1FE0C8010197F1F70E942001E3
:100330005E988F2D8A95F1F75F9AC8010197F1F7C2
:100340005B988F2D8A95F1F75A9AC8010197F1F7BA
:100350000E9420015F98FA94F1F75E9A80EF9AE08C
:100360000197F1F70E9420011F910F91FF900895CE
:100370000F931F932091CE023091CF0200D000D076
:1003800000D0EDB7FEB731960CEB12E0ADB7BEB7BB
:1003900012961C930E93119780E091E093838283D1
:1003A000358324830E94710E8DB79EB706960FB6D3
:1003B000F8949EBF0FBE8DBF80E061E00E94010CEB
:1003C000F80101900020E9F73197E01BF10BC8011B
:1003D0006E2F0E94EC0B209198033091990300D06E
:1003E00000D000D0EDB7FEB73196ADB7BEB71296CC
:1003F0001C930E93119788E091E093838283358359
:1004000024830E94710E8DB79EB706960FB6F8949E
:100410009EBF0FBE8DBF88E061E00E94010CF80115
:1004200001900020E9F73197E01BF10BC8016E2F16
:100430000E94EC0B1F910F910895FF920F931F9351
:10044000CF93DF93EC018B01F22E4230510519F46A
:100450000E94F20005C04130510511F40E94FD00D8
:100460001C161D060CF0AAC2101611060CF0A6C22E
:1004700082E0CD3BD80714F0CCEBD2E0B80182E0AB
:100480000D3B180714F06CEB72E0CF30D10514F47B
:10049000CFE0D0E06F30710514F46FE070E0FF2022
:1004A00009F042C110927C0081EC80937C00809125
:1004B0007A00806480937A0080917A0086FDFCCF78
:1004C0008091780090E090939903809398034091F5
:1004D00098035091990320917900922F80E0840F26
:1004E000951F90939903809398038091980390911E
:1004F00099036817790780F169C010927C00F09326
:100500007C0080917A00806480937A0003C08BB174
:100510008F738BB980917A0086FDF9CF5F988E2F0B
:100520008A95F1F75E9A8091780090E09093990314
:10053000809398038091980390919903209179007A
:10054000322F20E0820F931F90939903809398039A
:10055000CA010197F1F704C0F1ECEAE140ED57E080
:1005600080919803909199036817790730F239C008
:1005700010927C00F0937C0080917A0080648093DC
:100580007A0080917A0086FDFCCF8BB18F738BB996
:100590005E988E2F8A95F1F75F9A8091780090E0AF
:1005A0009093990380939803809198039091990375
:1005B00020917900322F20E0820F931F90939903AE
:1005C00080939803CA010197F1F704C0F1ECEAE1C6
:1005D00040ED57E080919803909199038617970713
:1005E00038F20E94200110927C0080EC80937C0005
:1005F00080917A00806480937A0080917A0086FDF1
:10060000FCCF8091780090E09093CF028093CE024F
:100610004091CE025091CF0220917900922F80E03C
:10062000840F951F9093CF028093CE028091CE02CB
:100630009091CF02C817D90780F16AC010927C0050
:1006400070937C0080917A00806480937A0003C06C
:100650008BB1837F8BB980917A0086FDF9CF5B984F
:10066000862F8A95F1F75A9A8091780090E09093BE
:10067000CF028093CE028091CE029091CF02209142
:100680007900322F20E0820F931F9093CF02809346
:10069000CE02CA010197F1F704C070EC6AE140EDA7
:1006A00057E08091CE029091CF02C817D90730F25F
:1006B00083C110927C0070937C0080917A008064EA
:1006C00080937A0003C08BB1837F8BB980917A00CD
:1006D00086FDF9CF5A98862F8A95F1F75B9A80911B
:1006E000780090E09093CF028093CE028091CE026A
:1006F0009091CF0220917900322F20E0820F931F3A
:100700009093CF028093CE02CA010197F1F704C003
:1007100070EC6AE140ED57E08091CE029091CF02FB
:100720008C179D0730F248C181E0F81609F0A1C08E
:1007300010927C0080EC80937C0080917A00806431
:1007400080937A0080917A0086FDFCCF80917800BA
:1007500090E09093CF028093CE024091CE025091D0
:10076000CF0220917900922F80E0840F951F909303
:10077000CF028093CE028091CE029091CF02C81713
:10078000D90780F16AC010927C0070937C00809140
:100790007A00806480937A0003C08BB1837F8BB929
:1007A00080917A0086FDF9CF5B98862F8A95F1F7C4
:1007B0005A9A8091780090E09093CF028093CE0275
:1007C0008091CE029091CF0220917900322F20E0CB
:1007D000820F931F9093CF028093CE02CA0101979C
:1007E000F1F704C070EC6AE140ED57E08091CE0271
:1007F0009091CF02C817D90730F2DEC010927C006A
:1008000070937C0080917A00806480937A0003C0AA
:100810008BB1837F8BB980917A0086FDF9CF5A988E
:10082000862F8A95F1F75B9A8091780090E09093FB
:10083000CF028093CE028091CE029091CF02209180
:100840007900322F20E0820F931F9093CF02809384
:10085000CE02CA010197F1F704C070EC6AE140EDE5
:1008600057E08091CE029091CF028C179D0730F215
:10087000A3C082E0F81609F0A1C010927C0081ECC0
:1008800080937C0080917A00806480937A008091CC
:100890007A0086FDFCCF8091780090E090939903D8
:1008A0008093980340919803509199032091790087
:1008B000922F80E0840F951F909399038093980363
:1008C00080919803909199036817790780F169C026
:1008D00010927C00F0937C0080917A008064809379
:1008E0007A0003C08BB18F738BB980917A0086FD3B
:1008F000F9CF5F988E2F8A95F1F75E9A80917800F4
:1009000090E090939903809398038091980390913D
:10091000990320917900322F20E0820F931F90934A
:10092000990380939803CA010197F1F704C0F1EC91
:10093000EAE140ED57E080919803909199036817A0
:10094000790730F239C010927C00F0937C008091DE
:100950007A00806480937A0080917A0086FDFCCFD3
:100960008BB18F738BB95E988E2F8A95F1F75F9A52
:100970008091780090E09093990380939803809100
:1009800098039091990320917900322F20E0820FF3
:10099000931F9093990380939803CA010197F1F7ED
:1009A00004C0F1ECEAE140ED57E0809198039091AA
:1009B00099038617970738F20E9420010E94B80118
:1009C000DF91CF911F910F91FF900895FF920F93A8
:1009D0001F93CF93DF93EC018B01F22E4230510530
:1009E00019F40E94F20005C04130510511F40E9433
:1009F000FD001C161D060CF0ADC2101611060CF001
:100A0000A9C2BE0182E0CD3BD80714F06CEB72E0C6
:100A1000E80182E00D3B180714F0CCEBD2E06F3018
:100A2000710514F46FE070E0CF30D10514F4CFE01D
:100A3000D0E0FF2009F043C110927C0080EC80934D
:100A40007C0080917A00806480937A0080917A00A3
:100A500086FDFCCF8091780090E09093CF02809348
:100A6000CE024091CE025091CF0220917900922F78
:100A700080E0840F951F9093CF028093CE028091E7
:100A8000CE029091CF026817790780F16AC0109268
:100A90007C00F0937C0080917A00806480937A00DF
:100AA00003C08BB1837F8BB980917A0086FDF9CF2B
:100AB0005B988E2F8A95F1F75A9A8091780090E092
:100AC0009093CF028093CE028091CE029091CF027C
:100AD00020917900322F20E0820F931F9093CF0254
:100AE0008093CE02CA010197F1F704C0F0ECEAE16D
:100AF00040ED57E08091CE029091CF0268177907C0
:100B000030F23AC010927C00F0937C0080917A0021
:100B1000806480937A0003C08BB1837F8BB980910E
:100B20007A0086FDF9CF5A988E2F8A95F1F75B9A55
:100B30008091780090E09093CF028093CE028091D4
:100B4000CE029091CF0220917900322F20E0820FC7
:100B5000931F9093CF028093CE02CA010197F1F7C1
:100B600004C0F0ECEAE140ED57E08091CE029091B4
:100B7000CF028617970730F20E94200110927C0066
:100B800081EC80937C0080917A00806480937A006D
:100B900080917A0086FDFCCF8091780090E0909360
:100BA0009903809398034091980350919903209161
:100BB0007900922F80E0840F951F90939903809382
:100BC00098038091980390919903C817D90780F1F1
:100BD0006AC010927C0070937C0080917A008064DF
:100BE00080937A0003C08BB18F738BB980917A00A8
:100BF00086FDF9CF5F98862F8A95F1F75E9A8091EE
:100C0000780090E0909399038093980380919803E3
:100C10009091990320917900322F20E0820F931F49
:100C20009093990380939803CA010197F1F704C048
:100C300071EC6AE140ED57E080919803909199033F
:100C4000C817D90730F284C110927C0070937C00E1
:100C500080917A00806480937A0003C08BB18F7397
:100C60008BB980917A0086FDF9CF5E98862F8A95A0
:100C7000F1F75F9A8091780090E0909399038093C8
:100C80009803809198039091990320917900322FD5
:100C900020E0820F931F9093990380939803CA01D9
:100CA0000197F1F704C071EC6AE140ED57E08091E3
:100CB0009803909199038C179D0730F249C181E008
:100CC000F81609F0A1C010927C0080EC80937C00A3
:100CD00080917A00806480937A0080917A0086FD0A
:100CE000FCCF8091780090E09093CF028093CE0269
:100CF0004091CE025091CF0220917900922F80E056
:100D0000840F951F9093CF028093CE028091CE02E4
:100D10009091CF026817790780F16AC010927C0029
:100D2000F0937C0080917A00806480937A0003C005
:100D30008BB1837F8BB980917A0086FDF9CF5B9868
:100D40008E2F8A95F1F75A9A8091780090E09093CF
:100D5000CF028093CE028091CE029091CF0220915B
:100D60007900322F20E0820F931F9093CF0280935F
:100D7000CE02CA010197F1F704C0F0ECEAE140EDC0
:100D800057E08091CE029091CF026817790730F238
:100D9000DFC010927C00F0937C0080917A00806428
:100DA00080937A0003C08BB1837F8BB980917A00E6
:100DB00086FDF9CF5A988E2F8A95F1F75B9A80912C
:100DC000780090E09093CF028093CE028091CE0283
:100DD0009091CF0220917900322F20E0820F931F53
:100DE0009093CF028093CE02CA010197F1F704C01D
:100DF000F0ECEAE140ED57E08091CE029091CF0215
:100E00008617970730F2A4C082E0F81609F0A2C056
:100E100010927C0081EC80937C0080917A00806449
:100E200080937A0080917A0086FDFCCF80917800D3
:100E300090E0909399038093980340919803509188
:100E4000990320917900922F80E0840F951F909351
:100E50009903809398038091980390919903C81700
:100E6000D90780F16AC010927C0070937C00809159
:100E70007A00806480937A0003C08BB18F738BB942
:100E800080917A0086FDF9CF5F98862F8A95F1F7D9
:100E90005E9A8091780090E09093990380939803F4
:100EA000809198039091990320917900322F20E04E
:100EB000820F931F9093990380939803CA0101971F
:100EC000F1F704C071EC6AE140ED57E080919803BE
:100ED00090919903C817D90730F23AC010927C005C
:100EE00070937C0080917A00806480937A0003C0C4
:100EF0008BB18F738BB980917A0086FDF9CF5E98A4
:100F0000862F8A95F1F75F9A8091780090E0909310
:100F1000990380939803809198039091990320916D
:100F20007900322F20E0820F931F909399038093D2
:100F30009803CA010197F1F704C071EC6AE140ED32
:100F400057E080919803909199038C179D0730F298
:100F50000E9420010E94B801DF91CF911F910F9153
:100F6000FF9008958F929F92AF92BF92CF92DF929F
:100F7000EF92FF920F931F93CF93DF938091AB0378
:100F80009091AC036091F4017091F50142E050E062
:100F900020E00E94E604A1E0AA2EB12CA501440F96
:100FA000551FEBEACE2EE3E0DE2EC40ED51EF60171
:100FB0008081918197FDAEC074EFE72E71E0F72E2E
:100FC000E40EF51EF7018081918197FDA3C0F60123
:100FD000208131810894A108B108E501CC0FDD1F03
:100FE0000894A11CB11C9BEA892E93E0992E8C0ECB
:100FF0009D1EF401808191812817390759F5F6016A
:1010000080819181F701608171818A0100531D4FB8
:10101000F8014081518122E00E94E604F8018081BC
:101020009181019709F06EC0F40180819181CC50CB
:10103000DE4F6881798141E050E022E00E941D028C
:10104000F60180819181F7016081718141E050E07A
:1010500022E056C0F701208131818E010C501E4FD5
:10106000F80180819181EA01C053DD4F28173907CB
:1010700021F5F60180819181F701608171814881BC
:10108000598121E00E94E604888199810197D1F578
:10109000F40180819181F8016081718141E050E02B
:1010A00021E00E941D02F60180819181F70160819B
:1010B000718141E050E021E023C0F60180819181FF
:1010C000F701608171814881598120E00E94E60426
:1010D000888199810197B1F4F40180819181F801AF
:1010E0006081718141E050E020E00E941D02F60124
:1010F00080819181F7016081718141E050E020E0C1
:101100000E94E6040894A11CB11CF4E6AF16B104D9
:1011100009F044CF8CEB92E06CEB72E042E050E0DF
:1011200020E00E94E604DF91CF911F910F91FF9084
:10113000EF90DF90CF90BF90AF909F908F900895E9
:101140002F923F924F925F926F927F928F929F92D7
:10115000AF92BF92CF92DF92EF92FF920F931F93C5
:10116000DF93CF93CDB7DEB769970FB6F894DEBFA4
:101170000FBECDBF8EEF9FEF9A8389839C838B83B5
:101180009E838D8318861F820AE913E0C80160E1FF
:1011900071E00E942E0E6091750470917604C80172
:1011A0000E94350E00D000D000D0EDB7FEB73196CA
:1011B0008091730490917404ADB7BEB712969C935E
:1011C0008E9311978EE191E093838283CE010796EF
:1011D000958384830E94600EEDB7FEB73196ADB75C
:1011E000BEB712961C930E93119782E291E09383FF
:1011F00082838F819885958384830E94710E6DB759
:101200007EB76A5F7F4F0FB6F8947EBF0FBE6DBF8B
:1012100080E060E00E94010CF80101900020E9F7F5
:101220003197E01BF10BC8016E2F0E94EC0BEE24EE
:10123000FF2479E0A72EB12CAC0EBD1E480166E458
:10124000262E61E0362E0CEB12E055E5452E51E0DE
:10125000552E4BE4642E41E0742E3EEFC32E3FEF3B
:10126000D32EF7C0609175047091760484E391E009
:101270000E94350E00D000D000D0EDB7FEB73196F9
:101280008091730490917404ADB7BEB712969C938D
:101290008E93119769E371E073836283B582A482B0
:1012A0000E94600E00D000D0EDB7FEB73196ADB70A
:1012B000BEB71296BC92AE9211976CE371E0738345
:1012C000628381E090E08C0F9D1F95838483A3E06F
:1012D000B0E0AC0FBD1FB783A68365E070E06C0F74
:1012E0007D1F718760870E94A20E0F900F900F9054
:1012F0000F90EDB7FEB73196ADB7BEB711968C9291
:10130000119712969C9233822282F582E4820E9487
:10131000710E6DB77EB76A5F7F4F0FB6F8947EBFD0
:101320000FBE6DBF8BE060E00E94010CC40162E063
:101330000E94EC0B80E061E00E94010CC5016FE0AF
:101340000E94EC0B49815A817FEF4F3F57070CF405
:101350005AC02B813C818FEF2F3F38070CF453C0CC
:101360008D819E81AFEF8F3F9A070CF44CC06DB713
:101370007EB76A5070400FB6F8947EBF0FBE6DBF47
:10138000EDB7FEB73196ADB7BEB712961C930E936C
:1013900011977382628255834483378326839187B2
:1013A00080870E94710E6DB77EB7665F7F4F0FB664
:1013B000F8947EBF0FBE6DBF80E060E00E94010C1C
:1013C000C8016AE00E94EC0B89819A81D701AA0FBB
:1013D000BB1FFD01E555FC4F918380838B819C8170
:1013E000FD01EC50FE4F918380838D819E81A0533F
:1013F000BD4F11969C938E93DA82C982DC82CB8298
:10140000DE82CD8223C000D000D000D0EDB7FEB781
:101410003196ADB7BEB712961C930E9311975382B7
:101420004282F582E4820E94710E6DB77EB76A5FD8
:101430007F4F0FB6F8947EBF0FBE6DBF80E060E0B7
:101440000E94010CC8016AE00E94EC0B0894E11CA8
:10145000F11C8F819885E816F90608F403CF00D0B7
:1014600000D000D0EDB7FEB731960CEB12E0ADB76F
:10147000BEB712961C930E93119781E691E0938369
:101480008283F582E4820E94710E6DB77EB76A5F37
:101490007F4F0FB6F8947EBF0FBE6DBF80E060E057
:1014A0000E94010CC8016AE00E94EC0B2091AB0382
:1014B0003091AC034091AD035091AE036091AF0306
:1014C0007091B003E090B103F090B2038DB79EB776
:1014D0000C970FB6F8949EBF0FBE8DBFEDB7FEB749
:1014E0003196ADB7BEB712961C930E9311978DE649
:1014F00091E0938382833583248357834683718766
:101500006087F386E2860E94710E6DB77EB7645FD6
:101510007F4F0FB6F8947EBF0FBE6DBF80E060E0D6
:101520000E94010CC8016AE00E94EC0B2091F401BA
:101530003091F5014091F6015091F7016091F80169
:101540007091F901E090FA01F090FB018DB79EB720
:101550000C970FB6F8949EBF0FBE8DBFEDB7FEB7C8
:101560003196ADB7BEB712961C930E93119787E7CD
:1015700091E09383828335832483578346837187E5
:101580006087F386E2860E94710E6DB77EB7645F56
:101590007F4F0FB6F8947EBF0FBE6DBF80E061E055
:1015A0000E94010CC8016AE00E94EC0B2091D0025D
:1015B0003091D1024091D2025091D3026091D40275
:1015C0007091D502E090D602F090D7028DB79EB709
:1015D0000C970FB6F8949EBF0FBE8DBFEDB7FEB748
:1015E0003196ADB7BEB712961C930E93119781E852
:1015F00091E0938382833583248357834683718765
:101600006087F386E2860E94710E6DB77EB7645FD5
:101610007F4F0FB6F8947EBF0FBE6DBF8AE060E0CB
:101620000E94010CC8016AE00E94EC0B69960FB69B
:10163000F894DEBF0FBECDBFCF91DF911F910F9108
:10164000FF90EF90DF90CF90BF90AF909F908F90E2
:101650007F906F905F904F903F902F9008950E94E1
:101660004B0C0E94B30C0E94E40B80E060E00E94EF
:10167000010C8CE890E060E040E00E94100C1092B9
:10168000CD02089511B88FEE8AB912B880E18BB9F6
:101690000E942F0BECE7F0E01082AAE7B0E01C926A
:1016A00080E4808387E88C930895CF93DF930E9432
:1016B000420B0E9420010E942F0B0E941B0D8BE801
:1016C00091E09093780480937704909374048093CE
:1016D00073049093760480937504C0E9D1E08CEB99
:1016E00092E06CEB72E042E050E020E00E94E60401
:1016F00082EC90E060E040E00E94100C84ED90E00D
:1017000060E041E00E94100C4C99FECF8CE291E029
:10171000FE013197F1F70197D9F74C99E0CF88EFA7
:1017200090E060E040E00E94100C8AE091E060E010
:1017300041E00E94100C0E94A00886EE90E060E05C
:1017400040E00E94100C0E94B207C9CF282F207FD2
:1017500028B9409A429A20E43FE1F9013197F1F724
:1017600042984098F9013197F1F790E044E0880FF2
:10177000991F4A95E1F788B9409A429AC9010197A1
:10178000F1F742984098C9010197F1F70895282F81
:10179000207F28B9429A20E43FE1F9013197F1F71F
:1017A0004298F9013197F1F790E054E0880F991FC2
:1017B0005A95E1F788B9429AC9010197F1F7429821
:1017C000C9010197F1F7089581E00E94C70B0895C0
:1017D00082E00E94C70B08950F931F93CF93DF936E
:1017E000062F009749F0EC0110E004C089910E9497
:1017F000A60B1F5F1017D0F3DF91CF911F910F91B0
:101800000895623031F0633031F0613029F4805C4A
:1018100003C08C5E01C08C5A80680E94C70B08957B
:101820001F93CF93DF93EC01862F642F0E94010C4E
:1018300010E003C00E94A60B1F5FFE01E10FF11D27
:1018400084918823B9F7DF91CF911F910895EF928A
:10185000FF920F931F93CF93DF937C01162F110FED
:10186000110F110F1064C0E0D0E0F701EC0FFD1F65
:101870000491812F8C0F0E94C70B802F0E94A60B12
:101880002196C830D10589F7DF91CF911F910F9133
:10189000FF90EF9008951F93CF93DF9380E69AEE29
:1018A0000197F1F718B818B887B1806F87B987B179
:1018B000876087B980E388B9429A20E43FE1F90163
:1018C0003197F1F74298F9013197F1F788B9429AC7
:1018D000C9010197F1F74298C9010197F1F780E238
:1018E00088B9429AC9010197F1F74298C901019755
:1018F000F1F788E20E94C70B8CE00E94C70BCCE195
:10190000D1E060E0162F1F5FCE010E94270C2896C1
:10191000612F1830B9F7DF91CF911F9108950F9380
:101920001F93082F10E004C08EE10E94C70B1F5FB9
:101930001017D0F31F910F9108950F931F93082F45
:1019400010E004C088E10E94C70B1F5F1017D0F39E
:101950001F910F9108958EE00E94C70B08958FE0AC
:101960000E94C70B08958CE00E94C70B089588E081
:101970000E94C70B08958CE00E94C70B08950F9337
:101980001F93082F10E004C080E10E94C70B1F5F67
:101990001017D0F31F910F9108950F931F93082FE5
:1019A00010E004C084E10E94C70B1F5F1017D0F342
:1019B0001F910F910895DF92EF92FF920F931F9363
:1019C000CF93DF93D42E96E0899FC0011124242F5A
:1019D00030E0AC01429FC001439F900D529F900D9B
:1019E000112470E00E941B0EEB01CB0166E070E059
:1019F0000E94070EE82EFF2400E010E012C0C8018C
:101A00000596C817D90710F085E006C0C017D107A2
:101A100010F08E2D01C080E00E94A60BF3940A5FA7
:101A20001F4FFD1460F3DF91CF911F910F91FF9035
:101A3000EF90DF90089587E68093C40088E180935B
:101A4000C10008951F93182F873049F460917704DF
:101A50007091780489E991E00E94350E0BC08A30BC
:101A600019F48DE00E94220D8091C00085FFFCCF0B
:101A70001093C60080E090E01F910895EF92FF92CE
:101A80000F931F93CF93DF937C018091A2019091DC
:101A9000A301892B09F09FC004EA11E08091C000E6
:101AA00087FFFCCF8091C00084FF03C02EEF3FEF83
:101AB000A6C08091C00083FDA0C09091C6009D305B
:101AC00011F09A3069F48AE0F8018083B7010E942E
:101AD000220D84EA91E09093A3018093A2017BC040
:101AE000993009F490E2892F80528F3510F0903AA6
:101AF00070F0F1E0033F1F0711F487E004C0F80124
:101B000091938F01892FB7010E94220DC7CF923187
:101B100039F1933138F4933009F46FC0983009F0FB
:101B2000BDCF09C0973109F44BC09F3721F09531E3
:101B300009F0B4CF32C0F1E0043A1F0709F008F40D
:101B4000ADCF88E0B7010E94220D80E2B7010E946C
:101B5000220D88E0B7010E94220D015010409ECF57
:101B60008DE0B7010E94220DC4EAD1E004C0899142
:101B7000B7010E94220DC017D107C8F38FCF88E0AC
:101B8000B7010E94220D80E2B7010E94220D88E079
:101B9000B7010E94220D0150104081E0043A18075D
:101BA00009F068F77BCF88E0B7010E94220D80E240
:101BB000B7010E94220D88E0B7010E94220D8E011C
:101BC000E1E0043A1E0709F008F468CFE8018A91C1
:101BD000803249F763CFE091A201F091A301819196
:101BE000F093A301E093A2018A3021F41092A301A3
:101BF0001092A201282F30E002C02FEF3FEFC90161
:101C0000DF91CF911F910F91FF90EF900895AA1B44
:101C1000BB1B51E107C0AA1FBB1FA617B70710F0D7
:101C2000A61BB70B881F991F5A95A9F78095909509
:101C3000BC01CD01089597FB092E07260AD077FD38
:101C400004D0E5DF06D000201AF4709561957F4F2F
:101C50000895F6F7909581959F4F0895FB01DC015B
:101C600001900D920020E1F70895EF92FF920F93FB
:101C70001F93CF93DF937C018B01DB0113968C9133
:101C800081FD03C0CFEFDFEF13C0C0E0D0E00BC099
:101C9000D8011896ED91FC911997B8010995892BF7
:101CA00011F0CFEFDFEFF70181917F01882381F7FA
:101CB000CE01DF91CF911F910F91FF90EF9008958A
:101CC000DF93CF93CDB7DEB79E01275F3F4F8D8166
:101CD0009E816F817885A9010E947A12CF91DF9150
:101CE00008950F931F93DF93CF93CDB7DEB72E9751
:101CF0000FB6F894DEBF0FBECDBF0D891E8986E0FA
:101D00008C831A8309838FEF9FE79E838D839E01C7
:101D1000275E3F4FCE0101966F89788DA9010E9401
:101D2000C50E2F813885020F131FF80110822E96E1
:101D30000FB6F894DEBF0FBECDBFCF91DF911F91DC
:101D40000F910895DF93CF93CDB7DEB72E970FB6DF
:101D5000F894DEBF0FBECDBF85E08C838B899C8954
:101D60009A8389839E01295E3F4FCE0101966D893A
:101D70007E89A9010E947A122E960FB6F894DEBFD2
:101D80000FBECDBFCF91DF9108952F923F924F921A
:101D90005F926F927F928F929F92AF92BF92CF92FB
:101DA000DF92EF92FF920F931F93DF93CF93CDB704
:101DB000DEB72B970FB6F894DEBF0FBECDBF3C0148
:101DC0002B015A01FC0117821682838181FD03C019
:101DD0006FEF7FEFC6C19AE0892E1E010894211C87
:101DE000311CF3012381F20123FD859123FF8191B1
:101DF0002F01882309F4B2C1853239F423FD85917E
:101E000023FF81912F01853229F490E0B3010E94D4
:101E10000814E7CF982FFF24EE249924FFE1FF1543
:101E2000D0F09B3269F09C3228F4903259F0933212
:101E300091F40EC09D3249F0903369F441E024C022
:101E400052E0F52A84E0F82A28C098E0F92A25C053
:101E5000E0E1FE2A22C0F7FC29C0892F80538A3096
:101E600070F4F6FE05C0989C902C1124980E15C0B5
:101E7000E89CE02C1124E80EF0E2FF2A0EC09E320E
:101E800029F4F6FC6BC140E4F42A07C09C3619F42F
:101E900050E8F52A02C0983649F4F20123FD9591E5
:101EA00023FF91912F01992309F0B8CF892F8554F1
:101EB000833018F08052833038F444E050E0A40EB0
:101EC000B51E5FE359830FC0933631F0933779F035
:101ED000933509F056C020C0F5018081898342E026
:101EE00050E0A40EB51E610101E010E012C0F50142
:101EF000C080D180F6FC03C06FEF7FEF02C0692D78
:101F000070E042E050E0A40EB51EC6010E94BB1373
:101F10008C015FE7F52214C0F501C080D180F6FC8A
:101F200003C06FEF7FEF02C0692D70E042E050E028
:101F3000A40EB51EC6010E94B0138C0150E8F52A0C
:101F4000F3FE07C01AC080E290E0B3010E940814BB
:101F5000EA948E2D90E008171907A8F30EC0F60139
:101F6000F7FC8591F7FE81916F0190E0B3010E942B
:101F70000814E110EA94015010400115110579F799
:101F8000EAC0943611F0993669F5F7FE08C0F501FC
:101F9000208131814281538184E090E00AC0F501C3
:101FA000808191819C01442737FD4095542F82E028
:101FB00090E0A80EB91E9FE6F92257FF09C0509580
:101FC0004095309521953F4F4F4F5F4FE0E8FE2AF7
:101FD000CA01B901A1012AE030E00E944E14D82EB6
:101FE000D21840C0953729F41F2D1F7E2AE030E01B
:101FF0001DC01F2D197F9F3661F0903720F4983552
:1020000009F0ACC00FC0903739F0983709F0A6C07E
:1020100004C028E030E00AC0106114FD146020E123
:1020200030E004C014FD166020E132E017FF08C064
:10203000F501608171818281938144E050E008C0A4
:10204000F50180819181BC0180E090E042E050E0A8
:10205000A40EB51EA1010E944E14D82ED2188FE7EF
:10206000F82EF122F6FE0BC05EEFF522D91438F4FB
:10207000F4FE07C0F2FC05C08FEEF82202C01D2D51
:1020800001C0192DF4FE0DC0FE01ED0DF11D808182
:10209000803319F499EEF92208C01F5FF2FE05C0E3
:1020A00003C08F2D867809F01F5F0F2DF3FC14C03D
:1020B000F0FE0FC01E1510F09D2C0BC09D2C9E0C29
:1020C000911A1E2D06C080E290E0B3010E94081410
:1020D0001F5F1E15C0F304C01E1510F4E11A01C0E5
:1020E000EE2404FF0FC080E390E0B3010E940814C7
:1020F00002FF1DC001FD03C088E790E00EC088E527
:1021000090E00BC0802F867891F001FF02C08BE237
:1021100001C080E2F7FC8DE290E0B3010E94081458
:1021200006C080E390E0B3010E9408149A94D91489
:10213000C0F3DA94F101ED0DF11D808190E0B3015F
:102140000E940814DD20A9F706C080E290E0B301E8
:102150000E940814EA94EE20C1F743CEF301668191
:102160007781CB012B960FB6F894DEBF0FBECDBFA3
:10217000CF91DF911F910F91FF90EF90DF90CF9063
:10218000BF90AF909F908F907F906F905F904F9097
:102190003F902F900895FC0120FD08C023FD05C04D
:1021A00022FF02C073836283518340830895EF92BC
:1021B000FF920F931F9344FF02C033E011C046FF0C
:1021C00002C034E00DC0DB01FC01AA0FBB1FEE1FF3
:1021D000FF1F1094D1F76A0F7B1F8E1F9F1F31E0E6
:1021E000660F771F881F991F3150D1F77B018C0133
:1021F000E20EF11C011D111DA8019701B701CA01D2
:102200001F910F91FF90EF9008950F931F93CF931D
:10221000DF938C01C8010E94C613EC0197FD08C032
:102220000E949D13892BB1F7CE01B8010E9434148E
:10223000CE01DF91CF911F910F910895AF92BF9280
:10224000CF92DF92EF92FF920F931F93CF93DF9382
:10225000EC01C62E5A01122F0E94C613AC018B321C
:1022600019F08D3251F41068CA9409F46DC0CE0192
:102270000E94C613AC0197FD67C06DEFD62ED12228
:102280008D2D807301F54033F1F4CA9409F447C0F1
:10229000CE010E94C613AC0197FD41C082E0D82A4E
:1022A000483711F0483559F480E4D82ACA94B9F176
:1022B000CE010E94C613AC0199232CF430C0D6FC89
:1022C00002C080E1D82AEE24FF248701242F205366
:1022D000283088F0D4FC09C02A3068F0D6FE05C04A
:1022E0002F7D822F8151863028F0CA01BE010E94C5
:1022F000341412C02750C801B7014D2D0E94D710C9
:102300007B018C0182E0D82ACA9461F0CE010E9440
:10231000C613AC0197FFDACFD1FC04C015C0EE2480
:10232000FF248701D7FE08C010950095F094E09433
:10233000E11CF11C011D111DC501B801A7012D2DC6
:102340000E94CB1081E001C080E0DF91CF911F910E
:102350000F91FF90EF90DF90CF90BF90AF900895D6
:102360006F927F928F929F92AF92BF92CF92DF92A5
:10237000EF92FF920F931F93DF93CF93CDB7DEB70A
:10238000A0970FB6F894DEBF0FBECDBF6C01A62E8E
:102390008A017901FE01319680E2DF011D928A9562
:1023A000E9F770E030E060E040E050E04F01A1E08C
:1023B000B0E0F6018381F70183FD259183FF219130
:1023C0007F01222309F47EC02E3519F441155105F1
:1023D00069F1872F90E08417950744F42D3551F16A
:1023E0002D3221F4332329F431E021C0332309F4C1
:1023F000622F322F832F869586958695F401E80FFC
:10240000F11D832F87703D0102C0660C771C8A95F1
:10241000E2F7208126292083361711F430E007C027
:10242000361710F43F5FE6CF3150E4CF71E04F5FD5
:102430005F4FBFCF332319F08E8180628E83772365
:1024400059F0FE0131969E012F5D3F4F80818095AE
:102450008193E217F307D1F7BB24B3944E0108949C
:10246000811C911CC6010E94C613AC0197FD22C0BD
:10247000869586958695F401E80FF11D808190E0A0
:102480009A012770307002C0959587952A95E2F7DA
:1024900080FD05C0CA01B6010E9434140BC00115AD
:1024A000110519F0D8014D938D01AA94BB24AA20DF
:1024B000C9F602C0BB2031F40115110529F0F8015D
:1024C000108202C0EE24FF24C701A0960FB6F89434
:1024D000DEBF0FBECDBFCF91DF911F910F91FF9057
:1024E000EF90DF90CF90BF90AF909F908F907F90B4
:1024F0006F9008956F927F928F929F92AF92BF924A
:10250000CF92DF92EF92FF920F931F93CF93DF93BF
:102510005C016B013A01FC01178216828824EAC033
:10252000812F90E00E949D13892B21F0C5010E940C
:102530000511E0C0153249F4F601F3FC6591F3FE94
:1025400061916F01653269F415E2C5010E94C613FD
:1025500097FDDCC0181709F4CDC0B5010E943414F2
:10256000DAC06A3219F0162F00E006C0F3FC1591AC
:10257000F3FE11916F0101E099240FC00260692DF3
:1025800070E080E090E040E20E94D710962EF601C5
:10259000F3FC1591F3FE11916F01212F20532A3086
:1025A00068F301FD03C099249A9403C0992009F4AB
:1025B000B2C0183621F01C3699F4F6010BC0F601B2
:1025C000F3FC6591F3FE6191683619F06F01162FE7
:1025D00007C008600460F3FC1591F3FE11916F01D0
:1025E000112309F498C08CE591E0612F70E00E94FE
:1025F000A513892B09F48FC0802F00FF03C0EE24A0
:10260000FF2407C0F301E080F18022E030E0620E99
:10261000731E1E3651F4F5014681578160E070E06B
:10262000C701202F0E94CB1065C0133691F481FDA5
:1026300002C099249394C5010E94C61397FD66C0F9
:10264000E114F10419F0F70181937F019A9499F74D
:102650004FC01B3559F4C501692DA70196010E9491
:10266000B0116C01009709F043C03DC0C5010E9444
:10267000051197FD4BC01F3659F1103728F4143659
:1026800029F1193639F527C0133719F0153711F527
:102690001DC0C5010E94C613EC0197FD11C00E9428
:1026A0009D13892B29F0CE01B5010E94341408C076
:1026B000E114F10419F0F701C1937F019A9449F7ED
:1026C000E114F104A9F0F701108212C0006203C006
:1026D000006101C00064C501692DA701202F0E947F
:1026E0001E11882329F4F5018381807379F413C0C6
:1026F00000FF8394F501F380F601F3FC1591F3FEDE
:1027000011916F01112309F00BCF05C0882019F436
:102710002FEF3FEF02C0282D30E0C901DF91CF91AC
:102720001F910F91FF90EF90DF90CF90BF90AF90EF
:102730009F908F907F906F90089591110DC180327E
:1027400019F089508550D0F70895FC0105900616C0
:1027500021F00020D9F7C00108953197CF010895E5
:10276000FC010590615070400110D8F7809590955C
:102770008E0F9F1F0895FC01615070400190011061
:10278000D8F7809590958E0F9F1F0895CF93DF9374
:10279000EC014B8140FF1AC046FF0AC04F7B4B83C0
:1027A0008E819F8101969F838E838A81282F2BC0E3
:1027B00042FF13C0E881F9818081282F332727FD4C
:1027C00030952115310529F440624B832FEF3FEFFF
:1027D0001BC03196F983E88311C0EA85FB85CE01E1
:1027E00009959C0197FF0AC09B812F5F3F4F11F015
:1027F00080E201C080E1892B8B83E8CF8E819F81AD
:1028000001969F838E8330E0C901DF91CF910895B7
:102810000F931F93CF93DF938C01EB018B8181FF8B
:102820001BC082FF0DC02E813F818C819D812817A6
:10283000390764F4E881F9810193F983E88306C0DC
:10284000E885F985802F0995892B31F48E819F8148
:1028500001969F838E8302C00FEF1FEFC801DF91A7
:10286000CF911F910F9108959C01FB01838180FFFF
:1028700011C086FD0FC09FEF2F3F390759F022830B
:1028800080648F7D83838681978101979783868378
:1028900030E002C02FEF3FEFC9010895FA01AA27E7
:1028A000283051F1203181F1E8946F936E7F6E5F93
:1028B0007F4F8F4F9F4FAF4FB1E03ED0B4E03CD041
:1028C000670F781F891F9A1FA11D680F791F8A1F24
:1028D000911DA11D6A0F711D811D911DA11D20D08B
:1028E00009F468943F912AE0269F11243019305D45
:1028F0003193DEF6CF010895462F4770405D419336
:10290000B3E00FD0C9F7F6CF462F4F70405D4A3382
:1029100018F0495D31FD4052419302D0A9F7EACF4A
:10292000B4E0A6959795879577956795BA95C9F779
:1029300000976105710508959B01AC010A2E06946C
:102940005795479537952795BA95C9F7620F731F25
:10295000841F951FA01D0895992788270895F8942E
:02296000FFCFA7
:10296200583A20252D692000593A20252D6920004A
:1029720046696C65204C656E6774680A0D002564B3
:102982002A00202020202020202020202020202556
:102992002D692E0048690A0D0025730058256459D7
:1029A200256444256400252D692000782564792555
:1029B2006464256400496E76616C696440252D6902
:1029C2000066696E6973686564252D6900782564FF
:1029D20025642564256400792564256425642564BD
:1029E200006425642564256425640000000003005A
:1029F200000000220D3E0D00002A72696E672A0A4D
:022A02000000D2
:00000001FF
