:100000000C94B1000C94D0000C94D0000C94D0004F
:100010000C94D0000C94D0000C94D0000C94D00020
:100020000C94D0000C94D0000C94D0000C94D00010
:100030000C94D0000C94D0000C94D0000C94D00000
:100040000C94D0000C94D0000C94D0000C94D000F0
:100050000C94D0000C94D0000C94D0000C94D000E0
:100060000C94D0000C94D0000C94D0000C94D000D0
:100070000C94D0000C94D0000C94D0000C94D000C0
:100080000C94D0000C94D0000C94D0004C4344202D
:10009000496E697469616C697A6520200000427557
:1000A000727374204672657175656E63793A0000EB
:1000B000436869727020496E74657276616C3A208B
:1000C00000004E756D2053796C6C61626C65733AFB
:1000D0002000004475722053796C6C61626C65730A
:1000E0003A20000052707420696E74657276616CFB
:1000F0003A20000043686972702C2043686972706E
:10010000200000202020202020202020202020202F
:100110002020200000001F000000001F00001F1012
:100120001010101F00001F181818181F00001F1CA7
:100130001C1C1C1F00001F1E1E1E1E1F00001F1F58
:100140001F1F1F1F0003070F1F0F070300181C1E90
:100150001F1E1C18006364696E6F70737578585B9E
:10016000000011241FBECFEFD0E4DEBFCDBF11E0F1
:10017000A0E0B1E0EAE2F6E100E00BBF02C00790C8
:100180000D92AE34B107D9F711E0AEE4B1E001C091
:100190001D92A03EB107E1F70E9439010C94130BA8
:1001A0000C94000011B812B88FEF87B918B884B951
:1001B00015B852985A9A0895CF92DF92EF92FF9213
:1001C0000F931F93DF93CF93CDB7DEB728970FB66A
:1001D000F894DEBF0FBECDBF90E0C92E91E0D92EBE
:1001E00085E0E82EF12CEC0EFD1E8E010F5F1F4FF7
:1001F0006091DC017091DD018EE390E00E94BC040F
:100200008DB79EB708970FB6F8949EBF0FBE8DBFEF
:10021000EDB7FEB731968091DA019091DB01ADB771
:10022000BEB712969C938E931197D382C282F582A9
:10023000E482178306830E9413058DB79EB7089644
:100240000FB6F8949EBF0FBE8DBFD2CF0E94C503DC
:100250000E942D040E945E0380E060E00E947B0308
:100260008CE890E060E040E00E948A031092B701C1
:1002700008954F925F926F927F928F929F92AF926A
:10028000BF92DF92EF92FF920F931F93DF93CF9372
:10029000CDB7DEB763970FB6F894DEBF0FBECDBF04
:1002A0001A8219820E9426010E94340268E371E0DA
:1002B0007093DF016093DE017093DB016093DA01DC
:1002C0007093DD016093DC0186E091E00E94E80418
:1002D00000D000D000D0EDB7FEB731968091DA01A2
:1002E0009091DB01ADB7BEB712969C938E93119798
:1002F00084E191E093838283CE0101969583848388
:100300000E941305EDB7FEB7319609EC11E0ADB7C9
:10031000BEB712961C930E93119788E191E09383D8
:10032000828389819A81958384830E9424058DB775
:100330009EB706960FB6F8949EBF0FBE8DBF80E0A5
:1003400060E00E947B03F80101900020E9F73197FB
:10035000E01BF10BC8016E2F0E946603EE24FF2400
:100360005FE2452E51E0552E43E0A42EB12CAC0E99
:10037000BD1ED02E012F32E3632E31E0732E20E913
:10038000822E21E0922E52C06091DC017091DD013D
:100390008AE291E00E94E80400D000D000D0EDB7DE
:1003A000FEB731968091DA019091DB01ADB7BEB70F
:1003B00012969C938E93119753824282B582A482A7
:1003C0000E941305EDB7FEB73196ADB7BEB71196D3
:1003D000DC92119712960C9373826282F582E4820A
:1003E0000E9424058DB79EB706960FB6F8949EBF5F
:1003F0000FBE8DBF8EE060E00E947B038D2D902F9D
:1004000062E00E94660380E061E00E947B03C50118
:100410006FE00E94660380E197E2F4013197F1F703
:100420000197D9F7A2E0B0E0EA0EFB1E89819A811C
:10043000E816F90608F4A8CF80E090E063960FB6BE
:10044000F894DEBF0FBECDBFCF91DF911F910F910A
:10045000FF90EF90DF90BF90AF909F908F907F9034
:100460006F905F904F90089587E68093C40088E175
:100470008093C10008951F93182F873049F460912D
:10048000DE017091DF0186E491E00E94E8040BC078
:100490008A3019F48DE00E943B028091C00085FFF4
:1004A000FCCF1093C60080E090E01F910895EF927A
:1004B000FF920F931F93CF93DF937C0180914E01A6
:1004C00090914F01892B09F09FC000E511E08091C8
:1004D000C00087FFFCCF8091C00084FF03C02EEFD7
:1004E0003FEFA6C08091C00083FDA0C09091C600E0
:1004F0009D3011F09A3069F48AE0F8018083B701E9
:100500000E943B0280E591E090934F0180934E0161
:100510007BC0993009F490E2892F80528F3510F01A
:10052000903A70F0F1E00F391F0711F487E004C032
:10053000F80191938F01892FB7010E943B02C7CF29
:10054000923139F1933138F4933009F46FC0983017
:1005500009F0BDCF09C0973109F44BC09F3721F096
:10056000953109F0B4CF32C0F1E000351F0709F032
:1005700008F4ADCF88E0B7010E943B0280E2B701EA
:100580000E943B0288E0B7010E943B0201501040EC
:100590009ECF8DE0B7010E943B02C0E5D1E004C0D0
:1005A0008991B7010E943B02C017D107C8F38FCFD2
:1005B00088E0B7010E943B0280E2B7010E943B0243
:1005C00088E0B7010E943B020150104081E00035F5
:1005D000180709F068F77BCF88E0B7010E943B025B
:1005E00080E2B7010E943B0288E0B7010E943B0213
:1005F0008E01E1E000351E0709F008F468CFE8013C
:100600008A91803249F763CFE0914E01F0914F011A
:100610008191F0934F01E0934E018A3021F41092C2
:100620004F0110924E01282F30E002C02FEF3FEF14
:10063000C901DF91CF911F910F91FF90EF90089525
:10064000282F207F28B9409A429A24EF31E0F901FF
:100650003197F1F742984098F9013197F1F790E01E
:1006600044E0880F991F4A95E1F788B9409A429A69
:10067000C9010197F1F742984098C9010197F1F734
:100680000895282F207F28B9429A24EF31E0F901FC
:100690003197F1F74298F9013197F1F790E054E082
:1006A000880F991F5A95E1F788B9429AC9010197B5
:1006B000F1F74298C9010197F1F7089581E00E948E
:1006C0004103089582E00E94410308950F931F9310
:1006D000CF93DF93062F009749F0EC0110E004C0A0
:1006E00089910E9420031F5F1017D0F3DF91CF91F3
:1006F0001F910F910895623031F0633031F0613015
:1007000029F4805C03C08C5E01C08C5A80680E9412
:10071000410308951F93CF93DF93EC01862F642F3D
:100720000E947B0310E003C00E9420031F5FFE01B4
:10073000E10FF11D84918823B9F7DF91CF911F91CB
:100740000895EF92FF920F931F93CF93DF937C0155
:10075000162F110F110F110F1064C0E0D0E0F70138
:10076000EC0FFD1F0491812F8C0F0E944103802FFD
:100770000E9420032196C830D10589F7DF91CF91DF
:100780001F910F91FF90EF9008951F93CF93DF93E8
:1007900086EA9EE00197F1F718B818B887B1806F24
:1007A00087B987B1876087B980E388B9429A24EF17
:1007B00031E0F9013197F1F74298F9013197F1F7FA
:1007C00088B9429AC9010197F1F74298C901019786
:1007D000F1F780E288B9429AC9010197F1F742988E
:1007E000C9010197F1F788E20E9441038CE00E9461
:1007F0004103C5E1D1E060E0162F1F5FCE010E94EA
:10080000A1032896612F1830B9F7DF91CF911F917E
:1008100008950F931F93082F10E004C08EE10E94EB
:1008200041031F5F1017D0F31F910F9108950F938D
:100830001F93082F10E004C088E10E9441031F5F4E
:100840001017D0F31F910F9108958EE00E9441037D
:1008500008958FE00E94410308958CE00E944103B7
:10086000089588E00E94410308958CE00E944103AE
:1008700008950F931F93082F10E004C080E10E9499
:1008800041031F5F1017D0F31F910F9108950F932D
:100890001F93082F10E004C084E10E9441031F5FF2
:1008A0001017D0F31F910F910895DF92EF92FF92EE
:1008B0000F931F93CF93DF93D42E96E0899FC001AF
:1008C0001124242F30E0AC01429FC001439F900DC2
:1008D000529F900D112470E00E94A904EB01CB01FE
:1008E00066E070E00E949504E82EFF2400E010E02E
:1008F00012C0C8010596C817D90710F085E006C0D8
:10090000C017D10710F08E2D01C080E00E94200397
:10091000F3940A5F1F4FFD1460F3DF91CF911F9195
:100920000F91FF90EF90DF900895AA1BBB1B51E140
:1009300007C0AA1FBB1FA617B70710F0A61BB70B4F
:10094000881F991F5A95A9F780959095BC01CD01F4
:10095000089597FB092E07260AD077FD04D0E5DF1E
:1009600006D000201AF4709561957F4F0895F6F730
:10097000909581959F4F08950F931F93CF93DF9389
:100980008C01EB018B8181FF1BC082FF0DC02E818A
:100990003F818C819D812817390764F4E881F981B2
:1009A0000193F983E88306C0E885F985802F0995CE
:1009B000892B31F48E819F8101969F838E8302C0A3
:1009C0000FEF1FEFC801DF91CF911F910F91089595
:1009D000EF92FF920F931F93CF93DF937C018B01D4
:1009E000DB0113968C9181FD03C0CFEFDFEF13C0C5
:1009F000C0E0D0E00BC0D8011896ED91FC9119979A
:100A0000B8010995892B11F0CFEFDFEFF701819144
:100A10007F01882381F7CE01DF91CF911F910F9144
:100A2000FF90EF900895DF93CF93CDB7DEB79E018F
:100A3000275F3F4F8D819E816F817885A9010E943C
:100A40000A09CF91DF9108950F931F93DF93CF93FE
:100A5000CDB7DEB72E970FB6F894DEBF0FBECDBF71
:100A60000D891E8986E08C831A8309838FEF9FE7A7
:100A70009E838D839E01275E3F4FCE0101966F8935
:100A8000788DA9010E9455052F813885020F131F0B
:100A9000F80110822E960FB6F894DEBF0FBECDBFC0
:100AA000CF91DF911F910F9108952F923F924F9216
:100AB0005F926F927F928F929F92AF92BF92CF92EE
:100AC000DF92EF92FF920F931F93DF93CF93CDB7F7
:100AD000DEB72B970FB6F894DEBF0FBECDBF3C013B
:100AE0002B015A01FC0117821682838181FD03C00C
:100AF0006FEF7FEFC6C19AE0892E1E010894211C7A
:100B0000311CF3012381F20123FD859123FF8191A3
:100B10002F01882309F4B2C1853239F423FD859170
:100B200023FF81912F01853229F490E0B3010E94C7
:100B3000BC04E7CF982FFF24EE249924FFE1FF1592
:100B4000D0F09B3269F09C3228F4903259F0933205
:100B500091F40EC09D3249F0903369F441E024C015
:100B600052E0F52A84E0F82A28C098E0F92A25C046
:100B7000E0E1FE2A22C0F7FC29C0892F80538A3089
:100B800070F4F6FE05C0989C902C1124980E15C0A8
:100B9000E89CE02C1124E80EF0E2FF2A0EC09E3201
:100BA00029F4F6FC6BC140E4F42A07C09C3619F422
:100BB00050E8F52A02C0983649F4F20123FD9591D8
:100BC00023FF91912F01992309F0B8CF892F8554E4
:100BD000833018F08052833038F444E050E0A40EA3
:100BE000B51E5FE359830FC0933631F0933779F028
:100BF000933509F056C020C0F5018081898342E019
:100C000050E0A40EB51E610101E010E012C0F50134
:100C1000C080D180F6FC03C06FEF7FEF02C0692D6A
:100C200070E042E050E0A40EB51EC6010E944B0ADF
:100C30008C015FE7F52214C0F501C080D180F6FC7D
:100C400003C06FEF7FEF02C0692D70E042E050E01B
:100C5000A40EB51EC6010E94400A8C0150E8F52A78
:100C6000F3FE07C01AC080E290E0B3010E94BC040A
:100C7000EA948E2D90E008171907A8F30EC0F6012C
:100C8000F7FC8591F7FE81916F0190E0B3010E941E
:100C9000BC04E110EA94015010400115110579F7E8
:100CA000EAC0943611F0993669F5F7FE08C0F501EF
:100CB000208131814281538184E090E00AC0F501B6
:100CC000808191819C01442737FD4095542F82E01B
:100CD00090E0A80EB91E9FE6F92257FF09C0509573
:100CE0004095309521953F4F4F4F5F4FE0E8FE2AEA
:100CF000CA01B901A1012AE030E00E94B20AD82E4F
:100D0000D21840C0953729F41F2D1F7E2AE030E00D
:100D10001DC01F2D197F9F3661F0903720F4983544
:100D200009F0ACC00FC0903739F0983709F0A6C071
:100D300004C028E030E00AC0106114FD146020E116
:100D400030E004C014FD166020E132E017FF08C057
:100D5000F501608171818281938144E050E008C097
:100D6000F50180819181BC0180E090E042E050E09B
:100D7000A40EB51EA1010E94B20AD82ED2188FE788
:100D8000F82EF122F6FE0BC05EEFF522D91438F4EE
:100D9000F4FE07C0F2FC05C08FEEF82202C01D2D44
:100DA00001C0192DF4FE0DC0FE01ED0DF11D808175
:100DB000803319F499EEF92208C01F5FF2FE05C0D6
:100DC00003C08F2D867809F01F5F0F2DF3FC14C030
:100DD000F0FE0FC01E1510F09D2C0BC09D2C9E0C1C
:100DE000911A1E2D06C080E290E0B3010E94BC045F
:100DF0001F5F1E15C0F304C01E1510F4E11A01C0D8
:100E0000EE2404FF0FC080E390E0B3010E94BC0415
:100E100002FF1DC001FD03C088E790E00EC088E519
:100E200090E00BC0802F867891F001FF02C08BE22A
:100E300001C080E2F7FC8DE290E0B3010E94BC04A7
:100E400006C080E390E0B3010E94BC049A94D914D8
:100E5000C0F3DA94F101ED0DF11D808190E0B30152
:100E60000E94BC04DD20A9F706C080E290E0B30137
:100E70000E94BC04EA94EE20C1F743CEF3016681E0
:100E80007781CB012B960FB6F894DEBF0FBECDBF96
:100E9000CF91DF911F910F91FF90EF90DF90CF9056
:100EA000BF90AF909F908F907F906F905F904F908A
:100EB0003F902F900895FC0120FD08C023FD05C040
:100EC00022FF02C073836283518340830895EF92AF
:100ED000FF920F931F9344FF02C033E011C046FFFF
:100EE00002C034E00DC0DB01FC01AA0FBB1FEE1FE6
:100EF000FF1F1094D1F76A0F7B1F8E1F9F1F31E0D9
:100F0000660F771F881F991F3150D1F77B018C0125
:100F1000E20EF11C011D111DA8019701B701CA01C4
:100F20001F910F91FF90EF9008950F931F93CF9310
:100F3000DF938C01C8010E94560AEC0197FD08C09E
:100F40000E942D0A892BB1F7CE01B8010E94980AA0
:100F5000CE01DF91CF911F910F910895AF92BF9273
:100F6000CF92DF92EF92FF920F931F93CF93DF9375
:100F7000EC01C62E5A01122F0E94560AAC018B3288
:100F800019F08D3251F41068CA9409F46DC0CE0185
:100F90000E94560AAC0197FD67C06DEFD62ED12294
:100FA0008D2D807301F54033F1F4CA9409F447C0E4
:100FB000CE010E94560AAC0197FD41C082E0D82ABA
:100FC000483711F0483559F480E4D82ACA94B9F169
:100FD000CE010E94560AAC0199232CF430C0D6FCF5
:100FE00002C080E1D82AEE24FF248701242F205359
:100FF000283088F0D4FC09C02A3068F0D6FE05C03D
:101000002F7D822F8151863028F0CA01BE010E94B7
:10101000980A12C02750C801B7014D2D0E946707DA
:101020007B018C0182E0D82ACA9461F0CE010E9433
:10103000560AAC0197FFDACFD1FC04C015C0EE24EC
:10104000FF248701D7FE08C010950095F094E09426
:10105000E11CF11C011D111DC501B801A7012D2DB9
:101060000E945B0781E001C080E0DF91CF911F917A
:101070000F91FF90EF90DF90CF90BF90AF900895C9
:101080006F927F928F929F92AF92BF92CF92DF9298
:10109000EF92FF920F931F93DF93CF93CDB7DEB7FD
:1010A000A0970FB6F894DEBF0FBECDBF6C01A62E81
:1010B0008A017901FE01319680E2DF011D928A9555
:1010C000E9F770E030E060E040E050E04F01A1E07F
:1010D000B0E0F6018381F70183FD259183FF219123
:1010E0007F01222309F47EC02E3519F441155105E4
:1010F00069F1872F90E08417950744F42D3551F15D
:101100002D3221F4332329F431E021C0332309F4B3
:10111000622F322F832F869586958695F401E80FEE
:10112000F11D832F87703D0102C0660C771C8A95E4
:10113000E2F7208126292083361711F430E007C01A
:10114000361710F43F5FE6CF3150E4CF71E04F5FC8
:101150005F4FBFCF332319F08E8180628E83772358
:1011600059F0FE0131969E012F5D3F4F80818095A1
:101170008193E217F307D1F7BB24B3944E0108948F
:10118000811C911CC6010E94560AAC0197FD22C029
:10119000869586958695F401E80FF11D808190E093
:1011A0009A012770307002C0959587952A95E2F7CD
:1011B00080FD05C0CA01B6010E94980A0BC0011546
:1011C000110519F0D8014D938D01AA94BB24AA20D2
:1011D000C9F602C0BB2031F40115110529F0F80150
:1011E000108202C0EE24FF24C701A0960FB6F89427
:1011F000DEBF0FBECDBFCF91DF911F910F91FF904A
:10120000EF90DF90CF90BF90AF909F908F907F90A6
:101210006F9008956F927F928F929F92AF92BF923C
:10122000CF92DF92EF92FF920F931F93CF93DF93B2
:101230005C016B013A01FC01178216828824EAC026
:10124000812F90E00E942D0A892B21F0C5010E9478
:101250009507E0C0153249F4F601F3FC6591F3FE01
:1012600061916F01653269F415E2C5010E94560A69
:1012700097FDDCC0181709F4CDC0B5010E94980A8B
:10128000DAC06A3219F0162F00E006C0F3FC15919F
:10129000F3FE11916F0101E099240FC00260692DE6
:1012A00070E080E090E040E20E946707962EF60131
:1012B000F3FC1591F3FE11916F01212F20532A3079
:1012C00068F301FD03C099249A9403C0992009F49E
:1012D000B2C0183621F01C3699F4F6010BC0F601A5
:1012E000F3FC6591F3FE6191683619F06F01162FDA
:1012F00007C008600460F3FC1591F3FE11916F01C3
:10130000112309F498C085E591E0612F70E00E94F7
:10131000350A892B09F48FC0802F00FF03C0EE240B
:10132000FF2407C0F301E080F18022E030E0620E8C
:10133000731E1E3651F4F5014681578160E070E05E
:10134000C701202F0E945B0765C0133691F481FD11
:1013500002C099249394C5010E94560A97FD66C065
:10136000E114F10419F0F70181937F019A9499F740
:101370004FC01B3559F4C501692DA70196010E9484
:1013800040086C01009709F043C03DC0C5010E94B0
:10139000950797FD4BC01F3659F1103728F41436C6
:1013A00029F1193639F527C0133719F0153711F51A
:1013B0001DC0C5010E94560AEC0197FD11C00E9494
:1013C0002D0A892B29F0CE01B5010E94980A08C088
:1013D000E114F10419F0F701C1937F019A9449F7E0
:1013E000E114F104A9F0F701108212C0006203C0F9
:1013F000006101C00064C501692DA701202F0E9472
:10140000AE07882329F4F5018381807379F413C032
:1014100000FF8394F501F380F601F3FC1591F3FED0
:1014200011916F01112309F00BCF05C0882019F429
:101430002FEF3FEF02C0282D30E0C901DF91CF919F
:101440001F910F91FF90EF90DF90CF90BF90AF90E2
:101450009F908F907F906F9008959111E1C080329E
:1014600019F089508550D0F70895FC0105900616B3
:1014700021F00020D9F7C00108953197CF010895D8
:10148000FC010590615070400110D8F7809590954F
:101490008E0F9F1F0895FC01615070400190011054
:1014A000D8F7809590958E0F9F1F0895CF93DF9367
:1014B000EC014B8140FF1AC046FF0AC04F7B4B83B3
:1014C0008E819F8101969F838E838A81282F2BC0D6
:1014D00042FF13C0E881F9818081282F332727FD3F
:1014E00030952115310529F440624B832FEF3FEFF2
:1014F0001BC03196F983E88311C0EA85FB85CE01D4
:1015000009959C0197FF0AC09B812F5F3F4F11F007
:1015100080E201C080E1892B8B83E8CF8E819F819F
:1015200001969F838E8330E0C901DF91CF910895AA
:101530009C01FB01838180FF11C086FD0FC09FEFDE
:101540002F3F390759F0228380648F7D8383868102
:10155000978101979783868330E002C02FEF3FEF9A
:10156000C9010895FA01AA27283051F1203181F1EB
:10157000E8946F936E7F6E5F7F4F8F4F9F4FAF4F9B
:10158000B1E03ED0B4E03CD0670F781F891F9A1FAE
:10159000A11D680F791F8A1F911DA11D6A0F711D62
:1015A000811D911DA11D20D009F468943F912AE06E
:1015B000269F11243019305D3193DEF6CF01089556
:1015C000462F4770405D4193B3E00FD0C9F7F6CF87
:1015D000462F4F70405D4A3318F0495D31FD40524F
:1015E000419302D0A9F7EACFB4E0A69597958795E5
:1015F00077956795BA95C9F70097610571050895C4
:101600009B01AC010A2E069457954795379527956F
:10161000BA95C9F7620F731F841F951FA01D089507
:0A162000992788270895F894FFCF5A
:10162A0025732025660046696C65204C656E6774D3
:10163A00680A0D0025642A0046696C65204C656EAF
:10164A003A252D692E202020200048690A0D002500
:10165A007300252D6920200000000003000000000F
:0E166A003B02570200002A72696E672A0A00CE
:00000001FF
