:100000000C94B1000C94D0000C94D0000C94D0004F
:100010000C94D0000C94D0000C94D0000C94D00020
:100020000C94D0000C94D0000C94D0000C94D00010
:100030000C94D0000C94D0000C94D0000C94D00000
:100040000C94D0000C94D0000C94D0000C94D000F0
:100050000C94D0000C94D0000C94D0000C94D000E0
:100060000C94D0000C94D0000C94D0000C94D000D0
:100070000C94D0000C94D0000C94D0000C94D000C0
:100080000C94D0000C94D0000C94D0004C4344202D
:10009000496E697469616C697A6520200000427557
:1000A000727374204672657175656E63793A0000EB
:1000B000436869727020496E74657276616C3A208B
:1000C00000004E756D2053796C6C61626C65733AFB
:1000D0002000004475722053796C6C61626C65730A
:1000E0003A20000052707420696E74657276616CFB
:1000F0003A20000043686972702C2043686972706E
:10010000200000202020202020202020202020202F
:100110002020200000001F000000001F00001F1012
:100120001010101F00001F181818181F00001F1CA7
:100130001C1C1C1F00001F1E1E1E1E1F00001F1F58
:100140001F1F1F1F0003070F1F0F070300181C1E90
:100150001F1E1C18006364696E6F70737578585B9E
:10016000000011241FBECFEFD0E4DEBFCDBF11E0F1
:10017000A0E0B1E0E2E4F7E100E00BBF02C00790CD
:100180000D92A436B107D9F711E0A4E6B1E001C0A1
:100190001D92A63FB107E1F70E9439010C949F0B15
:1001A0000C94000011B812B88FEF87B918B884B951
:1001B00015B852985A9A0895CF92DF92EF92FF9213
:1001C0000F931F93DF93CF93CDB7DEB728970FB66A
:1001D000F894DEBF0FBECDBF90E0C92E91E0D92EBE
:1001E00085E0E82EF12CEC0EFD1E8E010F5F1F4FF7
:1001F0006091F2017091F3018EE390E00E94250579
:100200008DB79EB708970FB6F8949EBF0FBE8DBFEF
:10021000EDB7FEB731968091F0019091F101ADB745
:10022000BEB712969C938E931197D382C282F582A9
:10023000E482178306830E947C058DB79EB70896DB
:100240000FB6F8949EBF0FBE8DBFD2CF0E9442035F
:100250000E94AA030E94DB0280E060E00E94F80294
:100260008CE890E060E040E00E9407031092CD012E
:1002700008952F923F924F925F926F927F928F924A
:100280009F92AF92BF92CF92DF92EF92FF920F9325
:100290001F93DF93CF93CDB7DEB769970FB6F8946E
:1002A000DEBF0FBECDBF8EEF9FEF9A8389839C8305
:1002B0008B839E838D8318861F820E9426010E9455
:1002C00012046DE471E07093F5016093F401709392
:1002D000F1016093F0017093F3016093F20186E005
:1002E00091E00E94510500D000D000D0EDB7FEB7DC
:1002F00031968091F0019091F101ADB7BEB71296A1
:100300009C938E93119784E191E093838283CE0135
:100310000796958384830E947C05EDB7FEB73196DE
:100320000FED11E0ADB7BEB712961C930E93119767
:1003300088E191E0938382838F819885958384837C
:100340000E948D056DB77EB76A5F7F4F0FB6F89438
:100350007EBF0FBE6DBF80E060E00E94F802F80132
:1003600001900020E9F73197E01BF10BC8016E2FD7
:100370000E94E302EE24FF2469E0C62ED12CCC0EAD
:10038000DD1E53E0252E312C2C0E3D1E45E0442E63
:10039000512C4C0E5D1E58013DE3632E31E0732E4F
:1003A0000CEB11E023E4822E21E0922EA5C0609197
:1003B000F2017091F3018AE291E00E94510500D0B0
:1003C00000D000D0EDB7FEB731968091F00190914A
:1003D000F101ADB7BEB712969C938E9311976FE261
:1003E00071E073836283D582C4820E947C0500D051
:1003F00000D0EDB7FEB73196ADB7BEB71296DC921E
:10040000CE92119762E371E07383628381E090E0A2
:100410008C0F9D1F95838483378226825186408668
:100420000E94BE050F900F900F900F90EDB7FEB792
:100430003196ADB7BEB71196AC9211971296BC9299
:1004400073826282F582E4820E948D056DB77EB769
:100450006A5F7F4F0FB6F8947EBF0FBE6DBF8AE014
:1004600060E00E94F802C50162E00E94E30280E0C1
:1004700061E00E94F802C6016FE00E94E302498138
:100480005A8114161506A4F52B813C811216130609
:100490007CF58D819E811816190654F5ADB7BEB74F
:1004A0001A970FB6F894BEBF0FBEADBFEDB7FEB73B
:1004B000319612961C930E931197938282825583E4
:1004C000448337832683918780870E948D056DB78B
:1004D0007EB7665F7F4F0FB6F8947EBF0FBE6DBFCD
:1004E00080E060E00E94F802C8016AE00E94E30236
:1004F00082E090E0E80EF91E8F819885E816F906F3
:1005000008F455CF80E090E069960FB6F894DEBF0E
:100510000FBECDBFCF91DF911F910F91FF90EF9054
:10052000DF90CF90BF90AF909F908F907F906F9013
:100530005F904F903F902F900895282F207F28B9EB
:10054000409A429A20E43FE1F9013197F1F742984D
:100550004098F9013197F1F790E044E0880F991F36
:100560004A95E1F788B9409A429AC9010197F1F793
:1005700042984098C9010197F1F70895282F207FEC
:1005800028B9429A20E43FE1F9013197F1F7429806
:10059000F9013197F1F790E054E0880F991F5A95CF
:1005A000E1F788B9429AC9010197F1F74298C90168
:1005B0000197F1F7089581E00E94BE02089582E05C
:1005C0000E94BE0208950F931F93CF93DF93062FCF
:1005D000009749F0EC0110E004C089910E949D024F
:1005E0001F5F1017D0F3DF91CF911F910F910895E6
:1005F000623031F0633031F0613029F4805C03C047
:100600008C5E01C08C5A80680E94BE0208951F93C0
:10061000CF93DF93EC01862F642F0E94F80210E045
:1006200003C00E949D021F5FFE01E10FF11D849136
:100630008823B9F7DF91CF911F910895EF92FF9230
:100640000F931F93CF93DF937C01162F110F110F80
:10065000110F1064C0E0D0E0F701EC0FFD1F049112
:10066000812F8C0F0E94BE02802F0E949D02219636
:10067000C830D10589F7DF91CF911F910F91FF907D
:10068000EF9008951F93CF93DF9380E69AEE019742
:10069000F1F718B818B887B1806F87B987B187604C
:1006A00087B980E388B9429A20E43FE1F9013197A4
:1006B000F1F74298F9013197F1F788B9429AC901E7
:1006C0000197F1F74298C9010197F1F780E288B9E3
:1006D000429AC9010197F1F74298C9010197F1F7D0
:1006E00088E20E94BE028CE00E94BE02C5E1D1E019
:1006F00060E0162F1F5FCE010E941E032896612F17
:100700001830B9F7DF91CF911F9108950F931F9380
:10071000082F10E004C08EE10E94BE021F5F101778
:10072000D0F31F910F9108950F931F93082F10E09E
:1007300004C088E10E94BE021F5F1017D0F31F9112
:100740000F9108958EE00E94BE0208958FE00E94EE
:10075000BE0208958CE00E94BE02089588E00E94C7
:10076000BE0208958CE00E94BE0208950F931F936D
:10077000082F10E004C080E10E94BE021F5F101726
:10078000D0F31F910F9108950F931F93082F10E03E
:1007900004C084E10E94BE021F5F1017D0F31F91B6
:1007A0000F910895DF92EF92FF920F931F93CF93D3
:1007B000DF93D42E96E0899FC0011124242F30E0CE
:1007C000AC01429FC001439F900D529F900D112498
:1007D00070E00E941205EB01CB0166E070E00E9420
:1007E000FE04E82EFF2400E010E012C0C8010596C8
:1007F000C817D90710F085E006C0C017D10710F060
:100800008E2D01C080E00E949D02F3940A5F1F4F6D
:10081000FD1460F3DF91CF911F910F91FF90EF9046
:10082000DF90089587E68093C40088E18093C1003B
:1008300008951F93182F873049F46091F401709147
:10084000F5018BE591E00E9451050BC08A3019F447
:100850008DE00E9419048091C00085FFFCCF1093A9
:10086000C60080E090E01F910895EF92FF920F93F1
:100870001F93CF93DF937C01809164019091650178
:10088000892B09F09FC006E611E08091C00087FF28
:10089000FCCF8091C00084FF03C02EEF3FEFA6C0C5
:1008A0008091C00083FDA0C09091C6009D3011F0E2
:1008B0009A3069F48AE0F8018083B7010E94190434
:1008C00086E691E090936501809364017BC0993046
:1008D00009F490E2892F80528F3510F0903A70F031
:1008E000F1E0053B1F0711F487E004C0F801919384
:1008F0008F01892FB7010E941904C7CF923139F1B6
:10090000933138F4933009F46FC0983009F0BDCFBB
:1009100009C0973109F44BC09F3721F0953109F098
:10092000B4CF32C0F1E006361F0709F008F4ADCFAE
:1009300088E0B7010E94190480E2B7010E941904FF
:1009400088E0B7010E941904015010409ECF8DE04D
:10095000B7010E941904C6E6D1E004C08991B7012D
:100960000E941904C017D107C8F38FCF88E0B701E0
:100970000E94190480E2B7010E94190488E0B701BF
:100980000E9419040150104081E00636180709F052
:1009900068F77BCF88E0B7010E94190480E2B701B5
:1009A0000E94190488E0B7010E9419048E01E1E059
:1009B00006361E0709F008F468CFE8018A918032F4
:1009C00049F763CFE0916401F09165018191F09363
:1009D0006501E09364018A3021F410926501109260
:1009E0006401282F30E002C02FEF3FEFC901DF91F3
:1009F000CF911F910F91FF90EF900895AA1BBB1B01
:100A000051E107C0AA1FBB1FA617B70710F0A61B0E
:100A1000B70B881F991F5A95A9F780959095BC012F
:100A2000CD01089597FB092E07260AD077FD04D043
:100A3000E5DF06D000201AF4709561957F4F089588
:100A4000F6F7909581959F4F08950F931F93CF933D
:100A5000DF938C01EB018B8181FF1BC082FF0DC0F6
:100A60002E813F818C819D812817390764F4E881AC
:100A7000F9810193F983E88306C0E885F985802F21
:100A80000995892B31F48E819F8101969F838E83F6
:100A900002C00FEF1FEFC801DF91CF911F910F919F
:100AA0000895EF92FF920F931F93CF93DF937C01F2
:100AB0008B01DB0113968C9181FD03C0CFEFDFEF3B
:100AC00013C0C0E0D0E00BC0D8011896ED91FC91A6
:100AD0001997B8010995892B11F0CFEFDFEFF701D6
:100AE00081917F01882381F7CE01DF91CF911F9102
:100AF0000F91FF90EF900895DF93CF93CDB7DEB7BE
:100B00009E01275F3F4F8D819E816F817885A9016E
:100B10000E949609CF91DF9108950F931F93DF9361
:100B2000CF93CDB7DEB72E970FB6F894DEBF0FBECA
:100B3000CDBF0D891E8986E08C831A8309838FEFD0
:100B40009FE79E838D839E01275E3F4FCE010196D6
:100B50006F89788DA9010E94E1052F813885020FE8
:100B6000131FF80110822E960FB6F894DEBF0FBE49
:100B7000CDBFCF91DF911F910F910895DF93CF9358
:100B8000CDB7DEB72E970FB6F894DEBF0FBECDBF40
:100B900085E08C838B899C899A8389839E01295E59
:100BA0003F4FCE0101966D897E89A9010E94960969
:100BB0002E960FB6F894DEBF0FBECDBFCF91DF915A
:100BC00008952F923F924F925F926F927F928F92F1
:100BD0009F92AF92BF92CF92DF92EF92FF920F93CC
:100BE0001F93DF93CF93CDB7DEB72B970FB6F89453
:100BF000DEBF0FBECDBF3C012B015A01FC011782A5
:100C00001682838181FD03C06FEF7FEFC6C19AE03A
:100C1000892E1E010894211C311CF3012381F2014D
:100C200023FD859123FF81912F01882309F4B2C10F
:100C3000853239F423FD859123FF81912F0185327F
:100C400029F490E0B3010E942505E7CF982FFF24F7
:100C5000EE249924FFE1FF15D0F09B3269F09C321D
:100C600028F4903259F0933291F40EC09D3249F03D
:100C7000903369F441E024C052E0F52A84E0F82A78
:100C800028C098E0F92A25C0E0E1FE2A22C0F7FC3E
:100C900029C0892F80538A3070F4F6FE05C0989CD5
:100CA000902C1124980E15C0E89CE02C1124E80E1D
:100CB000F0E2FF2A0EC09E3229F4F6FC6BC140E43C
:100CC000F42A07C09C3619F450E8F52A02C0983679
:100CD00049F4F20123FD959123FF91912F0199236E
:100CE00009F0B8CF892F8554833018F080528330B3
:100CF00038F444E050E0A40EB51E5FE359830FC002
:100D0000933631F0933779F0933509F056C020C00F
:100D1000F5018081898342E050E0A40EB51E610197
:100D200001E010E012C0F501C080D180F6FC03C0E4
:100D30006FEF7FEF02C0692D70E042E050E0A40E3B
:100D4000B51EC6010E94D70A8C015FE7F52214C0C8
:100D5000F501C080D180F6FC03C06FEF7FEF02C0C9
:100D6000692D70E042E050E0A40EB51EC6010E945D
:100D7000CC0A8C0150E8F52AF3FE07C01AC080E2C5
:100D800090E0B3010E942505EA948E2D90E00817AB
:100D90001907A8F30EC0F601F7FC8591F7FE8191C3
:100DA0006F0190E0B3010E942505E110EA94015023
:100DB00010400115110579F7EAC0943611F0993603
:100DC00069F5F7FE08C0F501208131814281538128
:100DD00084E090E00AC0F501808191819C01442764
:100DE00037FD4095542F82E090E0A80EB91E9FE693
:100DF000F92257FF09C050954095309521953F4FF6
:100E00004F4F5F4FE0E8FE2ACA01B901A1012AE075
:100E100030E00E943E0BD82ED21840C0953729F4FE
:100E20001F2D1F7E2AE030E01DC01F2D197F9F3629
:100E300061F0903720F4983509F0ACC00FC09037BE
:100E400039F0983709F0A6C004C028E030E00AC0A5
:100E5000106114FD146020E130E004C014FD166040
:100E600020E132E017FF08C0F501608171818281C5
:100E7000938144E050E008C0F50180819181BC017C
:100E800080E090E042E050E0A40EB51EA1010E9477
:100E90003E0BD82ED2188FE7F82EF122F6FE0BC0AB
:100EA0005EEFF522D91438F4F4FE07C0F2FC05C059
:100EB0008FEEF82202C01D2D01C0192DF4FE0DC0C9
:100EC000FE01ED0DF11D8081803319F499EEF922B8
:100ED00008C01F5FF2FE05C003C08F2D867809F0A1
:100EE0001F5F0F2DF3FC14C0F0FE0FC01E1510F095
:100EF0009D2C0BC09D2C9E0C911A1E2D06C080E2CD
:100F000090E0B3010E9425051F5F1E15C0F304C0C9
:100F10001E1510F4E11A01C0EE2404FF0FC080E397
:100F200090E0B3010E94250502FF1DC001FD03C032
:100F300088E790E00EC088E590E00BC0802F8678AF
:100F400091F001FF02C08BE201C080E2F7FC8DE26C
:100F500090E0B3010E94250506C080E390E0B30154
:100F60000E9425059A94D914C0F3DA94F101ED0D8D
:100F7000F11D808190E0B3010E942505DD20A9F7D5
:100F800006C080E290E0B3010E942505EA94EE20BD
:100F9000C1F743CEF30166817781CB012B960FB663
:100FA000F894DEBF0FBECDBFCF91DF911F910F919F
:100FB000FF90EF90DF90CF90BF90AF909F908F9079
:100FC0007F906F905F904F903F902F900895FC011D
:100FD00020FD08C023FD05C022FF02C07383628389
:100FE000518340830895EF92FF920F931F9344FF24
:100FF00002C033E011C046FF02C034E00DC0DB0187
:10100000FC01AA0FBB1FEE1FFF1F1094D1F76A0F40
:101010007B1F8E1F9F1F31E0660F771F881F991F50
:101020003150D1F77B018C01E20EF11C011D111D25
:10103000A8019701B701CA011F910F91FF90EF908E
:1010400008950F931F93CF93DF938C01C8010E94E3
:10105000E20AEC0197FD08C00E94B90A892BB1F79A
:10106000CE01B8010E94240BCE01DF91CF911F91D8
:101070000F910895AF92BF92CF92DF92EF92FF92BD
:101080000F931F93CF93DF93EC01C62E5A01122FBB
:101090000E94E20AAC018B3219F08D3251F41068D3
:1010A000CA9409F46DC0CE010E94E20AAC0197FD1A
:1010B00067C06DEFD62ED1228D2D807301F54033A0
:1010C000F1F4CA9409F447C0CE010E94E20AAC01CF
:1010D00097FD41C082E0D82A483711F0483559F4CD
:1010E00080E4D82ACA94B9F1CE010E94E20AAC0188
:1010F00099232CF430C0D6FC02C080E1D82AEE241B
:10110000FF248701242F2053283088F0D4FC09C005
:101110002A3068F0D6FE05C02F7D822F815186309F
:1011200028F0CA01BE010E94240B12C02750C8013A
:10113000B7014D2D0E94F3077B018C0182E0D82A74
:10114000CA9461F0CE010E94E20AAC0197FFDACFA7
:10115000D1FC04C015C0EE24FF248701D7FE08C0CF
:1011600010950095F094E094E11CF11C011D111DF7
:10117000C501B801A7012D2D0E94E70781E001C03C
:1011800080E0DF91CF911F910F91FF90EF90DF9062
:10119000CF90BF90AF9008956F927F928F929F9261
:1011A000AF92BF92CF92DF92EF92FF920F931F9375
:1011B000DF93CF93CDB7DEB7A0970FB6F894DEBF1D
:1011C0000FBECDBF6C01A62E8A017901FE013196BA
:1011D00080E2DF011D928A95E9F770E030E060E07F
:1011E00040E050E04F01A1E0B0E0F6018381F7015B
:1011F00083FD259183FF21917F01222309F47EC085
:101200002E3519F44115510569F1872F90E08417A7
:10121000950744F42D3551F12D3221F4332329F46F
:1012200031E021C0332309F4622F322F832F8695BA
:1012300086958695F401E80FF11D832F87703D0197
:1012400002C0660C771C8A95E2F72081262920834C
:10125000361711F430E007C0361710F43F5FE6CFC1
:101260003150E4CF71E04F5F5F4FBFCF332319F0B0
:101270008E8180628E83772359F0FE0131969E0124
:101280002F5D3F4F808180958193E217F307D1F75F
:10129000BB24B3944E010894811C911CC6010E948A
:1012A000E20AAC0197FD22C0869586958695F401E9
:1012B000E80FF11D808190E09A012770307002C024
:1012C000959587952A95E2F780FD05C0CA01B6017C
:1012D0000E94240B0BC00115110519F0D8014D9384
:1012E0008D01AA94BB24AA20C9F602C0BB2031F408
:1012F0000115110529F0F801108202C0EE24FF2427
:10130000C701A0960FB6F894DEBF0FBECDBFCF9138
:10131000DF911F910F91FF90EF90DF90CF90BF90E2
:10132000AF909F908F907F906F9008956F927F9273
:101330008F929F92AF92BF92CF92DF92EF92FF92E5
:101340000F931F93CF93DF935C016B013A01FC0174
:10135000178216828824EAC0812F90E00E94B90A81
:10136000892B21F0C5010E942108E0C0153249F403
:10137000F601F3FC6591F3FE61916F01653269F44A
:1013800015E2C5010E94E20A97FDDCC0181709F4B6
:10139000CDC0B5010E94240BDAC06A3219F0162FB5
:1013A00000E006C0F3FC1591F3FE11916F0101E01E
:1013B00099240FC00260692D70E080E090E040E267
:1013C0000E94F307962EF601F3FC1591F3FE11919E
:1013D0006F01212F20532A3068F301FD03C09924A7
:1013E0009A9403C0992009F4B2C0183621F01C3633
:1013F00099F4F6010BC0F601F3FC6591F3FE6191DF
:10140000683619F06F01162F07C008600460F3FCFE
:101410001591F3FE11916F01112309F498C085E530
:1014200091E0612F70E00E94C10A892B09F48FC0FE
:10143000802F00FF03C0EE24FF2407C0F301E080EB
:10144000F18022E030E0620E731E1E3651F4F50189
:101450004681578160E070E0C701202F0E94E707B6
:1014600065C0133691F481FD02C099249394C5019F
:101470000E94E20A97FD66C0E114F10419F0F70139
:1014800081937F019A9499F74FC01B3559F4C50198
:10149000692DA70196010E94CC086C01009709F004
:1014A00043C03DC0C5010E94210897FD4BC01F36B7
:1014B00059F1103728F4143629F1193639F527C0B7
:1014C000133719F0153711F51DC0C5010E94E20A46
:1014D000EC0197FD11C00E94B90A892B29F0CE01B9
:1014E000B5010E94240B08C0E114F10419F0F701C2
:1014F000C1937F019A9449F7E114F104A9F0F7012F
:10150000108212C0006203C0006101C00064C50106
:10151000692DA701202F0E943A08882329F4F5019C
:101520008381807379F413C000FF8394F501F38005
:10153000F601F3FC1591F3FE11916F01112309F0EF
:101540000BCF05C0882019F42FEF3FEF02C0282DE4
:1015500030E0C901DF91CF911F910F91FF90EF9083
:10156000DF90CF90BF90AF909F908F907F906F90C3
:1015700008959111E1C0803219F089508550D0F75B
:101580000895FC010590061621F00020D9F7C0014E
:1015900008953197CF010895FC0105906150704086
:1015A0000110D8F7809590958E0F9F1F0895FC012C
:1015B0006150704001900110D8F7809590958E0F82
:1015C0009F1F0895CF93DF93EC014B8140FF1AC01A
:1015D00046FF0AC04F7B4B838E819F8101969F837C
:1015E0008E838A81282F2BC042FF13C0E881F981A6
:1015F0008081282F332727FD30952115310529F4C7
:1016000040624B832FEF3FEF1BC03196F983E88395
:1016100011C0EA85FB85CE0109959C0197FF0AC0A0
:101620009B812F5F3F4F11F080E201C080E1892B49
:101630008B83E8CF8E819F8101969F838E8330E0DC
:10164000C901DF91CF9108959C01FB01838180FF47
:1016500011C086FD0FC09FEF2F3F390759F022833D
:1016600080648F7D838386819781019797838683AA
:1016700030E002C02FEF3FEFC9010895FA01AA2719
:10168000283051F1203181F1E8946F936E7F6E5FC5
:101690007F4F8F4F9F4FAF4FB1E03ED0B4E03CD073
:1016A000670F781F891F9A1FA11D680F791F8A1F56
:1016B000911DA11D6A0F711D811D911DA11D20D0BD
:1016C00009F468943F912AE0269F11243019305D77
:1016D0003193DEF6CF010895462F4770405D419368
:1016E000B3E00FD0C9F7F6CF462F4F70405D4A33B5
:1016F00018F0495D31FD4052419302D0A9F7EACF7D
:10170000B4E0A6959795879577956795BA95C9F7AB
:1017100000976105710508959B01AC010A2E06949E
:101720005795479537952795BA95C9F7620F731F57
:10173000841F951FA01D0895992788270895F89460
:02174000FFCFD9
:1017420025732025660046696C65204C656E6774BA
:10175200680A0D0025642A00202020202020202055
:101762002020202020252D692E0048690A0D002501
:1017720073005825645925644425642A00252D697F
:101782002020007825647925646425640000000027
:1017920003000000001904350400002A72696E6714
:0417A2002A0A00000F
:00000001FF
