:100000000C94A9000C945E060C94C8000C94C800D3
:100010000C94C8000C94C8000C94C8000C94C80040
:100020000C94C8000C94C8000C94C8000C9488066A
:100030000C94C8000C94CA000C94C8000C94C8001E
:100040000C94C8000C94C8000C94C8000C94C80010
:100050000C942F040C94BB030C94C8000C94C8009F
:100060000C94C8000C94C8000C94C8000C94C800F0
:100070000C94C8000C94C8000C94C8000C94C800E0
:100080000C94C8000C94C8000C94C8004C43442045
:10009000496E697469616C697A6564210000427512
:1000A000727374204672657175656E63793A0000EB
:1000B000436869727020496E74657276616C3A208B
:1000C00000004E756D2053796C6C61626C65733AFB
:1000D0002000004475722053796C6C61626C65730A
:1000E0003A20000052707420696E74657276616CFB
:1000F0003A20000043686972702C2043686972706E
:10010000200000200000001F000000001F00001F52
:10011000101010101F00001F181818181F00001FC3
:100120001C1C1C1C1F00001F1E1E1E1E1F00001F6B
:100130001F1F1F1F1F0003070F1F0F070300181C9F
:100140001E1F1E1C18006364696E6F7073757858EB
:100150005B0011241FBECFEFD0E4DEBFCDBF11E0A6
:10016000A0E0B1E0EAE4F5E200E00BBF02C00790D6
:100170000D92AA3AB107D9F713E0AAEAB1E001C09B
:100180001D92A635B107E1F70E94A0060C94D40B8E
:100190000C9400001F920F920FB60F920BB60F92A5
:1001A00011242F923F924F925F926F927F928F9283
:1001B0009F92AF92BF92CF92DF92EF92FF920F93F6
:1001C0001F932F933F934F935F936F937F938F93DF
:1001D0009F93AF93BF93CF93DF93EF93FF931092CF
:1001E0006F0050900603B09B14C08091470390911C
:1001F0004803A0914903B0914A030196A11DB11D86
:100200008093470390934803A0934903B0934A0314
:10021000B09A80918400909185003C0188249924B3
:100220008091470390914803A0914903B0914A03FC
:10023000DC0199278827680E791E8A1E9B1E409034
:10024000050370E061E0FFEFAF2EFFEFBF2EFFEF81
:10025000CF2EFFE7DF2EEBE02E2E33243394CBE0BE
:10026000D0E043C0629DD0011124A95FBC4F1A9613
:100270008C911A978230A1F41296ED90FD900D9119
:100280001C9115976E147F048006910620F01A9633
:100290003C921A9705C0EA14FB040C051D0510F0EA
:1002A000860175011A968C911A978130D9F4872F9F
:1002B00090E08C9FF0018D9FF00D9C9FF00D11241C
:1002C000EB5FFC4F16962D913D914D915C911997E6
:1002D00080859185A285B385281739074A075B0772
:1002E00008F4762F6F5F57016801461608F0BACF01
:1002F0007515B1F0EBE05E9ED0011124A95FBC4FF3
:100300008DB78C938EB711968C937E9FF00111243C
:10031000E95FFC4F81818EBF80818DBF70930603A2
:10032000A0924B03B0924C03C0924D03D0924E0367
:10033000209184003091850040E050E08091470397
:1003400090914803A0914903B0914A03DC01992799
:100350008827280F391F4A1F5B1FD601C501821B42
:10036000930BA40BB50B9C01AD0184309105A10545
:10037000B10524F424E030E040E050E080918400B6
:1003800090918500A0E0B0E0820F931FA41FB51FDD
:1003900080509040A140B04038F48091840090910A
:1003A0008500820F931F0EC080918400909185007C
:1003B0008C5F9F4F28F4109289001092880006C02D
:1003C00084E090E0909389008093880082E080939D
:1003D0006F00FF91EF91DF91CF91BF91AF919F910E
:1003E0008F917F916F915F914F913F912F911F91CD
:1003F0000F91FF90EF90DF90CF90BF90AF909F90C4
:100400008F907F906F905F904F903F902F900F90C4
:100410000BBE0F900FBE0F901F9018951092850085
:10042000109284001092800025E02093810022E049
:1004300020936F002FEF30E4281B390B30934603D5
:100440002093450310920503109206031092470370
:10045000109248031092490310924A038FEF9FEFC6
:10046000AFEFBFE780934B0390934C03A0934D03F2
:10047000B0934E0380930D0390930E03A0930F034C
:10048000B09310031092090310920A0310920B0309
:1004900010920C03789408958F929F92AF92BF921E
:1004A000CF92DF92EF92FF920F931F93CF93DF9340
:1004B00049015A01F894209105032F5F2093050309
:1004C000C0914503D09146039E01261B370B309304
:1004D0004603209345038883FE0192933197DF0101
:1004E000CE014C971C921197A817B907D9F77A97A4
:1004F000C082D2923197DF019E01245230401C927B
:100500001197A217B307D9F79F0126503040E09109
:1005100005038BE0E89FF0011124E95FFC4F828224
:100520009382A482B582E682F7820087118782E0F7
:100530008287208331830E94CA00DF91CF911F916F
:100540000F91FF90EF90DF90CF90BF90AF909F9072
:100550008F900895F894E5E0F3E0E80FF11D60AFA7
:1005600078940895482F20910603F894E82FF0E03E
:10057000E35CFC4F8081882319F08150808310C098
:1005800030E08BE090E0289FF001299FF00D389F2C
:10059000F00D1124E95FFC4F4E5F42870E94CA00B4
:1005A00078940895FF920F931F93182FF894009159
:1005B0000503E1E04FEF5FEF6FEF7FEFF0E08BE0DF
:1005C000F82E212F30E02E5F3F4F1EC0EF9DD0014F
:1005D0001124A95FBC4F1A968C911A9790E082174C
:1005E000930769F416968D919D910D90BC91A02D65
:1005F000481759076A077B0710F0FE2F02C0DB017E
:10060000CA01EF5FAC01BD010E1700F7FF2341F4F3
:10061000E12FF0E0EC5FFC4F81AD8F5F81AF11C047
:100620002F2F30E08BE090E0289FF001299FF00D04
:10063000389FF00D1124EB5FFC4F81E084870E940E
:10064000CA0078941F910F91FF9008952091840023
:100650003091850040E050E080914703909148033D
:10066000A0914903B0914A03DC0199278827280FFC
:10067000391F4A1F5B1FB901CA010895E0910603A3
:10068000ABE0EA9FF0011124E95FFC4FF894A2E08F
:10069000A28762837383848395832683378340870D
:1006A00051870E94CA0008958091060390E02BE0D4
:1006B00030E0829FF001839FF00D929FF00D112496
:1006C000EB5FFC4FDF011496648111967C911197CA
:1006D00012968C91129713969C910895809106031F
:1006E00090E02BE030E0829FF001839FF00D929F1D
:1006F000F00D1124EB5FFC4FDF0118966085119619
:100700007C91119712968C91129713969C91089553
:10071000F8948091060390E02BE030E0829FF00196
:10072000839FF00D929FF00D1124EB5FFC4F148618
:100730000E94CA000895F894E82FF0E0E35CFC4FB3
:100740008081882319F0815080838F5F7894089589
:1007500087E68093C400E1ECF0E088E180831092AA
:10076000FD011092FC011092FF011092FE018081A8
:100770008068808308951F920F920FB60F920BB678
:100780000F9211242F933F938F939F93EF93FF9397
:100790002091FC013091FD018091FE019091FF01BB
:1007A0002817390731F48091C1008F7D8093C100F3
:1007B0001DC0E091FE01F091FF01E050FE4F8081ED
:1007C0008093C6008091FE019091FF010196909365
:1007D000FF018093FE018091FE019091FF01883C12
:1007E000910521F41092FF011092FE01FF91EF910B
:1007F0009F918F913F912F910F900BBE0F900FBE45
:100800000F901F9018951F93182F8A3019F48DE0C0
:100810000E9403048091FC019091FD018F5F883C50
:1008200009F480E0E091FC01F091FD01E050FE4F01
:100830001083282F30E08091FE019091FF0128174E
:100840003907C9F33093FD012093FC018091C10069
:1008500080628093C10080E090E01F9108951F9214
:100860000F920FB60F920BB60F9211242F933F9356
:100870004F935F936F937F938F939F93AF93BF93A8
:10088000EF93FF938091C60080934F0381E00E9415
:10089000D202FF91EF91BF91AF919F918F917F9184
:1008A0006F915F914F913F912F910F900BBE0F90E1
:1008B0000FBE0F901F901895EF92FF920F931F930A
:1008C000CF93DF937C018091AA019091AB01892B9A
:1008D00009F0A1C00CEA11E081E00E94B20280910F
:1008E000C00084FF03C02EEF3FEFA9C08091C0007D
:1008F00083FDA3C090914F039D3011F09A3081F495
:100900008AE0F8018083B7010E9403048CEA91E039
:100910009093AB018093AA0182E00E94D2027BC037
:10092000993009F490E2892F80528F3510F0903A77
:1009300070F0F1E00B3F1F0711F487E004C0F801ED
:1009400091938F01892FB7010E940304C5CF923183
:1009500039F1933138F4933009F46FC0983009F0CD
:10096000BBCF09C0973109F44BC09F3721F09531B7
:1009700009F0B2CF32C0F1E00C3A1F0709F008F4D9
:10098000ABCF88E0B7010E94030480E2B7010E9468
:10099000030488E0B7010E940304015010409CCF7B
:1009A0008DE0B7010E940304CCEAD1E004C0899134
:1009B000B7010E940304C017D107C8F38DCF88E0A8
:1009C000B7010E94030480E2B7010E94030488E09B
:1009D000B7010E9403040150104081E00C3A18074F
:1009E00009F068F779CF88E0B7010E94030480E23C
:1009F000B7010E94030488E0B7010E9403048E013E
:100A0000E1E00C3A1E0709F008F466CFE8018A918C
:100A1000803249F761CFE091AA01F091AB01819159
:100A2000F093AB01E093AA018A3021F41092AB015C
:100A30001092AA01282F30E002C02FEF3FEFC9012A
:100A4000DF91CF911F910F91FF90EF90089511B812
:100A500012B88FEF87B918B884B915B852985A9A56
:100A600008951092B000A1EBB0E01C92E0E7F0E036
:100A700010828081816080838C9186608C93089540
:100A800014BC15BC10926E0017BCE9E6F0E01082B1
:100A90001DBA808182608083E89A84B5836A84BDB0
:100AA00085B5836085BD08952F923F924F925F92E6
:100AB0006F927F928F929F92AF92BF92CF92DF926E
:100AC000EF92FF920F931F93CF93DF9388EE93E003
:100AD0009093E2028093E10280E090E0A0E2B1E432
:100AE0008093E8029093E902A093EA02B093EB02AC
:100AF00086E987BDCC24DD240091F0021091F1023B
:100B000087E00E94B2029801E3E0220F331FEA95CA
:100B1000E1F7201B310B442737FD4095542F60E748
:100B200078E389E390E00E946612CA01B9010E944D
:100B3000E50A0E94B20A7093E0026093DF0283E04C
:100B40000E94B202C091E102D091E2028091DF02E4
:100B50009091E002C81BD90B83E00E94D20287E08B
:100B60000E94D2021C161D0624F41C141D042CF035
:100B700007C0209729F0D7FE03C02C0E3D1E02C0EF
:100B80002224332484E00E94B2028090E8029090F4
:100B9000E902A090EA02B090EB0284E00E94D20247
:100BA00085E00E94B2024090EC025090ED0260900D
:100BB000EE027090EF0285E00E94D20286E00E9471
:100BC000B202E090E402F090E5020091E60210919A
:100BD000E70286E00E94D202CE018C199D096C01C9
:100BE000C801B7010E94B20AC69E8001C79E100DBF
:100BF000D69E100D1124C501B4010E94B20AC69FF1
:100C0000C001C79F900DD69F900D1124080F191F8A
:100C1000C301B2010E94B20A269EC001279E900D18
:100C2000369E900D1124800F911F8F3F910519F072
:100C300014F02FEF27BD97FD17BC8F3F910509F0EA
:100C400008F487BD6091DF027091E00280E090E0DF
:100C50000E94E30A2AE534E64BE55FE30E94490B74
:100C60000E94B70A68BD2091470330914803409124
:100C7000490350914A03A901332722276091840038
:100C800070918500E0908400F090850080E090E015
:100C9000620F731F841F951F64567F4F8F4F9F4FA6
:100CA00000E010E02E0D3F1D401F511F2F583D4FFB
:100CB0004F4F5F4F0E943E036E011ECF1F920F9257
:100CC0000FB60F920BB60F9211242F938F939F9311
:100CD000EF93FF93E2EBF0E020818091030390918A
:100CE0000403820F911D9093F1028093F002108211
:100CF0001092040310920303FF91EF919F918F9143
:100D00002F910F900BBE0F900FBE0F901F90189554
:100D10001F920F920FB60F9211248F939F93809181
:100D200003039091040380509F4F9093040380939A
:100D300003039F918F910F900FBE0F901F901895F6
:100D4000CF92DF92EF92FF920F931F930E94A8031E
:100D50006CE971E0709355036093540370935103F1
:100D600060935003709353036093520380E091E0CB
:100D70000E94140C8CE890E00E940E02F8941092ED
:100D80003E037894F89410923F037894F89481E0AD
:100D9000809340037894F894809341037894F89476
:100DA000809342037894F894809343037894F89462
:100DB0008093440378948FE197E068EE73E02CE928
:100DC00030E040E050E0AAE1EA2EA6E0FA2E012D44
:100DD000112DF8ECCF2EF2E0DF2E0E944C0284E5BC
:100DE00095E068EE73E02CE930E040E050E0EDE0A3
:100DF000EE2EE3E0FE2E012D112DBAECCB2EB2E04B
:100E0000DB2E0E944C0281E998E068EE73E02DE051
:100E100033E040E050E0A5E3EA2EACE0FA2E012DED
:100E2000112DFCECCF2EF2E0DF2E0E944C0283B796
:100E3000817F83BF83B7816083BF8895FECF2F9268
:100E40003F924F925F926F927F928F929F92AF925A
:100E5000BF92CF92DF92EF92FF920F931F93DF9397
:100E6000CF9300D000D000D0CDB7DEB723E0222E44
:100E7000312C2C0E3D1E2E010894411C511C90E17A
:100E8000692E91E0792E8BE2882E81E0982E06E47F
:100E9000A02E01E0B02E11E6C12E11E0D12E6091FE
:100EA0005203709153038EE390E00E94E80B8DB7DC
:100EB0009EB708970FB6F8949EBF0FBE8DBFEDB7D3
:100EC000FEB731968091500390915103ADB7BEB7F4
:100ED00012969C938E9311978AE091E0938382837C
:100EE00035822482578246820E943F0CADB7BEB73E
:100EF00018960FB6F894BEBF0FBEADBF8B81833777
:100F000059F583E00E94B20229813A81C901909388
:100F1000E2028093E10200D000D000D0EDB7FEB72E
:100F200031968091520390915303ADB7BEB712969C
:100F30009C938E93119773826282248335830E94DF
:100F4000D70B8DB79EB706960FB6F8949EBF0FBE0F
:100F50008DBF83E00E94D2028B818037A9F584E0A7
:100F60000E94B20209811A81B801882777FD809515
:100F7000982F0E94E50A6093E8027093E90280933B
:100F8000EA029093EB0200D000D000D0EDB7FEB79C
:100F900031968091520390915303ADB7BEB712962C
:100FA0009C938E93119793828282158304830E946F
:100FB000D70B8DB79EB706960FB6F8949EBF0FBE9F
:100FC0008DBF84E00E94D2028B818936A9F585E02D
:100FD0000E94B20209811A81B801882777FD8095A5
:100FE000982F0E94E50A6093EC027093ED028093C3
:100FF000EE029093EF0200D000D000D0EDB7FEB724
:1010000031968091520390915303ADB7BEB71296BB
:101010009C938E931197B382A282158304830E94BE
:10102000D70B8DB79EB706960FB6F8949EBF0FBE2E
:101030008DBF85E00E94D2028B818436A9F586E0BF
:101040000E94B20209811A81B801882777FD809534
:10105000982F0E94E50A6093E4027093E502809362
:10106000E6029093E70200D000D000D0EDB7FEB7C3
:1010700031968091520390915303ADB7BEB712964B
:101080009C938E931197D382C282158304830E940E
:10109000D70B8DB79EB706960FB6F8949EBF0FBEBE
:1010A0008DBF86E00E94D202209147033091480311
:1010B0004091490350914A03A901332722276091A7
:1010C000840070918500E0908400F090850080E0BD
:1010D00090E0620F731F841F951F665E794F8F4FDC
:1010E0009F4F00E010E02E0D3F1D401F511F215B60
:1010F0003D4E4F4F5F4F0E943E03D1CE0E94E2090A
:101100000E944A0A0E947B0980E060E00E949809E0
:101110008CE890E060E040E00E94A7091092E302B2
:101120000895AF92BF92CF92DF92EF92FF920F930A
:101130001F93CF93DF930E9431050E9440050E94C8
:101140007E080E942705CEECD2E0ECE7AE2EE1E06F
:10115000BE2E7CE8C72E71E0D72E83E00E94B2023B
:101160008091E1029091E20200D000D000D0EDB772
:10117000FEB73196ADB7BEB71296DC93CE931197FA
:10118000B382A282958384830E94500C8DB79EB750
:1011900006960FB6F8949EBF0FBE8DBF83E00E94E7
:1011A000D20280E060E00E949809FE0101900020D8
:1011B000E9F73197EE5CF240CE016E2F0E94830971
:1011C00087E00E94B20200D000D000D0EDB7FEB799
:1011D0003196ADB7BEB71296DC93CE931197D382FA
:1011E000C2828091DF029091E002958384830E9405
:1011F000500C8DB79EB706960FB6F8949EBF0FBEE3
:101200008DBF87E00E94D20280E061E00E949809D1
:10121000FE0101900020E9F73197EE5CF240CE012B
:101220006E2F0E948309209147033091480340911B
:10123000490350914A03A901332722276091840072
:1012400070918500E0908400F090850080E090E04F
:10125000620F731F841F951F665E794F8F4F9F4FDC
:1012600000E010E02E0D3F1D401F511F215B3D4E41
:101270004F4F5F4F0E943E0370CF282F207F28B929
:10128000409A429A20E43FE1F9013197F1F7429800
:101290004098F9013197F1F790E044E0880F991FE9
:1012A0004A95E1F788B9409A429AC9010197F1F746
:1012B00042984098C9010197F1F70895282F207F9F
:1012C00028B9429A20E43FE1F9013197F1F74298B9
:1012D000F9013197F1F790E054E0880F991F5A9582
:1012E000E1F788B9429AC9010197F1F74298C9011B
:1012F0000197F1F7089581E00E945E09089582E068
:101300000E945E0908950F931F93CF93DF93062FDA
:10131000009749F0EC0110E004C089910E943D095A
:101320001F5F1017D0F3DF91CF911F910F91089598
:10133000623031F0633031F0613029F4805C03C0F9
:101340008C5E01C08C5A80680E945E0908951F93CC
:10135000CF93DF93EC01862F642F0E94980910E051
:1013600003C00E943D091F5FFE01E10FF11D849142
:101370008823B9F7DF91CF911F910895EF92FF92E3
:101380000F931F93CF93DF937C01162F110F110F33
:10139000110F1064C0E0D0E0F701EC0FFD1F0491C5
:1013A000812F8C0F0E945E09802F0E943D0921969B
:1013B000C830D10589F7DF91CF911F910F91FF9030
:1013C000EF9008951F93CF93DF9380E69AEE0197F5
:1013D000F1F718B818B887B1806F87B987B18760FF
:1013E00087B980E388B9429A20E43FE1F901319757
:1013F000F1F74298F9013197F1F788B9429AC9019A
:101400000197F1F74298C9010197F1F780E288B995
:10141000429AC9010197F1F74298C9010197F1F782
:1014200088E20E945E098CE00E945E09C6E0D1E07D
:1014300060E0162F1F5FCE010E94BE092896612F23
:101440001830B9F7DF91CF911F9108950F931F9333
:10145000082F10E004C08EE10E945E091F5F101784
:10146000D0F31F910F9108950F931F93082F10E051
:1014700004C088E10E945E091F5F1017D0F31F911E
:101480000F9108958EE00E945E0908958FE00E94FA
:101490005E0908958CE00E945E09089588E00E942C
:1014A0005E0908958CE00E945E0908950F931F93D2
:1014B000082F10E004C080E10E945E091F5F101732
:1014C000D0F31F910F9108950F931F93082F10E0F1
:1014D00004C084E10E945E091F5F1017D0F31F91C2
:1014E0000F910895DF92EF92FF920F931F93CF9386
:1014F000DF93D42E96E0899FC0011124242F30E081
:10150000AC01429FC001439F900D529F900D11244A
:1015100070E00E945312EB01CB0166E070E00E9484
:101520003F12E82EFF2400E010E012C0C80105962B
:10153000C817D90710F085E006C0C017D10710F012
:101540008E2D01C080E00E943D09F3940A5F1F4F79
:10155000FD1460F3DF91CF911F910F91FF90EF90F9
:10156000DF90089504D06894B1118DC0089570D0B3
:1015700088F09F5790F0B92F9927B751A0F0D1F07C
:10158000660F771F881F991F1AF0BA95C9F712C006
:10159000B13081F077D0B1E0089574C0672F782F13
:1015A0008827B85F39F0B93FCCF386957795679572
:1015B000B395D9F73EF490958095709561957F4FDE
:1015C0008F4F9F4F0895E89409C097FB3EF4909584
:1015D0008095709561957F4F8F4F9F4F9923A9F00C
:1015E000F92F96E9BB279395F6958795779567959B
:1015F000B795F111F8CFFAF4BB0F11F460FF1BC0DF
:101600006F5F7F4F8F4F9F4F16C0882311F096E971
:1016100011C0772321F09EE8872F762F05C066231F
:1016200071F096E8862F70E060E02AF09A95660FD8
:10163000771F881FDAF7880F9695879597F9089591
:1016400057FD9058440F551F59F05F3F71F0479573
:10165000880F97FB991F61F09F3F79F08795089558
:10166000121613061406551FF2CF4695F1DF08C077
:10167000161617061806991FF1CF86957105610594
:1016800008940895E894BB2766277727CB0197F93C
:1016900008950BD078C069D028F06ED018F095234B
:1016A00009F05AC05FC01124EECFCADFA0F3959FA6
:1016B000D1F3950F50E0551F629FF001729FBB2739
:1016C000F00DB11D639FAA27F00DB11DAA1F649FE5
:1016D0006627B00DA11D661F829F2227B00DA11D98
:1016E000621F739FB00DA11D621F839FA00D611D1E
:1016F000221F749F3327A00D611D231F849F600D3F
:10170000211D822F762F6A2F11249F5750408AF077
:10171000E1F088234AF0EE0FFF1FBB1F661F771F03
:10172000881F91505040A9F79E3F510570F014C09A
:10173000AACF5F3FECF3983EDCF3869577956795EB
:10174000B795F795E7959F5FC1F7FE2B880F911D21
:101750009695879597F9089597F99F6780E870E0C7
:1017600060E008959FEF80EC089500240A94161617
:10177000170618060906089500240A94121613067F
:10178000140605060895092E0394000C11F488230D
:1017900052F0BB0F40F4BF2B11F460FF04C06F5F29
:1017A0007F4F8F4F9F4F0895F8940C94A312DF93AF
:1017B000CF93CDB7DEB79E01275F3F4F8D819E81CE
:1017C0006F817885A9010E94810CCF91DF910895E6
:1017D0000F931F93CF93DF938C01EB018B8181FFDC
:1017E0001BC082FF0DC02E813F818C819D812817F7
:1017F000390764F4E881F9810193F983E88306C02D
:10180000E885F985802F0995892B31F48E819F8198
:1018100001969F838E8302C00FEF1FEFC801DF91F7
:10182000CF911F910F910895EF92FF920F931F9305
:10183000CF93DF937C018B01DB0113968C9181FDAB
:1018400003C0CFEFDFEF13C0C0E0D0E00BC0D80182
:101850001896ED91FC911997B8010995892B11F013
:10186000CFEFDFEFF70181917F01882381F7CE0170
:10187000DF91CF911F910F91FF90EF900895DF932B
:10188000CF93CDB7DEB79E01275F3F4F8D819E81FD
:101890006F817885A9010E943610CF91DF9108955C
:1018A0000F931F93DF93CF93CDB7DEB72E970FB66D
:1018B000F894DEBF0FBECDBF0D891E8986E08C83F4
:1018C0001A8309838FEF9FE79E838D839E01275E96
:1018D0003F4FCE0101966F89788DA9010E94810C3E
:1018E0002F813885020F131FF80110822E960FB634
:1018F000F894DEBF0FBECDBFCF91DF911F910F9146
:1019000008952F923F924F925F926F927F928F92A3
:101910009F92AF92BF92CF92DF92EF92FF920F937E
:101920001F93DF93CF93CDB7DEB72B970FB6F89405
:10193000DEBF0FBECDBF3C012B015A01FC01178257
:101940001682838181FD03C06FEF7FEFC6C19AE0ED
:10195000892E1E010894211C311CF3012381F20100
:1019600023FD859123FF81912F01882309F4B2C1C2
:10197000853239F423FD859123FF81912F01853232
:1019800029F490E0B3010E94E80BE7CF982FFF24E1
:10199000EE249924FFE1FF15D0F09B3269F09C32D0
:1019A00028F4903259F0933291F40EC09D3249F0F0
:1019B000903369F441E024C052E0F52A84E0F82A2B
:1019C00028C098E0F92A25C0E0E1FE2A22C0F7FCF1
:1019D00029C0892F80538A3070F4F6FE05C0989C88
:1019E000902C1124980E15C0E89CE02C1124E80ED0
:1019F000F0E2FF2A0EC09E3229F4F6FC6BC140E4EF
:101A0000F42A07C09C3619F450E8F52A02C098362B
:101A100049F4F20123FD959123FF91912F01992320
:101A200009F0B8CF892F8554833018F08052833065
:101A300038F444E050E0A40EB51E5FE359830FC0B4
:101A4000933631F0933779F0933509F056C020C0C2
:101A5000F5018081898342E050E0A40EB51E61014A
:101A600001E010E012C0F501C080D180F6FC03C097
:101A70006FEF7FEF02C0692D70E042E050E0A40EEE
:101A8000B51EC6010E9477118C015FE7F52214C0D4
:101A9000F501C080D180F6FC03C06FEF7FEF02C07C
:101AA000692D70E042E050E0A40EB51EC6010E9410
:101AB0006C118C0150E8F52AF3FE07C01AC080E2D1
:101AC00090E0B3010E94E80BEA948E2D90E0081795
:101AD0001907A8F30EC0F601F7FC8591F7FE819176
:101AE0006F0190E0B3010E94E80BE110EA9401500D
:101AF00010400115110579F7EAC0943611F09936B6
:101B000069F5F7FE08C0F5012081318142815381DA
:101B100084E090E00AC0F501808191819C01442716
:101B200037FD4095542F82E090E0A80EB91E9FE645
:101B3000F92257FF09C050954095309521953F4FA8
:101B40004F4F5F4FE0E8FE2ACA01B901A1012AE028
:101B500030E00E94DE11D82ED21840C0953729F40B
:101B60001F2D1F7E2AE030E01DC01F2D197F9F36DC
:101B700061F0903720F4983509F0ACC00FC0903771
:101B800039F0983709F0A6C004C028E030E00AC058
:101B9000106114FD146020E130E004C014FD1660F3
:101BA00020E132E017FF08C0F50160817181828178
:101BB000938144E050E008C0F50180819181BC012F
:101BC00080E090E042E050E0A40EB51EA1010E942A
:101BD000DE11D82ED2188FE7F82EF122F6FE0BC0B8
:101BE0005EEFF522D91438F4F4FE07C0F2FC05C00C
:101BF0008FEEF82202C01D2D01C0192DF4FE0DC07C
:101C0000FE01ED0DF11D8081803319F499EEF9226A
:101C100008C01F5FF2FE05C003C08F2D867809F053
:101C20001F5F0F2DF3FC14C0F0FE0FC01E1510F047
:101C30009D2C0BC09D2C9E0C911A1E2D06C080E27F
:101C400090E0B3010E94E80B1F5F1E15C0F304C0B3
:101C50001E1510F4E11A01C0EE2404FF0FC080E34A
:101C600090E0B3010E94E80B02FF1DC001FD03C01C
:101C700088E790E00EC088E590E00BC0802F867862
:101C800091F001FF02C08BE201C080E2F7FC8DE21F
:101C900090E0B3010E94E80B06C080E390E0B3013E
:101CA0000E94E80B9A94D914C0F3DA94F101ED0D77
:101CB000F11D808190E0B3010E94E80BDD20A9F7BF
:101CC00006C080E290E0B3010E94E80BEA94EE20A7
:101CD000C1F743CEF30166817781CB012B960FB616
:101CE000F894DEBF0FBECDBFCF91DF911F910F9152
:101CF000FF90EF90DF90CF90BF90AF909F908F902C
:101D00007F906F905F904F903F902F900895FC01CF
:101D100020FD08C023FD05C022FF02C0738362833B
:101D2000518340830895EF92FF920F931F9344FFD6
:101D300002C033E011C046FF02C034E00DC0DB0139
:101D4000FC01AA0FBB1FEE1FFF1F1094D1F76A0FF3
:101D50007B1F8E1F9F1F31E0660F771F881F991F03
:101D60003150D1F77B018C01E20EF11C011D111DD8
:101D7000A8019701B701CA011F910F91FF90EF9041
:101D800008950F931F93CF93DF938C01C8010E9496
:101D90008211EC0197FD08C00E945911892BB1F7FF
:101DA000CE01B8010E94C411CE01DF91CF911F91E5
:101DB0000F910895AF92BF92CF92DF92EF92FF9270
:101DC0000F931F93CF93DF93EC01C62E5A01122F6E
:101DD0000E948211AC018B3219F08D3251F41068DF
:101DE000CA9409F46DC0CE010E948211AC0197FD26
:101DF00067C06DEFD62ED1228D2D807301F5403353
:101E0000F1F4CA9409F447C0CE010E948211AC01DA
:101E100097FD41C082E0D82A483711F0483559F47F
:101E200080E4D82ACA94B9F1CE010E948211AC0193
:101E300099232CF430C0D6FC02C080E1D82AEE24CD
:101E4000FF248701242F2053283088F0D4FC09C0B8
:101E50002A3068F0D6FE05C02F7D822F8151863052
:101E600028F0CA01BE010E94C41112C02750C80147
:101E7000B7014D2D0E94930E7B018C0182E0D82A80
:101E8000CA9461F0CE010E948211AC0197FFDACFB3
:101E9000D1FC04C015C0EE24FF248701D7FE08C082
:101EA00010950095F094E094E11CF11C011D111DAA
:101EB000C501B801A7012D2D0E94870E81E001C048
:101EC00080E0DF91CF911F910F91FF90EF90DF9015
:101ED000CF90BF90AF9008956F927F928F929F9214
:101EE000AF92BF92CF92DF92EF92FF920F931F9328
:101EF000DF93CF93CDB7DEB7A0970FB6F894DEBFD0
:101F00000FBECDBF6C01A62E8A017901FE0131966C
:101F100080E2DF011D928A95E9F770E030E060E031
:101F200040E050E04F01A1E0B0E0F6018381F7010D
:101F300083FD259183FF21917F01222309F47EC037
:101F40002E3519F44115510569F1872F90E084175A
:101F5000950744F42D3551F12D3221F4332329F422
:101F600031E021C0332309F4622F322F832F86956D
:101F700086958695F401E80FF11D832F87703D014A
:101F800002C0660C771C8A95E2F7208126292083FF
:101F9000361711F430E007C0361710F43F5FE6CF74
:101FA0003150E4CF71E04F5F5F4FBFCF332319F063
:101FB0008E8180628E83772359F0FE0131969E01D7
:101FC0002F5D3F4F808180958193E217F307D1F712
:101FD000BB24B3944E010894811C911CC6010E943D
:101FE0008211AC0197FD22C0869586958695F401F5
:101FF000E80FF11D808190E09A012770307002C0D7
:10200000959587952A95E2F780FD05C0CA01B6012E
:102010000E94C4110BC00115110519F0D8014D9390
:102020008D01AA94BB24AA20C9F602C0BB2031F4BA
:102030000115110529F0F801108202C0EE24FF24D9
:10204000C701A0960FB6F894DEBF0FBECDBFCF91EB
:10205000DF911F910F91FF90EF90DF90CF90BF9095
:10206000AF909F908F907F906F9008956F927F9226
:102070008F929F92AF92BF92CF92DF92EF92FF9298
:102080000F931F93CF93DF935C016B013A01FC0127
:10209000178216828824EAC0812F90E00E9459118D
:1020A000892B21F0C5010E94C10EE0C0153249F410
:1020B000F601F3FC6591F3FE61916F01653269F4FD
:1020C00015E2C5010E94821197FDDCC0181709F4C2
:1020D000CDC0B5010E94C411DAC06A3219F0162FC2
:1020E00000E006C0F3FC1591F3FE11916F0101E0D1
:1020F00099240FC00260692D70E080E090E040E21A
:102100000E94930E962EF601F3FC1591F3FE1191A9
:102110006F01212F20532A3068F301FD03C0992459
:102120009A9403C0992009F4B2C0183621F01C36E5
:1021300099F4F6010BC0F601F3FC6591F3FE619191
:10214000683619F06F01162F07C008600460F3FCB1
:102150001591F3FE11916F01112309F498C086E4E3
:1021600091E0612F70E00E946111892B09F48FC00A
:10217000802F00FF03C0EE24FF2407C0F301E0809E
:10218000F18022E030E0620E731E1E3651F4F5013C
:102190004681578160E070E0C701202F0E94870EC2
:1021A00065C0133691F481FD02C099249394C50152
:1021B0000E94821197FD66C0E114F10419F0F70145
:1021C00081937F019A9499F74FC01B3559F4C5014B
:1021D000692DA70196010E946C0F6C01009709F010
:1021E00043C03DC0C5010E94C10E97FD4BC01F36C4
:1021F00059F1103728F4143629F1193639F527C06A
:10220000133719F0153711F51DC0C5010E94821151
:10221000EC0197FD11C00E945911892B29F0CE01C4
:10222000B5010E94C41108C0E114F10419F0F701CE
:10223000C1937F019A9449F7E114F104A9F0F701E1
:10224000108212C0006203C0006101C00064C501B9
:10225000692DA701202F0E94DA0E882329F4F501A9
:102260008381807379F413C000FF8394F501F380B8
:10227000F601F3FC1591F3FE11916F01112309F0A2
:102280000BCF05C0882019F42FEF3FEF02C0282D97
:1022900030E0C901DF91CF911F910F91FF90EF9036
:1022A000DF90CF90BF90AF909F908F907F906F9076
:1022B00008959111E1C0803219F089508550D0F70E
:1022C0000895FC010590061621F00020D9F7C00101
:1022D00008953197CF010895FC0105906150704039
:1022E0000110D8F7809590958E0F9F1F0895FC01DF
:1022F0006150704001900110D8F7809590958E0F35
:102300009F1F0895CF93DF93EC014B8140FF1AC0CC
:1023100046FF0AC04F7B4B838E819F8101969F832E
:102320008E838A81282F2BC042FF13C0E881F98158
:102330008081282F332727FD30952115310529F479
:1023400040624B832FEF3FEF1BC03196F983E88348
:1023500011C0EA85FB85CE0109959C0197FF0AC053
:102360009B812F5F3F4F11F080E201C080E1892BFC
:102370008B83E8CF8E819F8101969F838E8330E08F
:10238000C901DF91CF9108959C01FB01838180FFFA
:1023900011C086FD0FC09FEF2F3F390759F02283F0
:1023A00080648F7D8383868197810197978386835D
:1023B00030E002C02FEF3FEFC9010895FA01AA27CC
:1023C000283051F1203181F1E8946F936E7F6E5F78
:1023D0007F4F8F4F9F4FAF4FB1E03ED0B4E03CD026
:1023E000670F781F891F9A1FA11D680F791F8A1F09
:1023F000911DA11D6A0F711D811D911DA11D20D070
:1024000009F468943F912AE0269F11243019305D29
:102410003193DEF6CF010895462F4770405D41931A
:10242000B3E00FD0C9F7F6CF462F4F70405D4A3367
:1024300018F0495D31FD4052419302D0A9F7EACF2F
:10244000B4E0A6959795879577956795BA95C9F75E
:1024500000976105710508959B01AC010A2E069451
:102460005795479537952795BA95C9F7620F731F0A
:10247000841F951FA01D0895992788270895AA1BDA
:10248000BB1B51E107C0AA1FBB1FA617B70710F05F
:10249000A61BB70B881F991F5A95A9F78095909591
:1024A000BC01CD01089597FB092E07260AD077FDC0
:1024B00004D0E5DF06D000201AF4709561957F4FB7
:1024C0000895F6F7909581959F4F089597FB092EF3
:1024D00005260ED057FD04D014D00AD0001C38F4C5
:1024E00050954095309521953F4F4F4F5F4F089540
:1024F000F6F790958095709561957F4F8F4F9F4F20
:102500000895A1E21A2EAA1BBB1BFD010DC0AA1F34
:10251000BB1FEE1FFF1FA217B307E407F50720F04C
:10252000A21BB30BE40BF50B661F771F881F991FC7
:102530001A9469F760957095809590959B01AC0110
:0A254000BD01CF010895F894FFCF0C
:10254A000A0D2048690A0D0A0D002573202564002A
:10255A0076616C7565206F662073206368616E67AB
:10256A00656420746F2025640A0A0076616C7565BB
:10257A00206F662070206368616E67656420746FDF
:10258A002025640A0A0076616C7565206F662069E9
:10259A00206368616E67656420746F2025640A0A87
:1025AA000076616C7565206F662064206368616ED1
:1025BA0067656420746F2025640A0A00696E707565
:1025CA00742052504D3A20252D69200066616E20F4
:1025DA0052504D3A20252D6920202000000000038A
:0A25EA000000000003045C04000080
:00000001FF
