:100000000C944B010C94AA070C946A010C946A019D
:100010000C946A010C946A010C946A010C946A01B4
:100020000C946A010C946A010C946A010C94D40734
:100030000C946A010C946C010C946A010C946A0192
:100040000C946A010C946A010C946A010C946A0184
:100050000C94D1040C945D040C946A010C946A0114
:100060000C946A010C946A010C946A010C946A0164
:100070000C946A010C946A010C946A010C946A0154
:100080000C946A010C946A010C946A016E616E0012
:10009000696E66006364696E6F70737578585B652E
:1000A000666745464700616E006E66696E697479E1
:1000B00000CDCCCC3D0AD7233C17B7D13877CC2B19
:1000C000329595E6241FB14F0A000020410000C878
:1000D0004200401C4620BCBE4CCA1B0E5AAEC59DF9
:1000E000744C434420496E697469616C6920202016
:1000F0002000004275727374204672657175656EDA
:1001000063793A0000436869727020496E746572C1
:1001100076616C3A2000004E756D2053796C6C61ED
:10012000626C65733A2000004475722053796C6CE0
:1001300061626C65733A20000052707420696E74BD
:10014000657276616C3A20000043686972702C20F9
:100150004368697270200000200000001F0000004A
:10016000001F00001F101010101F00001F1818188B
:10017000181F00001F1C1C1C1C1F00001F1E1E1E21
:100180001E1F00001F1F1F1F1F1F0003070F1F0F31
:10019000070300181C1E1F1E1C180000407A10F3D5
:1001A0005A00A0724E18090010A5D4E80000E876A5
:1001B00048170000E40B54020000CA9A3B000000FC
:1001C000E1F505000080969800000040420F000015
:1001D00000A08601000000102700000000E80300D6
:1001E0000000006400000000000A000000000001A0
:1001F00000000000002C76D888DC674F0823DFC1A0
:10020000DFAE59E1B1B796E5E3E453C63AE651995A
:100210007696E8E6C28426EB898C9B62ED407C6F83
:10022000FCEFBC9C9F40F2BAA56FA5F490055A2A3A
:10023000F75C936B6CF9676DC11BFCE0E40D47FE46
:10024000F520E6B500D0ED902E030094357705003B
:1002500080841E080000204E0A000000C80C3333C2
:1002600033330F986E12831141EF8D2114893BE6D1
:100270005516CFFEE6DB18D1844B381BF77C1D905A
:100280001DA4BBE424203284725E228100C9F124C3
:10029000ECA1E53D270011241FBECFEFD0E4DEBF67
:1002A000CDBF11E0A0E0B1E0EAE3F1E300E00BBF75
:1002B00002C007900D92A23BB107D9F713E0A2EB61
:1002C000B1E001C01D92A036B107E1F70E94EC0732
:1002D0000C94C4150C9400001F920F920FB60F924D
:1002E0000BB60F9211242F923F924F925F926F9212
:1002F0007F928F929F92AF92BF92CF92DF92EF92B6
:10030000FF920F931F932F933F934F935F936F939E
:100310007F938F939F93AF93BF93CF93DF93EF938D
:10032000FF9310926F0050901003B09B14C0809107
:10033000510390915203A0915303B091540301963D
:10034000A11DB11D8093510390935203A0935303B9
:10035000B0935403B09A80918400909185003C0141
:10036000882499248091510390915203A0915303C2
:10037000B0915403DC0199278827680E791E8A1EE4
:100380009B1E40900F0370E061E0FFEFAF2EFFEF88
:10039000BF2EFFEFCF2EFFE7DF2EEBE02E2E332414
:1003A0003394CBE0D0E043C0629DD0011124AF5E16
:1003B000BC4F1A968C911A978230A1F41296ED9048
:1003C000FD900D911C9115976E147F048006910687
:1003D00020F01A963C921A9705C0EA14FB040C050B
:1003E0001D0510F0860175011A968C911A978130BF
:1003F000D9F4872F90E08C9FF0018D9FF00D9C9F8A
:10040000F00D1124E15FFC4F16962D913D914D9119
:100410005C91199780859185A285B3852817390746
:100420004A075B0708F4762F6F5F5701680146168D
:1004300008F0BACF7515B1F0EBE05E9ED001112443
:10044000AF5EBC4F8DB78C938EB711968C937E9F09
:10045000F0011124EF5EFC4F81818EBF80818DBF42
:1004600070931003A0925503B0925603C0925703A5
:10047000D0925803209184003091850040E050E0F4
:100480008091510390915203A0915303B091540372
:10049000DC0199278827280F391F4A1F5B1FD601C7
:1004A000C501821B930BA40BB50B9C01AD018430DD
:1004B0009105A105B10524F424E030E040E050E0CE
:1004C0008091840090918500A0E0B0E0820F931F9E
:1004D000A41FB51F80509040A140B04038F48091D7
:1004E000840090918500820F931F0EC0809184003C
:1004F000909185008C5F9F4F28F410928900109294
:10050000880006C084E090E0909389008093880082
:1005100082E080936F00FF91EF91DF91CF91BF91C7
:10052000AF919F918F917F916F915F914F913F918B
:100530002F911F910F91FF90EF90DF90CF90BF9080
:10054000AF909F908F907F906F905F904F903F9073
:100550002F900F900BBE0F900FBE0F901F9018950D
:1005600010928500109284001092800025E0209364
:10057000810022E020936F002FEF30E4281B390B1D
:100580003093500320934F0310920F0310921003E7
:10059000109251031092520310925303109254037D
:1005A0008FEF9FEFAFEFBFE7809355039093560314
:1005B000A0935703B09358038093170390931803A5
:1005C000A0931903B0931A0310921303109214030B
:1005D0001092150310921603789408958F929F92AB
:1005E000AF92BF92CF92DF92EF92FF920F931F9341
:1005F000CF93DF9349015A01F89420910F032F5FA5
:1006000020930F03C0914F03D09150039E01261BEE
:10061000370B3093500320934F038883FE0192934E
:100620003197DF01CE014C971C921197A817B9079B
:10063000D9F77A97C082D2923197DF019E01245276
:1006400030401C921197A217B307D9F79F0126508B
:100650003040E0910F038BE0E89FF0011124EF5E42
:10066000FC4F82829382A482B582E682F782008761
:10067000118782E08287208331830E946C01DF91A1
:10068000CF911F910F91FF90EF90DF90CF90BF908F
:10069000AF909F908F900895F894EFE0F3E0E80F0B
:1006A000F11D60AF78940895482F20911003F894BD
:1006B000E82FF0E0E95BFC4F8081882319F081503E
:1006C000808310C030E08BE090E0289FF001299FEC
:1006D000F00D389FF00D1124EF5EFC4F4E5F428706
:1006E0000E946C0178940895FF920F931F93182F26
:1006F000F89400910F03E1E04FEF5FEF6FEF7FEFB2
:10070000F0E08BE0F82E212F30E02E5F3F4F1EC02F
:10071000EF9DD0011124AF5EBC4F1A968C911A97B1
:1007200090E08217930769F416968D919D910D9034
:10073000BC91A02D481759076A077B0710F0FE2FC0
:1007400002C0DB01CA01EF5FAC01BD010E1700F76B
:10075000FF2341F4E12FF0E0E25FFC4F81AD8F5FBA
:1007600081AF11C02F2F30E08BE090E0289FF00187
:10077000299FF00D389FF00D1124E15FFC4F81E0BF
:1007800084870E946C0178941F910F91FF900895C7
:10079000209184003091850040E050E08091510329
:1007A00090915203A0915303B0915403DC01992717
:1007B0008827280F391F4A1F5B1FB901CA010895F6
:1007C000E0911003ABE0EA9FF0011124EF5EFC4FD3
:1007D000F894A2E0A287628373838483958326833F
:1007E0003783408751870E946C01089580911003E0
:1007F00090E02BE030E0829FF001839FF00D929F0C
:10080000F00D1124E15FFC4FDF0114966481119615
:100810007C91119712968C91129713969C91089542
:100820008091100390E02BE030E0829FF001839FE5
:10083000F00D929FF00D1124E15FFC4FDF0118963F
:10084000608511967C91119712968C911297139650
:100850009C910895F8948091100390E02BE030E093
:10086000829FF001839FF00D929FF00D1124E15FB4
:10087000FC4F14860E946C010895F894E82FF0E074
:10088000E95BFC4F8081882319F0815080838F5F62
:100890007894089587E68093C400E1ECF0E088E165
:1008A00080831092050210920402109207021092A7
:1008B000060280818068808308951F920F920FB690
:1008C0000F920BB60F9211242F933F938F939F9308
:1008D000EF93FF932091040230910502809106026C
:1008E000909107022817390731F48091C1008F7D5C
:1008F0008093C1001DC0E0910602F0910702E85FFD
:10090000FD4F80818093C60080910602909107027E
:1009100001969093070280930602809106029091BF
:100920000702883C910521F41092070210920602FA
:10093000FF91EF919F918F913F912F910F900BBE5F
:100940000F900FBE0F901F9018951F93182F8A308D
:1009500019F48DE00E94A504809104029091050293
:100960008F5F883C09F480E0E0910402F091050279
:10097000E85FFD4F1083282F30E0809106029091B0
:10098000070228173907C9F33093050220930402A0
:100990008091C10080628093C10080E090E01F914F
:1009A00008951F920F920FB60F920BB60F9211245B
:1009B0002F933F934F935F936F937F938F939F9367
:1009C000AF93BF93EF93FF938091C6008093590339
:1009D00081E00E947403FF91EF91BF91AF919F91CD
:1009E0008F917F916F915F914F913F912F910F90D8
:1009F0000BBE0F900FBE0F901F901895EF92FF92B5
:100A00000F931F93CF93DF937C018091B20190915C
:100A1000B301892B09F0A1C004EB11E081E00E9431
:100A200054038091C00084FF03C02EEF3FEFA9C0A4
:100A30008091C00083FDA3C0909159039D3011F0B7
:100A40009A3081F48AE0F8018083B7010E94A504FE
:100A500084EB91E09093B3018093B20182E00E9415
:100A600074037BC0993009F490E2892F80528F354E
:100A700010F0903A70F0F2E003301F0711F487E0B5
:100A800004C0F80191938F01892FB7010E94A5043A
:100A9000C5CF923139F1933138F4933009F46FC0F6
:100AA000983009F0BBCF09C0973109F44BC09F378C
:100AB00021F0953109F0B2CF32C0F1E0043B1F07BD
:100AC00009F008F4ABCF88E0B7010E94A50480E2EA
:100AD000B7010E94A50488E0B7010E94A504015057
:100AE00010409CCF8DE0B7010E94A504C4EBD1E07B
:100AF00004C08991B7010E94A504C017D107C8F3AB
:100B00008DCF88E0B7010E94A50480E2B7010E9462
:100B1000A50488E0B7010E94A5040150104081E0BF
:100B2000043B180709F068F779CF88E0B7010E9405
:100B3000A50480E2B7010E94A50488E0B7010E94E5
:100B4000A5048E01E1E0043B1E0709F008F466CF1E
:100B5000E8018A91803249F761CFE091B201F091CA
:100B6000B3018191F093B301E093B2018A3021F493
:100B70001092B3011092B201282F30E002C02FEF83
:100B80003FEFC901DF91CF911F910F91FF90EF903F
:100B9000089511B812B88FEF87B918B884B915B88D
:100BA00052985A9A08951092B000A1EBB0E01C92AE
:100BB000E0E7F0E010828081816080838C91866024
:100BC0008C93089514BC15BC10926E0017BCE9E616
:100BD000F0E010821DBA808182608083E89A84B53B
:100BE000836A84BD85B5836085BD08952F923F9249
:100BF0004F925F926F927F928F929F92AF92BF922D
:100C0000CF92DF92EF92FF920F931F93DF93CF93D8
:100C100000D000D000D0CDB7DEB780E090E0AAE7EA
:100C2000B4E48093E9029093EA02A093EB02B093BC
:100C3000EC0280E090E0A0E8B0E48093F2029093B0
:100C4000F302A093F402B093F50280E090E0A0E8F4
:100C5000BEE38093F6029093F702A093F802B0935C
:100C6000F9028AE999E9A9E9BEE38093EE0290933B
:100C7000EF02A093F002B093F10286E987BD44240D
:100C800055248091FA029091FB029C01E3E0220F2F
:100C9000331FEA95E1F7281B390B442737FD4095B0
:100CA000542F60E778E389E390E00E945E18CA0160
:100CB000B9010E94131469837A838B839C8387E034
:100CC0000E94540369817A818B819C810E946B15FB
:100CD0007093E8026093E70283E00E9454036091FE
:100CE000E9027091EA028091EB029091EC020E947D
:100CF0006B158091E7029091E8029B01281B390B4C
:100D00003E832D8383E00E94740387E00E94740376
:100D10008D819E811816190624F4141415043CF0D4
:100D20000BC0ED81FE81EF2B39F057FE05C02D8100
:100D30003E81220E331E02C02224332484E00E940E
:100D4000540385E00E94540386E00E945403E0901F
:100D5000F602F090F7020091F8021091F902B10149
:100D6000882777FD8095982F0E9413145B016C01F2
:100D7000C801B701A60195010E944E1420E030E0A1
:100D800048E452E40E94C015181644F08091F6021F
:100D90009091F702A091F802B091F9026091F602E9
:100DA0007091F7028091F8029091F902A6019501E5
:100DB0000E944E1420E030E048E452EC0E94671597
:100DC00088235CF40F2EF0E06F2EF0E07F2EF8E425
:100DD0008F2EF2EC9F2EF02D0EC06091F6027091D6
:100DE000F7028091F8029091F902A60195010E9404
:100DF0004E143B014C01E090F202F090F30200919E
:100E0000F4021091F502A090EE02B090EF02C090B3
:100E1000F002D090F102ED81FE81BF01882777FDBD
:100E20008095982F0E9413149B01AC01C801B70153
:100E30000E944E147B018C016D817E8164197509BD
:100E4000882777FD8095982F0E9413149B01AC0191
:100E5000C601B5010E944E149B01AC01C801B70147
:100E60000E940315A40193010E9403157B018C01CC
:100E700084E00E94740385E00E94740386E00E946F
:100E80007403C801B70120E030E04FE753E40E944B
:100E9000C015181614F4FFEFF7BDC801B70120E024
:100EA00030E040E050E00E94671588230CF417BC46
:100EB000C801B70120E030E04FE753E40E94671516
:100EC00018167CF0C801B70120E030E040E050E0A7
:100ED0000E94C01588232CF0C801B7010E9470152C
:100EE00067BD69817A818B819C8124EC31EB4EEA6C
:100EF0005DE30E944E140E94701568BD209151035D
:100F0000309152034091530350915403A901332768
:100F100022276091840070918500E0908400F09019
:100F2000850080E090E0620F731F841F951F645658
:100F30007F4F8F4F9F4F00E010E02E0D3F1D401F51
:100F4000511F2F583D4F4F4F5F4F0E94E0034D8080
:100F50005E8097CE1F920F920FB60F920BB60F9234
:100F600011242F938F939F93EF93FF93E2EBF0E085
:100F7000208180910D0390910E03820F911D90931B
:100F8000FB028093FA02108210920E0310920D035E
:100F9000FF91EF919F918F912F910F900BBE0F902A
:100FA0000FBE0F901F9018951F920F920FB60F92C1
:100FB00011248F939F9380910D0390910E03805085
:100FC0009F4F90930E0380930D039F918F910F90ED
:100FD0000FBE0F901F901895CF92DF92EF92FF9265
:100FE0000F931F930E944A0464EA71E070935F03B9
:100FF00060935E0370935B0360935A0370935D0389
:1010000060935C0380E091E00E944F178CE890E0D1
:101010000E94B002F894109248037894F8941092C9
:1010200049037894F89481E080934A037894F89483
:1010300080934B037894F89480934C037894F894BD
:1010400080934D037894F89480934E0378948BE6C4
:1010500098E068EE73E02CE930E040E050E0AAE16F
:10106000EA2EA6E0FA2E012D112DF0EDCF2EF2E0A2
:10107000DF2E0E94EE0286EF95E068EE73E02CE929
:1010800030E040E050E0EDE0EE2EE3E0FE2E012DFA
:10109000112DB2EDCB2EB2E0DB2E0E94EE028FEED0
:1010A00099E068EE73E02DE033E040E050E0A5E326
:1010B000EA2EACE0FA2E012D112DF4EDCF2EF2E048
:1010C000DF2E0E94EE0283B7817F83BF83B78160EA
:1010D00083BF8895FECF2F923F924F925F926F927F
:1010E0007F928F929F92AF92BF92CF92DF92EF92B8
:1010F000FF920F931F93DF93CF93CDB7DEB728975F
:101100000FB6F894DEBF0FBECDBF25E0222E312CE6
:101110002C0E3D1E2E010894411C511C90E1692E9D
:1011200091E0792E8DE2882E81E0982E0AE4A02E9F
:1011300001E0B02E17E6C12E11E0D12E60915C03C4
:1011400070915D038EE390E00E9423172DB73EB7A8
:10115000285030400FB6F8943EBF0FBE2DBFEDB7FC
:10116000FEB7319680915A0390915B03ADB7BEB73D
:1011700012969C938E9311972AE031E03383228359
:1011800035822482578246820E947A178DB79EB795
:1011900008960FB6F8949EBF0FBE8DBF8D81833722
:1011A000B1F583E00E94540389819A81AB81BC81AF
:1011B0008093E9029093EA02A093EB02B093EC02D1
:1011C000EDB7FEB738970FB6F894FEBF0FBEEDBF70
:1011D0004DB75EB74F5F5F4F20915C0330915D0369
:1011E00032832183FA017382628284839583A6838A
:1011F000B7830E9412172DB73EB7285F3F4F0FB637
:10120000F8943EBF0FBE2DBF83E00E9474038D8112
:101210008037B1F584E00E94540389819A81AB81C3
:10122000BC818093F2029093F302A093F402B093F6
:10123000F502EDB7FEB738970FB6F894FEBF0FBEB4
:10124000EDBF4DB75EB74F5F5F4F20915C033091AC
:101250005D0332832183FA019382828284839583A2
:10126000A683B7830E9412172DB73EB7285F3F4F62
:101270000FB6F8943EBF0FBE2DBF84E00E947403EA
:101280008D818936B1F585E00E94540389819A8168
:10129000AB81BC818093F6029093F702A093F80291
:1012A000B093F902EDB7FEB738970FB6F894FEBFCA
:1012B0000FBEEDBF4DB75EB74F5F5F4F20915C0330
:1012C00030915D0332832183FA01B382A282848349
:1012D0009583A683B7830E9412172DB73EB7285F68
:1012E0003F4F0FB6F8943EBF0FBE2DBF85E00E9462
:1012F00074038D818436B1F586E00E9454038981A0
:101300009A81AB81BC818093EE029093EF02A0930F
:10131000F002B093F102EDB7FEB738970FB6F8942C
:10132000FEBF0FBEEDBF4DB75EB74F5F5F4F209161
:101330005C0330915D0332832183FA01D382C28240
:1013400084839583A683B7830E9412172DB73EB777
:10135000285F3F4F0FB6F8943EBF0FBE2DBF86E00B
:101360000E94740320915103309152034091530322
:1013700050915403A9013327222760918400709172
:101380008500E0908400F090850080E090E0620F9E
:10139000731F841F951F665E794F8F4F9F4F00E02C
:1013A00010E02E0D3F1D401F511F215B3D4E4F4F42
:1013B0005F4F0E94E003C2CE0E944B0B0E94B30B12
:1013C0000E94E40A80E060E00E94010B81EE90E060
:1013D00060E040E00E94100B1092ED020895AF9281
:1013E000BF92CF92DF92EF92FF920F931F93CF9312
:1013F000DF930E94D3050E94E2050E94DC090E944F
:10140000C905C6EDD2E0E4E8AE2EE1E0BE2E74E9F7
:10141000C72E71E0D72E83E00E9454036091E90249
:101420007091EA028091EB029091EC0200D000D022
:1014300000D00DB71EB70F5F1F4FADB7BEB71296E6
:10144000DC93CE931197F801B382A2820E946B15B0
:10145000D80115967C936E9314970E948B17EDB765
:10146000FEB736960FB6F894FEBF0FBEEDBF83E011
:101470000E94740380E060E00E94010BFE01019075
:101480000020E9F73197E65DF240CE016E2F0E9411
:10149000EC0A87E00E94540300D000D000D0EDB7E2
:1014A000FEB73196ADB7BEB71296DC93CE931197C7
:1014B000D382C2828091E7029091E802958384836F
:1014C0000E948B17EDB7FEB736960FB6F894FEBFA5
:1014D0000FBEEDBF87E00E94740380E061E00E94D0
:1014E000010BFE0101900020E9F73197E65DF24023
:1014F000CE016E2F0E94EC0A2091510330915203CD
:101500004091530350915403A9013327222760913E
:10151000840070918500E0908400F090850080E068
:1015200090E0620F731F841F951F665E794F8F4F87
:101530009F4F00E010E02E0D3F1D401F511F215B0B
:101540003D4E4F4F5F4F0E94E00365CF282F207F15
:1015500028B9409A429A20E43FE1F9013197F1F726
:1015600042984098F9013197F1F790E044E0880FF4
:10157000991F4A95E1F788B9409A429AC9010197A3
:10158000F1F742984098C9010197F1F70895282F83
:10159000207F28B9429A20E43FE1F9013197F1F721
:1015A0004298F9013197F1F790E054E0880F991FC4
:1015B0005A95E1F788B9429AC9010197F1F7429823
:1015C000C9010197F1F7089581E00E94C70A0895C3
:1015D00082E00E94C70A08950F931F93CF93DF9371
:1015E000062F009749F0EC0110E004C089910E9499
:1015F000A60A1F5F1017D0F3DF91CF911F910F91B3
:101600000895623031F0633031F0613029F4805C4C
:1016100003C08C5E01C08C5A80680E94C70A08957E
:101620001F93CF93DF93EC01862F642F0E94010B51
:1016300010E003C00E94A60A1F5FFE01E10FF11D2A
:1016400084918823B9F7DF91CF911F910895EF928C
:10165000FF920F931F93CF93DF937C01162F110FEF
:10166000110F110F1064C0E0D0E0F701EC0FFD1F67
:101670000491812F8C0F0E94C70A802F0E94A60A16
:101680002196C830D10589F7DF91CF911F910F9135
:10169000FF90EF9008951F93CF93DF9380E69AEE2B
:1016A0000197F1F718B818B887B1806F87B987B17B
:1016B000876087B980E388B9429A20E43FE1F90165
:1016C0003197F1F74298F9013197F1F788B9429AC9
:1016D000C9010197F1F74298C9010197F1F780E23A
:1016E00088B9429AC9010197F1F74298C901019757
:1016F000F1F788E20E94C70A8CE00E94C70ACBE596
:10170000D1E060E0162F1F5FCE010E94270B2896C4
:10171000612F1830B9F7DF91CF911F9108950F9382
:101720001F93082F10E004C08EE10E94C70A1F5FBC
:101730001017D0F31F910F9108950F931F93082F47
:1017400010E004C088E10E94C70A1F5F1017D0F3A1
:101750001F910F9108958EE00E94C70A08958FE0AF
:101760000E94C70A08958CE00E94C70A089588E085
:101770000E94C70A08958CE00E94C70A08950F933B
:101780001F93082F10E004C080E10E94C70A1F5F6A
:101790001017D0F31F910F9108950F931F93082FE7
:1017A00010E004C084E10E94C70A1F5F1017D0F345
:1017B0001F910F910895DF92EF92FF920F931F9365
:1017C000CF93DF93D42E96E0899FC0011124242F5C
:1017D00030E0AC01429FC001439F900D529F900D9D
:1017E000112470E00E944B18EB01CB0166E070E021
:1017F0000E943718E82EFF2400E010E012C0C80154
:101800000596C817D90710F085E006C0C017D107A4
:1018100010F08E2D01C080E00E94A60AF3940A5FAA
:101820001F4FFD1460F3DF91CF911F910F91FF9037
:10183000EF90DF9008952F923F924F925F926F92B8
:101840007F928F929F92AF92BF92CF92DF92EF9250
:10185000FF920F931F93DF93CF93CDB7DEB76197BE
:101860000FB6F894DEBF0FBECDBF3C017F876E87F9
:101870006A01FC0117821682838181FD03C06FEF2C
:101880007FEF6FC39E012F5F3F4F398B288BF30192
:101890002381EE85FF8523FD859123FF8191FF87BD
:1018A000EE87882309F45AC3853251F4EE85FF850B
:1018B00023FD859123FF8191FF87EE87853229F4EF
:1018C00090E0B3010E942317E2CF982F10E0882404
:1018D00099241032B0F49B3269F09C3228F4903293
:1018E00051F0933271F40BC09D3239F0903349F4CA
:1018F000116028C01260146025C0186023C01061F8
:1019000021C017FD2AC0892F80538A3078F416FF32
:1019100006C0FAE09F9E902C1124980E13C03AE066
:10192000839E802C1124880E10620CC09E3221F4FC
:1019300016FD14C3106406C09C3611F4106802C072
:10194000983659F4EE85FF8523FD959123FF9191FB
:10195000FF87EE87992309F0BCCF892F8554833008
:1019600020F4812F8061905E07C0892F85568330D7
:1019700008F09FC1812F8F7E86FD02C076E0972EF2
:101980006FE3F62EF822953619F4F0E4FF2A07C02B
:10199000963619F420E8F22A02C091109A94F7FEC4
:1019A0000AC03BE3391518F45CE3B52E02C0B92C2C
:1019B000B39427E009C047E0491520F4BB2447E071
:1019C000942EF7CF292DBB24C60104969D878C87C2
:1019D000F6016081718182819381AE014F5F5F4F1B
:1019E0000B2D0E94C7156C010981202E332400FFA6
:1019F00004C003FD02C01DE209C0F1FE02C01BE2EB
:101A000005C0F2FC02C010E001C010E2C1018C7000
:101A10009070892BB9F1112311F483E001C084E0A7
:101A2000881510F088240AC0881AF3FC07C080E2E9
:101A300090E0B3010E9423178A94C9F7112329F07B
:101A4000812F90E0B3010E94231723FE03C00CE80E
:101A500010E00EC000E910E00BC0E114F10409F041
:101A6000805290E0B3010E9423170F5F1F4F05C003
:101A7000EF2CFF24F0E1EF22FF24F801849188236A
:101A800061F714C1F7FE12C0BC0C24FE04C08A81A9
:101A9000813309F4BA941B141CF0BB24B3942DC0F9
:101AA000F8E0FB1550F538E0B32E27C0F6FC25C052
:101AB000892D90E08C159D054CF02CEFC2162FEF70
:101AC000D20624F030E8F32A01C09A94992049F014
:101AD000E2E0F0E0EC0FFD1FE90DF11D80818033A5
:101AE000A1F3F7FE0AC0B92CB394892D90E0C81673
:101AF000D90614F0992401C09C18F7FC03C025E016
:101B000030E009C01C141D041CF021E030E003C0CB
:101B100096012F5F3F4F112311F02F5F3F4F992008
:101B200029F0892D90E00196280F391F882D90E02B
:101B30002817390714F0882401C0821A4F2C552425
:101B4000C20189709070892B39F008C080E290E062
:101B5000B3010E9423178A948820C1F7112329F02A
:101B6000812F90E0B3010E94231743FE07C008C0F5
:101B700080E390E0B3010E9423178A948820C1F784
:101B8000F7FE46C08601D7FE02C000E010E07601F5
:101B90000894E11CF11CE01AF10A41E050E04C0FFE
:101BA0005D1FE40EF51E26014B185108892D90E0AB
:101BB000AA24BB24A81AB90A5FEF0F3F150729F41E
:101BC0008EE290E0B3010E942317C016D10634F0D4
:101BD000401651061CF4F701808101C080E30150DA
:101BE00010400894E11CF11C0A151B052CF090E034
:101BF000B3010E942317E0CF0C151D0539F49A811B
:101C0000963318F4953311F424FE81E390E04BC031
:101C10008A81813309F00F7E90E0B3010E9423177F
:101C20009920A1F08EE290E0B3010E94231712E008
:101C3000E1E0F0E0EC0FFD1FE10FF11D1F5F80817F
:101C400090E0B3010E9423179A9491F744FC03C0DB
:101C500085E690E002C085E490E0B3010E9423177E
:101C6000D7FC05C0C114D10441F404FF06C0D094D0
:101C7000C194D108D3948DE201C08BE290E0B3010E
:101C80000E94231780E305C08F5F26EF3FEFC20E4F
:101C9000D31E3AE0C316D104BCF790E0B3010E9412
:101CA0002317C601C096B3010E942317CC84DD849C
:101CB00052C1933631F0933799F0933509F059C0FA
:101CC00023C0F601808189835E010894A11CB11CA8
:101CD00022E030E0C20ED31E21E0E22EF12C12C031
:101CE000F601A080B18016FD03C06FEF7FEF02C048
:101CF000692D70E022E030E0C20ED31EC5010E94C3
:101D0000C5167C011F7713C0F601A080B18016FDB7
:101D100003C06FEF7FEF02C0692D70E022E030E07A
:101D2000C20ED31EC5010E94BA167C01106813FFB3
:101D300007C01BC080E290E0B3010E9423178A9481
:101D4000882D90E0E816F906A8F30FC0F50117FDFD
:101D5000859117FF81915F0190E0B3010E942317E5
:101D600081108A940894E108F108E114F10471F7F4
:101D7000F2C0943611F0993689F517FF08C0F601C4
:101D8000208131814281538184E090E00AC0F601D4
:101D9000808191819C01442737FD4095542F82E03A
:101DA00090E0C80ED91E9FE6F92EF12257FF09C018
:101DB00050954095309521953F4F4F4F5F4F90E89C
:101DC000F92ACA01B901AE014F5F5F4F2AE030E046
:101DD0000E94D617E82EE889EE1A41C0953721F403
:101DE0001F7E2AE030E01CC0197F9F3661F09037DB
:101DF00020F4983509F0B2C00FC0903739F0983709
:101E000009F0ACC004C028E030E00AC0106114FD45
:101E1000146020E130E004C014FD166020E132E0DF
:101E200017FF08C0F601608171818281938144E0CF
:101E300050E008C0F60180819181BC0180E090E013
:101E400042E050E0C40ED51EAE014F5F5F4F0E94CE
:101E5000D617E82E5889E51A8FE7F82EF122F6FEFC
:101E60000BC08EEFF822E91438F4F4FE07C0F2FC40
:101E700005C09FEEF92202C01E2D01C0192DF4FEEF
:101E80000DC0FE01EE0DF11D8081803319F4E9EEE5
:101E9000FE2208C01F5FF2FE05C003C08F2D8678AA
:101EA00009F01F5F0F2DF3FC14C0F0FE0FC01815D2
:101EB00010F09E2C0BC09E2C980C911A182D06C069
:101EC00080E290E0B3010E9423171F5F1815C0F352
:101ED00004C0181510F4811A01C0882404FF0FC033
:101EE00080E390E0B3010E94231702FF1DC001FDB3
:101EF00003C088E790E00EC088E590E00BC0802F1B
:101F0000867891F001FF02C08BE201C080E2F7FC0D
:101F10008DE290E0B3010E94231706C080E390E0B9
:101F2000B3010E9423179A94E914C0F3EA94E1E004
:101F3000F0E0EC0FFD1FEE0DF11D808190E0B3018C
:101F40000E942317EE2091F706C080E290E0B301D3
:101F50000E9423178A948820C1F799CCF3016681E7
:101F60007781CB0161960FB6F894DEBF0FBECDBF6F
:101F7000CF91DF911F910F91FF90EF90DF90CF9065
:101F8000BF90AF909F908F907F906F905F904F9099
:101F90003F902F900895FC0120FD08C023FD05C04F
:101FA00022FF02C073836283518340830895EF92BE
:101FB000FF920F931F9344FF02C033E011C046FF0E
:101FC00002C034E00DC0DB01FC01AA0FBB1FEE1FF5
:101FD000FF1F1094D1F76A0F7B1F8E1F9F1F31E0E8
:101FE000660F771F881F991F3150D1F77B018C0135
:101FF000E20EF11C011D111DA8019701B701CA01D4
:102000001F910F91FF90EF9008950F931F93CF931F
:10201000DF938C01C8010E94D016EC0197FD08C027
:102020000E949F16892BB1F7CE01B8010E94BC1700
:10203000CE01DF91CF911F910F9108958F929F92C2
:10204000AF92BF92DF92EF92FF920F931F93CF93C5
:10205000DF935C01EB014A01122F0E94D016AC0104
:102060008B3219F08D3251F41068219709F46DC04C
:10207000C5010E94D016AC0197FD67C06DEFD62E4A
:10208000D1228D2D807301F54033F1F4219709F4AD
:1020900047C0C5010E94D016AC0197FD41C082E047
:1020A000D82A483711F0483559F480E4D82A2197C6
:1020B000B9F1C5010E94D016AC0199232CF430C0AF
:1020C000D6FC02C080E1D82AEE24FF248701242F09
:1020D0002053283088F0D4FC09C02A3068F0D6FE9E
:1020E00005C02F7D822F8151863028F0CA01B501AD
:1020F0000E94BC1712C02750C801B7014D2D0E9485
:10210000D70F7B018C0182E0D82A219761F0C501AD
:102110000E94D016AC0197FFDACFD1FC04C015C0E5
:10212000EE24FF248701D7FE08C010950095F09497
:10213000E094E11CF11C011D111DC401B801A701AF
:102140002D2D0E94CB0F81E001C080E0DF91CF9167
:102150001F910F91FF90EF90DF90BF90AF909F90F5
:102160008F9008956F927F928F929F92AF92BF92BD
:10217000CF92DF92EF92FF920F931F93DF93CF9353
:10218000CDB7DEB7A0970FB6F894DEBF0FBECDBFB8
:102190005C016B018A017901FE01319680E2DF0169
:1021A0001D928A95E9F770E030E060E040E050E091
:1021B0003F01A1E0B0E0F5018381F70183FD2591A6
:1021C00083FF21917F01222309F481C02E3519F468
:1021D0004115510569F1872F90E08417950744F464
:1021E0002D3551F12D3221F4332329F431E021C072
:1021F000332309F4622F322F832F86958695869597
:10220000F301E80FF11D832F87704D0102C0880C88
:10221000991C8A95E2F7208128292083361711F42A
:1022200030E007C0361710F43F5FE6CF3150E4CFFF
:1022300071E04F5F5F4FBFCF332319F08E81806213
:102240008E83772359F0FE0131969E012F5D3F4F1B
:10225000808180958193E217F307D1F799249394B5
:102260003E010894611C711CC5010E94D016AC018E
:1022700097FD25C0869586958695F301E80FF11D9B
:10228000808190E09A012770307002C09595879503
:102290002A95E2F780FD05C0CA01B5010E94BC176E
:1022A0000EC00115110519F0D8014D938D01089448
:1022B000C108D1089924C114D104B1F602C09920F3
:1022C00031F40115110529F0F801108202C0EE2445
:1022D000FF24C701A0960FB6F894DEBF0FBECDBF96
:1022E000CF91DF911F910F91FF90EF90DF90CF90F2
:1022F000BF90AF909F908F907F906F9008952F9296
:102300003F925F926F927F928F929F92AF92BF9215
:10231000CF92DF92EF92FF920F931F93CF93DF93B1
:102320003C017B011A010E94D016EC018B3239F07E
:102330008D3211F0552411C0B0E85B2E01C0552438
:102340000894E108F108E114F10409F418C1C3018B
:102350000E94D016EC0197FD12C1CE010E94A71673
:102360008936910521F08E36910599F51DC009EA4F
:1023700010E01CC00894E108F108E114F10471F0C8
:10238000C3010E94D016EC0197FD08C00E94A71659
:10239000D81661F0CE01B3010E94BC1720E00C3AC0
:1023A000120709F0ECC008C006EA10E0F8010F5F60
:1023B0001F4FD490DD20F1F6095A104029F080E03B
:1023C00090E0A0E8BFE7CFC080E090E0A0ECBFE7DE
:1023D000CAC0CC24DD24882499245401AE01405382
:1023E000242F4A3038F552E0552A852D90E0AC0173
:1023F0004870507052FE06C0452B11F50894C11C60
:10240000D11C1EC0452B19F00894C108D108C50184
:10241000B40140E20E94D70F4B015C0188E98816A5
:1024200089E9980689E9A80689E1B80648F094E0A8
:10243000592A06C04E3F81F453FC0EC0E8E05E2AE4
:102440000894E108F108E114F10431F0C3010E949D
:10245000D016EC0197FFC2CF51FE91C0C53619F0DE
:10246000C53409F046C00894E108F108E114F1040C
:1024700009F485C0C3010E94D016EC0197FD7FC00E
:102480008B3221F08D3269F4F0E15F2A0894E10883
:10249000F108E114F10409F472C0C3010E94D016DE
:1024A000EC01CE01C0970A9708F069C000E010E087
:1024B000B801882777FD8095982FAE014053242FCF
:1024C00040E20E94D70F8B010894E108F108E11463
:1024D000F10439F0C3010E94D016EC01C0970A97AD
:1024E00038F3B80154FE03C0709561957F4FC60E56
:1024F000D71EEF2831F0D7FD04C0CE01B3010E94F2
:10250000BC17C501B4010E941114D7FE0DC0A5EC83
:10251000EA2EA0E0FA2ED094C194D108D394C0E260
:10252000D0E000E010E00EC0FDEDEF2EF0E0FF2E59
:10253000F6CFF70125913591459154910E944E14A3
:10254000CC1ADD0ACC16DD06A0F7D695C7950F5F2D
:102550001F4F0630110529F0ECEFFFEFEE0EFF1EC6
:10256000F1CFDC01CB0157FCB0582114310429F024
:10257000F10180839183A283B38381E001C080E075
:10258000DF91CF911F910F91FF90EF90DF90CF904F
:10259000BF90AF909F908F907F906F905F903F9093
:1025A0002F9008955F926F927F928F929F92AF9239
:1025B000BF92CF92DF92EF92FF920F931F93CF9330
:1025C000DF934C015B013A01FC011782168255240E
:1025D00004C1812F90E00E949F16892B21F0C40135
:1025E0000E940510FAC0153249F4F501F3FC65911B
:1025F000F3FE61915F01653269F415E2C4010E9446
:10260000D01697FDF6C0181709F4E7C0B4010E9470
:10261000BC17F4C06A3219F0162F00E006C0F3FCB4
:102620001591F3FE11915F0101E0CC24DD240EC071
:102630000260B60180E090E040E20E94D70F6B019B
:10264000F501F3FC1591F3FE11915F01212F205349
:102650002A3070F301FD04C0CC24CA94DC2C04C0E1
:10266000C114D10409F4CAC0183621F01C3699F4FB
:10267000F5010BC0F501F3FC6591F3FE619168363D
:1026800019F05F01162F07C008600460F3FC159174
:10269000F3FE11915F01112309F4B0C084E990E0C9
:1026A000612F70E00E94AF16892B09F4A7C0802F1C
:1026B00000FF03C0EE24FF2407C0F301E080F18097
:1026C00022E030E0620E731E1E3651F4F4014681A2
:1026D000578160E070E0C701202F0E94CB0F7DC0C2
:1026E0001336B9F481FD03C011E0C12ED12CC40111
:1026F0000E94D01697FD7DC0E114F10419F0F70196
:1027000081937F010894C108D108C114D10479F7DD
:1027100062C01B3559F4C401B601A70195010E949E
:10272000B2105C01009709F056C050C0C4010E946D
:10273000051097FD5EC01F36D1F1103738F41436FE
:10274000A1F11936A9F11835D1F52DC0133751F083
:10275000143718F4103799F526C0153731F11837AA
:1027600071F521C0C4010E94D016EC0197FD15C07F
:102770000E949F16892B29F0CE01B4010E94BC173C
:102780000CC0E114F10419F0F701C1937F01089422
:10279000C108D108C114D10429F7E114F104D9F01A
:1027A000F701108218C0006403C0006201C000611C
:1027B000C401B601A701202F0E941E1005C0C4014C
:1027C000B601A7010E947F11882329F4F4018381B7
:1027D000807379F413C000FF5394F401F380F50182
:1027E000F3FC1591F3FE11915F01112309F0F1CE75
:1027F00005C0552019F42FEF3FEF02C0252D30E022
:10280000C901DF91CF911F910F91FF90EF90DF9061
:10281000CF90BF90AF909F908F907F906F905F9080
:102820000895E89409C097FB3EF4909580957095C3
:1028300061957F4F8F4F9F4F9923A9F0F92F96E90C
:10284000BB279395F695879577956795B795F11181
:10285000F8CFFAF4BB0F11F460FF1BC06F5F7F4F1E
:102860008F4F9F4F16C0882311F096E911C0772330
:1028700021F09EE8872F762F05C0662371F096E839
:10288000862F70E060E02AF09A95660F771F881F08
:10289000DAF7880F9695879597F908950BD078C049
:1028A00069D028F06ED018F0952309F05AC05FC0A7
:1028B0001124A2C07ED0A0F3959FD1F3950F50E0D4
:1028C000551F629FF001729FBB27F00DB11D639FE2
:1028D000AA27F00DB11DAA1F649F6627B00DA11D88
:1028E000661F829F2227B00DA11D621F739FB00D2E
:1028F000A11D621F839FA00D611D221F749F33279E
:10290000A00D611D231F849F600D211D822F762F36
:102910006A2F11249F5750408AF0E1F088234AF033
:10292000EE0FFF1FBB1F661F771F881F915050407F
:10293000A9F79E3F510570F014C05EC05F3FECF3F5
:10294000983EDCF3869577956795B795F795E7956B
:102950009F5FC1F7FE2B880F911D9695879597F97C
:10296000089597F99F6780E870E060E008959FEF11
:1029700080EC089500240A94161617061806090616
:10298000089500240A9412161306140605060895E5
:10299000092E0394000C11F4882352F0BB0F40F46D
:1029A000BF2B11F460FF04C06F5F7F4F8F4F9F4FAD
:1029B000089557FD9058440F551F59F05F3F71F02F
:1029C0004795880F97FB991F61F09F3F79F0879596
:1029D0000895121613061406551FF2CF4695F1DF1F
:1029E00008C0161617061806991FF1CF86957105AF
:1029F000610508940895E894BB2766277727CB01E3
:102A000097F908955058BB27AA270ED0C1CFB2DF3F
:102A100030F0B7DF20F031F49F3F11F41EF4A7CF60
:102A20000EF4E095E7FB9DCFE92FC3DF80F3BA17E3
:102A3000620773078407950718F071F49EF5DBCFE2
:102A40000EF4E0950B2EBA2FA02D0B01B9019001C9
:102A50000C01CA01A0011124FF27591B99F0593F0D
:102A600050F4503E68F11A16F040A22F232F342F55
:102A70004427585FF3CF469537952795A795F040A3
:102A80005395C9F77EF41F16BA0B620B730B840BB8
:102A9000BAF09150A1F0FF0FBB1F661F771F881F70
:102AA000C2F70EC0BA0F621F731F841F48F48795C8
:102AB00077956795B795F7959E3F08F0B3CF9395B7
:102AC000880F08F09927EE0F97958795089534D0D1
:102AD00008F481E0089504D06894B1118DCF089571
:102AE00070DF88F09F5790F0B92F9927B751A0F069
:102AF000D1F0660F771F881F991F1AF0BA95C9F792
:102B000012C0B13081F077DFB1E0089574CF672F44
:102B1000782F8827B85F39F0B93FCCF38695779541
:102B20006795B395D9F73EF490958095709561952A
:102B30007F4F8F4F9F4F0895990F0008550FAA0B95
:102B4000E0E8FEEF16161706E807F907C0F01216C0
:102B50001306E407F50798F0621B730B840B950BC3
:102B600039F40A2661F0232B242B252B21F4089518
:102B70000A2609F4A140A6958FEF811D811D0895B5
:102B8000DBDF08F48FEF0895F8940C949B1828303D
:102B900008F027E03327DA01990F311D87FD916096
:102BA00000966105710539F432602E5F3D9330E384
:102BB0002A95E1F708959F3F30F08038710561054F
:102BC00009F03C5F3C5F3D93913008F08068911DB7
:102BD000DF93CF931F930F93FF92EF92192F987F5C
:102BE0009695E92F96959695E90FFF27EB50FE4FA6
:102BF00099273327EE24FF24A701E70105900894C5
:102C0000079428F4360FE71EF81E491F511D660F62
:102C1000771F881F991F0694A1F70590079428F441
:102C2000E70EF81E491F561FC11D770F881F991FF9
:102C3000661F0694A1F70590079428F4F80E491F23
:102C4000561FC71FD11D880F991F661F771F069437
:102C5000A1F70590079420F4490F561FC71FD81FEE
:102C6000990F661F771F881F0694A9F78491109506
:102C7000177041F0D695C79557954795F794E79407
:102C80001A95C1F7EBE9F1E068941590159135912B
:102C90006591959105907FE27395E118F10A430BD8
:102CA000560BC90BD009C0F7E10CF11E431F561F8C
:102CB000C91FD01D7EF4703311F48A95E6CFE894D5
:102CC000015030F0080F0AF40027021708F4202FF3
:102CD0002395022F7A3328F079E37D932A95E9F73B
:102CE00010C07D932A9589F6069497956795379538
:102CF00017951794E118F10A430B560BC90BD0092D
:102D000098F023957E9173957A3308F070E37C9365
:102D10002013B8F77E9170617D9330F0839571E355
:102D20007D9370E32A95E1F71124EF90FF900F91C6
:102D30001F91CF91DF91992787FD9095089591116B
:102D400093C1803219F089508550D0F708959111C0
:102D5000089581548A5108F4805E855A0895FC01D3
:102D60000590061621F00020D9F7C001089531978B
:102D7000CF010895FC010590615070400110D8F713
:102D8000809590958E0F9F1F0895FC0161507040B3
:102D900001900110D8F7809590958E0F9F1F089590
:102DA000CF93DF93EC014B8140FF1AC046FF0AC06E
:102DB0004F7B4B838E819F8101969F838E838A8177
:102DC000282F2BC042FF13C0E881F9818081282F72
:102DD000332727FD30952115310529F440624B83B7
:102DE0002FEF3FEF1BC03196F983E88311C0EA85CE
:102DF000FB85CE0109959C0197FF0AC09B812F5F3F
:102E00003F4F11F080E201C080E1892B8B83E8CF36
:102E10008E819F8101969F838E8330E0C901DF916F
:102E2000CF910895DF93CF93CDB7DEB79E01275F93
:102E30003F4F8D819E816F817885A9010E941B0C77
:102E4000CF91DF9108950F931F93CF93DF938C0160
:102E5000EB018B8181FF1BC082FF0DC02E813F8162
:102E60008C819D812817390764F4E881F9810193E9
:102E7000F983E88306C0E885F985802F0995892BB9
:102E800031F48E819F8101969F838E8302C00FEF64
:102E90001FEFC801DF91CF911F910F910895EF921D
:102EA000FF920F931F93CF93DF937C018B01DB0184
:102EB00013968C9181FD03C0CFEFDFEF13C0C0E00C
:102EC000D0E00BC0D8011896ED91FC911997B8018C
:102ED0000995892B11F0CFEFDFEFF70181917F0189
:102EE000882381F7CE01DF91CF911F910F91FF9041
:102EF000EF900895DF93CF93CDB7DEB79E01275FA4
:102F00003F4F8D819E816F817885A9010E94D212E9
:102F1000CF91DF9108950F931F93DF93CF93CDB798
:102F2000DEB72E970FB6F894DEBF0FBECDBF0D896A
:102F30001E8986E08C831A8309838FEF9FE79E8327
:102F40008D839E01275E3F4FCE0101966F89788D5C
:102F5000A9010E941B0C2F813885020F131FF80155
:102F600010822E960FB6F894DEBF0FBECDBFCF9164
:102F7000DF911F910F9108959C01FB01838180FFD8
:102F800011C086FD0FC09FEF2F3F390759F02283F4
:102F900080648F7D83838681978101979783868361
:102FA00030E002C02FEF3FEFC9010895FA01AA27D0
:102FB000283051F1203181F1E8946F936E7F6E5F7C
:102FC0007F4F8F4F9F4FAF4FB1E03ED0B4E03CD02A
:102FD000670F781F891F9A1FA11D680F791F8A1F0D
:102FE000911DA11D6A0F711D811D911DA11D20D074
:102FF00009F468943F912AE0269F11243019305D2E
:103000003193DEF6CF010895462F4770405D41931E
:10301000B3E00FD0C9F7F6CF462F4F70405D4A336B
:1030200018F0495D31FD4052419302D0A9F7EACF33
:10303000B4E0A6959795879577956795BA95C9F762
:1030400000976105710508959B01AC010A2E069455
:103050005795479537952795BA95C9F7620F731F0E
:10306000841F951FA01D0895992788270895AA1BDE
:10307000BB1B51E107C0AA1FBB1FA617B70710F063
:10308000A61BB70B881F991F5A95A9F78095909595
:10309000BC01CD01089597FB092E07260AD077FDC4
:1030A00004D0E5DF06D000201AF4709561957F4FBB
:1030B0000895F6F7909581959F4F089597FB092EF7
:1030C00005260ED057FD04D014D00AD0001C38F4C9
:1030D00050954095309521953F4F4F4F5F4F089544
:1030E000F6F790958095709561957F4F8F4F9F4F24
:1030F0000895A1E21A2EAA1BBB1BFD010DC0AA1F39
:10310000BB1FEE1FFF1FA217B307E407F50720F050
:10311000A21BB30BE40BF50B661F771F881F991FCB
:103120001A9469F760957095809590959B01AC0114
:0A313000BD01CF010895F894FFCF10
:10313A000A0D2048690A0D0A0D002573202566002C
:10314A0076616C7565206F662073206368616E67AF
:10315A00656420746F20252E31660A0A0076616C38
:10316A007565206F662070206368616E67656420EC
:10317A00746F20252E31660A0A0076616C75652007
:10318A006F662069206368616E67656420746F20CA
:10319A00252E31660A0A0076616C7565206F6620F5
:1031AA0064206368616E67656420746F20252E3120
:1031BA00660A0A00696E7075742052504D3A2025CD
:1031CA002D69200066616E2052504D3A20252D69E6
:1031DA00202020000000000300000000A504FE04D7
:0231EA000000E3
:00000001FF
